:1000000005C100000C94152B0C94402B0C946B2B09
:100010000C94962B0C94C12B0C94EC2B0C94172C59
:100020000C94422C24C1000022C1000020C1000019
:100030001EC100001CC100001AC1000018C1000050
:1000400016C1000014C1000012C1000010C1000060
:100050000EC100000CC100000AC100000C946D2C00
:1000600006C100000C94952F0C94CB2F00C100000A
:10007000FEC00000FCC00000FAC00000F8C0000094
:10008000F6C00000F4C00000F2C00000F0C00000A4
:100090000C9421300C945730EAC00000E8C00000F6
:1000A000E6C00000E4C00000E2C00000E0C00000C4
:1000B000DEC00000DCC00000DAC00000D8C00000D4
:1000C000D6C00000D4C000000C9444270C94AD307E
:1000D0000C94E330CCC000000C9439310C946F3197
:1000E000C6C0000000000A0B02090C0D0E08070331
:1000F00004010000000000000000000000000000FB
:1001000000000000000000000000000000000000EF
:1001100012111000000000000000000000000000AC
:100120000000000000000000000001021020200874
:100130000810204010204080020102010804020142
:1001400001020408102040808040201008040201B1
:10015000800402018040201008040201080402010A
:100160000102040810204080010204081020408091
:1001700005050505070508080808020202020A0A23
:100180000808040404040101010101010101030341
:10019000030303030303040707070C0C0C0C0C0CEC
:1001A0000C0C0202020206060606060606060B0BE9
:1001B0000B0B0B0B0B0B000020002300260029006B
:1001C0002C002F003200000100000301060109018C
:1001D00000002200250028002B002E0031003400F2
:1001E00002010000050108010B01000021002400AC
:1001F00027002A002D003000330001010000040117
:1002000007010A01F42F80300C31983111241FBEF0
:10021000CFEFD1E2DEBFCDBF00E00CBF12E0A0E027
:10022000B2E0E6EDF4E600E00BBF02C007900D92ED
:10023000A83EB107D9F728E0A8EEB2E001C01D92B0
:10024000AD33B207E1F711E0C6E0D1E000E006C04F
:1002500021970109802FFE010E943832C230D10758
:1002600080E00807A9F70E9460280C946932C8CE84
:10027000CF93DF93EC0170E060E06C177D070CF525
:10028000072E000C880B990B0E94842920E030E097
:10029000A9010E94E92820E030E0A9010E94E92894
:1002A00020E030E040E450E40E94E92820E030E023
:1002B00040E450E40E94E8280E9451296F5F7F4F7C
:1002C000DCCFDF91CF910895CF93DF938091F80237
:1002D0009091F9020E94432EEC018091FE029091D0
:1002E000FF02C6DF8091FA029091FB020E94432E2A
:1002F000019771F48091FC029091FD02219771F4B5
:1003000001969093FD028093FC02DF91CF910895B6
:100310008091FC029091FD02CD2B91F30197F1CFDA
:10032000CF93DF938091F0029091F1020E94432ECF
:10033000EC018091F6029091F7029ADF8091F2022F
:100340009091F3020E94432E019771F48091F40280
:100350009091F502219771F401969093F5028093A4
:10036000F402DF91CF9108958091F4029091F5020B
:10037000CD2B91F30197F1CFCF93DF938091E802DA
:100380009091E9020E94432EEC018091EE0290913F
:10039000EF026EDF8091EA029091EB020E94432E01
:1003A000019771F48091EC029091ED02219771F424
:1003B00001969093ED028093EC02DF91CF91089526
:1003C0008091EC029091ED02CD2B91F30197F1CF4A
:1003D000CF93DF938091F2029091F3020E94432E1B
:1003E000EC018091F6029091F70242DF8091F002D9
:1003F0009091F1020E94432E019771F48091F402D2
:100400009091F502CD2B71F401969093F5028093B3
:10041000F402DF91CF9108958091F4029091F5025A
:10042000219791F30197F1CFCF93DF938091EA0267
:100430009091EB020E94432EEC018091EE0290918C
:10044000EF0216DF8091E8029091E9020E94432EAC
:10045000019771F48091EC029091ED02CD2B71F433
:1004600001969093ED028093EC02DF91CF91089575
:100470008091EC029091ED02219791F30197F1CFD9
:10048000CF93DF938091FA029091FB020E94432E5A
:10049000EC018091FE029091FF02EADE8091F80269
:1004A0009091F9020E94432E019771F48091FC0211
:1004B0009091FD02CD2B71F401969093FD028093F3
:1004C000FC02DF91CF9108958091FC029091FD0292
:1004D000219791F30197F1CF0F931F93CF93DF9360
:1004E0008C01EC0183E0CC0FDD1F8A95E1F7C85148
:1004F000DD4F798368835B834A838881998160E0DB
:100500000E94DA2D8A819B8160E00E94DA2D888129
:10051000998161E00E94162E8A819B8161E00E9490
:10052000162E01301105D9F10230110509F466C00B
:10053000012B09F092C08091E8029091E9020297A4
:100540008431910530F58F5B9D4FFC018081082E31
:10055000000C990B41E050E064E172E00E949C2A9B
:100560008091EA029091EB02029784319105A0F408
:100570008F5B9D4FFC018081082E000C990B41E0A0
:1005800050E06CEB71E0DF91CF911F910F910C94D3
:100590009C2A8FEF9FEFDECF8FEF9FEFF0CF809100
:1005A000F0029091F10202978431910508F58F5B7A
:1005B0009D4FFC018081082E000C990B41E050E01A
:1005C00068EE71E00E949C2A8091F2029091F30201
:1005D00002978431910578F48F5B9D4FFC018081F7
:1005E000082E000C990B41E050E060E971E0CBCFA0
:1005F0008FEF9FEFE3CF8FEF9FEFF5CF8091F80262
:100600009091F90202978431910508F58F5B9D4F17
:10061000FC018081082E000C990B41E050E060E461
:1006200072E00E949C2A8091FA029091FB0202974C
:100630008431910578F48F5B9D4FFC018081082EF9
:10064000000C990B41E050E064E671E09CCF8FEF25
:100650009FEFE3CF8FEF9FEFF5CFDF91CF911F910A
:100660000F91089523E0880F991F2A95E1F7FC0167
:10067000E851FD4F84819581089590E080E00895D0
:100680000F931F93009709F487C06115710509F452
:1006900083C0009108021091090220910A02309152
:1006A0000B020E3F1F4F2F4F3F4F09F066C04FEF19
:1006B0005FEFBA01409308025093090260930A0267
:1006C00070930B02409108025091090260910A0256
:1006D00070910B02DC011296ED91FC918081918169
:1006E000A281B38180936C0390936D03A0936E03FA
:1006F000B0936F0384819581A681B781809368034D
:1007000090936903A0936A03B0936B0380859185EE
:10071000A285B3858093640390936503A0936603D9
:10072000B093670384859585A685B785809360031C
:1007300090936103A0936203B093630310925C03F0
:1007400010925D0310925E0310925F0384D780E5E0
:100750009BE09093010380930003909303038093A5
:10076000020368D6009731F421E030E03093710342
:10077000209370031F910F9108950091080210912A
:10078000090220910A0230910B02DB010D931D93A7
:100790002D933C93139796CF8FEF9FEFEBCF8F92D4
:1007A0009F92AF92BF92CF92DF92EF92FF921F93F0
:1007B000CF93DF934B015C011091730382E090E0D3
:1007C000909371038093700381149104A104B10488
:1007D00041F480917303811104C080917203C1E0E0
:1007E0008111C0E0C12CD12C76018091730381115D
:1007F00006C080917203811102C0CC23D9F083E03E
:1008000090E09093710380937003CC2379F1CCE94D
:10081000DFEF111102C00E94B40ECE01DF91CF9123
:100820001F91FF90EF90DF90CF90BF90AF909F907F
:100830008F9008956AE070E080E090E00E94DC2CE8
:1008400080E1C80E87E2D81EE11CF11C8FEF8816EC
:100850009806A806B80631F0C1E08C149D04AE04D9
:10086000BF0408F0C0E080E019D6BFCFD0E0C0E000
:10087000D0CFCF92DF92EF92FF920F931F93CF933F
:10088000DF938F3F910511F008F050C02091700365
:10089000309171032330310539F02091700330918C
:1008A00071032130310531F424E030E030937103DD
:1008B000209370036A017B01EC0182309105A0F066
:1008C00011E0AE01C701B601B4D5AB01BC01CE0148
:1008D0001123F9F0DF91CF911F910F91FF90EF90CD
:1008E000DF90CF900C94DD108C01000F111F005091
:1008F0001D4FD8018D919C91892B11F30E94E71017
:100900000297F1F6D801ED91FC91CE011995182FBF
:10091000D8CF0E94FF1090E080E0DF91CF911F912F
:100920000F91FF90EF90DF90CF9008958FEF9FEFA2
:10093000F4CF80E0B3C5CF93DF9386E090E090934F
:1009400071038093700303D6EC01E0E0F3E084E0F0
:10095000DF011D928A95E9F70E944C0E10927103F7
:1009600010927003CE01DF91CF91089580917203B0
:10097000089580915B0308956093080270930902C3
:1009800080930A0290930B0290E080E008952F92EA
:100990003F924F925F926F927F928F929F92AF920F
:1009A000BF92CF92DF92EF92FF920F931F93CF935C
:1009B000DF93CDB7DEB7CB54D1090FB6F894DEBFC5
:1009C0000FBECDBF26967FAF6EAF269728965FAF3E
:1009D0004EAF28973E8B2D8B2C96FFAEEEAE2C970C
:1009E000FB01E150F04CEE0FFF1FEE0FFF1FE80F71
:1009F000F91F80809180A280B3808F8A988EA98E03
:100A0000BA8EB501A401442777FD43955527662783
:100A1000772729964FAF2997F901E150F04CEE0F57
:100A2000FF1FEE0FFF1F2896AEACBFAC2897EA0D54
:100A3000FB1DC080D180E280F380CB8EDC8EED8EFA
:100A4000FE8EB701A601442777FD439555276627FB
:100A500077272A964FAF2A97188B0F87F80130E037
:100A600020E02C96EEACFFAC2C972E153F050CF435
:100A70003FC022969FAF8EAF22971A8B098B312CE5
:100A8000212C812C912C540183948D829E82AF82E3
:100A9000B88626968EAC9FAC2697281439047CF134
:100AA00029969FAC29972A96AFAC2A9730E020E090
:100AB00041E050E060E070E09A10F5C1C55BDF4FA7
:100AC0000FB6F894DEBF0FBECDBFDF91CF911F915F
:100AD0000F91FF90EF90DF90CF90BF90AF909F90DD
:100AE0008F907F906F905F904F903F902F900895E0
:100AF00011921192119211922F5F3F4FB2CF229615
:100B0000EEADFFAD229781919191A191B191229685
:100B1000FFAFEEAF22978F88988CA98CBA8CB7FE66
:100B200023C04D815E816F817885415051096109F3
:100B300071095A016B01A81AB90ACA0ADB0AD6015F
:100B4000C50121E0CD80DE80EF80F8848C159D0505
:100B5000AE05BF0508F020E0822E912CB12CA12C0F
:100B60008D829E82AF82B8865D01CC24DD24A8A24E
:100B7000B9A2CAA2DBA29C01AD01442755272CA330
:100B80003DA34EA35FA32C96EEADFFAD2C97E219CB
:100B9000F3098D889E888E169F060CF4F401289622
:100BA000AEACBFAC28972496BFAEAEAE2497C98832
:100BB000DA88DC8ACB8A1E861D86812C912C540112
:100BC000839489869A86AB86BC86812C912C5401AD
:100BD000CD84DE84CE16DF0604F1F7FF02C0F0E01C
:100BE000E0E0E20DF31D2C96EEACFFAC2C97EE1579
:100BF000FF0554F4EE0FFF1FEE0FFF1FE00FF11F74
:100C000080829182A282B3822FEF221A320AE9896E
:100C1000FA893496FA8BE98B3CCF2496AEADBFAD02
:100C20002497CD90DD90ED90FD902496BFAFAEAFB0
:100C300024972B8D3C8D4D8D5E8D57FF22C089856D
:100C40009A85AB85BC850197A109B109AC01BD01AD
:100C50004C195D096E097F096A017B0181E02985D4
:100C60003A854B855C85C216D306E406F50608F086
:100C700080E0482F50E070E060E049875A876B873A
:100C80007C87B7018827992768A779A78AA79BA798
:100C9000EE24FF2428A139A14AA15BA1C701B60116
:100CA0000E94F3312B013C012CA13DA14EA15FA17B
:100CB00068A579A58AA59BA50E94F3316CA77DA79D
:100CC0008EA79FA7AB89BC894D915D916D917D9158
:100CD000BC8BAB8BDB01CA01880D991DAA1DBB1D06
:100CE00089839A83AB83BC8391E09F8F29813A816A
:100CF0004B815C81281539054A055B0508F01F8E7C
:100D00002CA13DA14EA15FA1C701B6010E94F33104
:100D10006B017C0189809A80AB80BC808C0C9D1C0F
:100D2000AE1CBF1C89829A82AB82BC82520199247C
:100D3000882488AA99AAAAAABBAA29813A814B81A8
:100D40005C81280D391D4A1D5B1D2CAB3DAB4EABA4
:100D50005FAB8CA49DA4AEA4BFA4540199248824A5
:100D600088AE99AEAAAEBBAE280D391D4A1D5B1DDB
:100D70002CAF3DAF4EAF5FAFAB89BC8914972D93BD
:100D80003D934D935C93139728A139A14AA15BA190
:100D900068A579A58AA59BA50E94F3319F8C690D52
:100DA000711D811D911D230166247724460E571E57
:100DB000681E791E2CA53DA54EA55FA54A01AA2453
:100DC000BB24840C951CA61CB71C81E090E0A0E01D
:100DD000B0E049815A816B817C814C155D056E05BF
:100DE0007F0518F080E090E0DC01880D991DAA1DB8
:100DF000BB1D41E050E060E070E088A899A8AAA877
:100E0000BBA8CCA8DDA8EEA8FFA8C814D904EA04A2
:100E1000FB0418F040E050E0BA01840F951FA61FB4
:100E2000B71F812C912C54018394C8ACD9ACEAAC87
:100E3000FBAC2CAD3DAD4EAD5FAD2C153D054E056B
:100E40005F0518F0812C912C5401880E991EAA1E62
:100E5000BB1E4D855E854F5F5F4F5E874D87B8CE69
:100E6000EF85F889C190D190E190F190F88BEF87F0
:100E7000DB01CA010197A109B1098C199D09AE09CD
:100E8000BF09349780839183A283B383E1E0841701
:100E90009507A607B70708F0E0E04E2F50E070E096
:100EA00060E02F5F3F4F2C968EAC9FAC2C9728159F
:100EB0003905B4F203CE4F925F926F927F928F9278
:100EC0009F92AF92BF92CF92DF92EF92FF920F93D9
:100ED0001F93CF93DF9300D000D01F921F92CDB706
:100EE000DEB7C0900002D0900102E0900202F090C4
:100EF0000302A701960160911C0870911D08809162
:100F00001E0890911F080E944D29882341F0C0922D
:100F10001C08D0921D08E0921E08F0921F0890E075
:100F200080E0A0DB4091040250910502609106022E
:100F3000709107024D835E836F837887092E000CC2
:100F4000AA0BBB0B89839A83AB83BC8382E0E82E18
:100F5000F12C0EE018E021E030E0AE014F5F5F4F72
:100F600061E070E0CE01059612DDC0902E03D090B6
:100F70002F03E0903003F09031038FEFC81AD80AA6
:100F8000E80AF80AC0922E03D0922F03E0923003B1
:100F9000F0923103C114D104E104F10499F4809179
:100FA000320390913303A0913403B091350301963D
:100FB000A11DB11D8093320390933303A09334039A
:100FC000B09335038090360390903703A090380398
:100FD000B0903903609132037091330380913403F0
:100FE000909135030E948229A50194010E94382A1C
:100FF00020E030E040E85FE40E94382A2B013C0109
:10100000C701B6010E948229A50194010E94382AD5
:101010009B01AC01C301B2010E94E92860932A033D
:1010200070932B0380932C0390932D0328960FB677
:10103000F894DEBF0FBECDBFDF91CF911F910F910E
:10104000FF90EF90DF90CF90BF90AF909F908F90E8
:101050007F906F905F904F9008951F93CF93DF9391
:1010600084E090E0AED0E4E1F3E08BE2DF011D929A
:101070008A95E9F780E090E0A0E8BFEB86A397A30C
:10108000A0A7B1A78AE097EDA3E2BCE382A393A354
:10109000A4A3B5A38AE591EBACE5B3ED8483958376
:1010A000A683B78380E196EAA7E3BDEF80879187A7
:1010B000A287B38784E89EEFA0EAB5E78487958787
:1010C000A687B7878DEF9BEFA6EFB9E5808B918B55
:1010D000A28BB38BA8E0B3E0B383A283E4E0F3E098
:1010E0001196FC93EE9385E592E091838083938340
:1010F000828388E293E015969C938E93149788E1FF
:1011000093E013969C938E9312978AE293E017963E
:101110009C938E931697EEE0F8E088E0DF011D9235
:101120008A95E9F7C6E1D8E08DE0FE0111928A9533
:10113000E9F711E01C878091000290910102A091D3
:101140000202B09103028E839F83A887B98781E052
:1011500090E0A0E0B0E089839A83AB83BC8343E056
:1011600050E062E070E090E080E0B6D91D83DF914E
:10117000CF911F91089580911608811103C081E0DD
:1011800080931608089560E070E080E89FE7089576
:1011900060E070E080E89FE7089560E070E080E83C
:1011A0009FEF089560E070E080E89FEF089560E0B1
:1011B00070E080EC9FEF089560E070E080EC9FEFBE
:1011C0000895F5DF60932F087093300880933108FD
:1011D00090933208F1DF6093230870932408809382
:1011E000250890932608CFDF60932B0870932C0876
:1011F00080932D0890932E08CBDF6093270870937F
:1012000028088093290890932A08C7DF6093330841
:10121000709334088093350890933608C3DF609349
:101220003708709338088093390890933A080895E6
:101230004F925F926F927F928F929F92AF92BF92E6
:10124000CF92DF92EF92FF920F931F93F89440900A
:101250004B0350904C0360904D0370904E03C09030
:101260003F03D0904003E0904103F0904203452BB0
:1012700009F0A4C09B01AC0124193509460957099E
:1012800029013A0100914703109148032091490335
:1012900030914A0348015901840C951CA61CB71CC7
:1012A00080169106A206B306A0F4009143031091A4
:1012B000440320914503309146030F5F1F4F2F4F8A
:1012C0003F4F00934303109344032093450330930F
:1012D00046038092470390924803A0924903B0923C
:1012E0004A03009143031091440320914503309138
:1012F000460380924F0390925003A0925103B09204
:1013000052030093530310935403209355033093D7
:10131000560360934B0370934C0380934D0390935B
:101320004E03A0E1B7E2A30192010E9440326C0D8E
:101330007D1D8E1D9F1D60933F037093400380931E
:1013400041039093420300910802109109022091F9
:101350000A0230910B020F3F1F4F2F4F3F4FF1F00A
:10136000009108021091090220910A0230910B02AB
:101370000E3F1F4F2F4F3F4F89F0C0900802D09073
:101380000902E0900A02F0900B0221E08C149D0407
:10139000AE04BF0408F420E020935B0378941F910F
:1013A0000F91FF90EF90DF90CF90BF90AF909F9004
:1013B0008F907F906F905F904F9008954B015C01EC
:1013C00084189508A608B708A3019201261B370BBD
:1013D000480B590B6415750586059705D0F08216E4
:1013E0009306A406B50640F420E030E0A90181147C
:1013F0009104A104B10491F4A0E1B7E20E9440324B
:10140000A7019601261B370B480B590BCA01B901DE
:10141000C5CF82169306A406B50670F7A0E1B7E221
:10142000A50194010E9440326C0D7D1D8E1D9F1DF3
:10143000B5CFFECECF93DF9300D01F92CDB7DEB7EE
:101440001C821B821A821982109257031092580331
:101450001092590310925A03BE016F5F7F4FCE0165
:1014600003960E94152769817A818B819C810E9455
:101470000320009761F4BE016F5F7F4FCE0103969A
:101480000E94212769817A818B819C812ED50F90C2
:101490000F900F900F90DF91CF910895FF920F93CF
:1014A0001F93CF93DF93082F60E070E0CB010E9481
:1014B000DC2CFF24F3940E94EC1EEC01892B89F0B4
:1014C00010E0CE3F8FEFD80769F0002361F160E0B4
:1014D00070E0CB010E94DC2C81E090E0892B59F375
:1014E00022C011E025D5EC01892B21F0CE3F8FEFF2
:1014F000D80759F711111EC011E0229609F410E027
:101500000E949C1EEC01892B21F0CE3F8FEFD80763
:10151000E1F6111111C011E0CE3F8FEFD80709F4A9
:1015200010E001110BC0CE01DF91CF911F910F91FF
:10153000FF90089511E0E4CF11E0F3CF60E070E098
:10154000CB010E94DC2C1F25812F90E0C7CFCF93C9
:10155000DF9380915B03882321F060E070E0CB0192
:101560004CD635D6D0E0C0E0892B71F06AE070E04F
:1015700080E090E00E94DC2C81E090DF28D621966C
:10158000C03D27E0D20781F727D60E94572010924E
:1015900073031092720310926C0310926D031092F9
:1015A0006E0310926F0310926803109269031092F9
:1015B0006A0310926B0310926403109265031092F9
:1015C00066031092670310926003109261031092F9
:1015D00062031092630310925C0310925D031092F9
:1015E0005E0310925F034EEF5FEF6FEF7FEF40936C
:1015F00008025093090260930A0270930B02109242
:101600005B03EFE4F3E028E0DF011D922A95E9F7A0
:1016100010924B0310924C0310924D0310924E0304
:1016200010924703109248031092490310924A0304
:101630001092430310924403109245031092460304
:1016400010923F0310924003109241031092420304
:10165000DF91CF91089510927F0310928003109232
:1016600081031092820310927E03809187039091F0
:10167000880390937D0380937C0310927B031092E8
:101680007A031092760310927703109278031092E7
:101690007903109284031092830390E080E0089510
:1016A000CF92DF92EF92FF920F931F93CF938C0113
:1016B000892B09F055C020918703309188038091D0
:1016C0007C0390917D034091870350918803509350
:1016D0007D0340937C032817390781F010927B0328
:1016E00010927A0310927603109277031092780387
:1016F00010927903109284031092830380918703E0
:1017000090918803019761F5809183039091840300
:10171000892B21F480910C02811112C080918303E6
:10172000909184030197E1F480917603909177037F
:10173000A0917803B09179030197A105B10581F4D7
:101740001092760310927703109278031092790327
:1017500010920C0282E090E09093840380938303C4
:101760008091870390918803019709F01CC18091B3
:101770009D0390919E038017910709F014C18091F9
:10178000990390919A03A0919B03B0919C030097B9
:1017900009F409C12091980321110DC040919903CA
:1017A00050919A0360919B0370919C03452B462BAB
:1017B000472B09F4F8C02091830330918403223031
:1017C000310509F0F0C020917A032111ECC0FC0131
:1017D000C080D180E280F38080917E03882309F469
:1017E000D3C080918A0390918B03892B09F4FDC0AB
:1017F00020918A0330918B0381E02230310509F07A
:1018000080E020918A0330918B03C1E021303105C3
:1018100049F020918A0330918B03C1E022303105D9
:1018200009F0C0E0882309F456C020919403309158
:1018300095034091960350919703C701B6010E940A
:10184000342A87FD14C02091940330919503409170
:1018500096035091970360917F037091800380916C
:101860008103909182030E944D2987FD22C020911F
:101870009403309195034091960350919703C701CB
:10188000B6010E94342A181634F520919403309141
:101890009503409196035091970360917F03709157
:1018A000800380918103909182030E944D298111D0
:1018B00012C080918C0390918D03A0918E03B09102
:1018C0008F03892B8A2B8B2B19F481E080937B0368
:1018D00081E080937A03CC2309F456C020919403CD
:1018E000309195034091960350919703C701B6013B
:1018F0000E944D2987FF14C02091940330919503D5
:10190000409196035091970360917F0370918003FB
:1019100080918103909182030E94342A87FF22C024
:101920002091940330919503409196035091970331
:10193000C701B6010E944D29811126C02091940350
:1019400030919503409196035091970360917F03E6
:101950007091800380918103909182030E94342AC8
:10196000181694F480918C0390918D03A0918E03AE
:10197000B0918F03892B8A2B8B2B19F481E08093F4
:101980007B0381E080937A0381E090917A03911147
:1019900080E080937E03C0927F03D0928003E09228
:1019A0008103F0928203012B09F067C180918303C8
:1019B00090918403892BD9F41092890310927A03B1
:1019C00080910C02882379F082E090E09093840368
:1019D0008093830310920C02209187033091880337
:1019E00081E0232BE9F080E01BC081E00ACF109258
:1019F0000C0280918903882349F010927B03109296
:101A000084031092830310928903EDCF80918703A2
:101A100090918803892BE1F080917A0310927A03E8
:101A200020918303309184032230310509F45EC094
:101A300088F42115310509F448C02130310509F435
:101A4000F3C010927B0310927A031092890338C07E
:101A500081E0E6CF2330310509F4B1C024303105EF
:101A600081F74091760350917703609178037091EC
:101A70007903411551056105710561F04150510926
:101A8000610971094093760350937703609378035B
:101A900070937903409176035091770360917803B6
:101AA00070917903452B462B472BD9F42091850360
:101AB000309186032130310509F046C010927B0336
:101AC00010928403109283030CC080910C0288232F
:101AD00041F082E090E0909384038093830310921E
:101AE0000C021092740380917B03CEC08823C9F34B
:101AF00080918C0390918D03A0918E03B0918F0300
:101B0000181619061A061B060CF07DC08091870373
:101B100090918803019709F076C080918C03909191
:101B20008D03A0918E03B0918F03809376039093E1
:101B30007703A0937803B093790383E090E09093C8
:101B4000840380938303CDCF409190035091910300
:101B50006091920370919303452B462B472BA9F07C
:101B600010927B038091900390919103A091920336
:101B7000B09193038093760390937703A0937803B7
:101B8000B093790381E090E0DACF882399F08091D7
:101B90000D0290910E02A0910F02B091100280935D
:101BA000760390937703A0937803B093790384E04E
:101BB00090E0C5CF10927B0382E090E0C0CF80918F
:101BC000760390917703A0917803B0917903009701
:101BD000A105B10559F00197A109B10980937603D8
:101BE00090937703A0937803B09379038091760361
:101BF00090917703A0917803B0917903892B8A2B78
:101C00008B2B09F06ECF80910D0290910E02A09166
:101C10000F02B0911002892B8A2B8B2B09F44ECF27
:101C200081E080937B03B3CF40917603509177039B
:101C30006091780370917903411551056105710533
:101C400061F0415051096109710940937603509345
:101C500077036093780370937903409176035091F2
:101C600077036091780370917903452B462B472BBE
:101C700009F037CF8111C7CF9FCF8091740388239C
:101C800009F431CF80917503CF911F910F91FF908F
:101C9000EF90DF90CF90089510927F031092800311
:101CA000109281031092820310927E03109284039B
:101CB0001092830310927D0310927C0310929E0376
:101CC00010929D0310927B0310927A031092760378
:101CD0001092770310927803109279031092750393
:101CE000109274031092990310929A0310929B031E
:101CF00010929C03109298031092940310929503F3
:101D0000109296031092970388EE93E0A0E0B0E063
:101D100080930D0290930E02A0930F02B0931002D5
:101D200010929003109291031092920310929303D9
:101D300010928C0310928D0310928E0310928F03D9
:101D400010928B0310928A0381E080930C02109210
:101D500089031092880310928703109286031092D1
:101D6000850390E080E00895809187039091880337
:101D7000892B19F580910C02882351F080918903F9
:101D8000811106C081E080937503809374030895E8
:101D90002091890330910C0281E090E0332311F00F
:101DA00090E080E030E082239323892B21F0109291
:101DB000750381E0EACF10927403089582E090E009
:101DC000FA01918380838FEF9FEF0895CF93DF9384
:101DD000EA01009711F00E9477211982188290E0A1
:101DE00080E0DF91CF910895DB01009719F48FEF28
:101DF0008C9308952EEF2C93FC013F96EF30F10564
:101E000008F034C08827E85FF04F8F4F0C943832C9
:101E1000340F320F300F2E0F2C0F280F2A0F260FE2
:101E2000240F220F1F0F1B0F170F1D0F360F80E3FC
:101E300011968C93089589E2FBCF82E2F9CF119637
:101E40001C92089583E2F4CF81E2F2CF81E1F0CFDA
:101E500087E2EECF8AE2ECCF80E1EACF84E2E8CFFE
:101E600088E2E6CF86E2E4CF81E3E2CF80E2E0CF12
:101E70008091AB039091AC0308959093AC03809351
:101E8000AB0308958091AA0308959091AA03892B2A
:101E90008093AA030895982F90958091AA0389238F
:101EA0008093AA0308958091A90308958091A703C0
:101EB0009091A80308956115710559F0FB0130E078
:101EC00020E070E060E02417350719F06115710516
:101ED00011F0CB010895A081B181A817B90709F4C9
:101EE000BF012F5F3F4F3696EECF8091AD0381113A
:101EF0001CC060D266D29093A00380939F030E947F
:101F000075190E9487199093A4038093A3030E94DC
:101F1000041E0E940B1E9093A2038093A10381E0F4
:101F20008093AD0390E080E0089584EF9FEF0895E3
:101F30008F929F92AF92BF92CF92DF92EF92FF92D9
:101F40000F931F93CF93DF9300D000D000D01F9248
:101F5000CDB7DEB71A86198618861F821E821D82AB
:101F60001C821B821A8219828091AD0307EF1FEF3A
:101F7000882309F49CC08E010D5F1F4F9E012B5FCB
:101F80003F4FAE01495F5F4FBE01675F7F4F90E0FB
:101F900080E00E94881F8C01009721F0059602972F
:101FA00008F0DBC029853A852115310509F402C105
:101FB000ED80FE804B815C81B701640F751F8F81BE
:101FC00098858617970708F4F5C0E20EF31ED7012F
:101FD0009C91903C09F07FC04230510508F47BC0D1
:101FE00011968C914091AB035091AC03452B09F4B1
:101FF0009CC0913F08F071C02CE1290F2D3008F4EE
:102000008BC02DE2290F203108F489C0903C21F4C7
:102010008150823008F483C088E3890F8B3008F444
:1020200081C094EFC92E9EE0D92EEEEDFEE06D81C9
:102030007E81AE014F5F5F4F89859A8519955C015E
:10204000C114D104A1F189809A808114910479F19D
:102050008B819C818815990508F487C010E000E009
:102060004B815C8170E060E0C7010E946232011523
:102070001105E9F449815A8169857A858D819E81AE
:10208000680F791FC501F6011995E980FA800D8165
:102090001E812F81388549855A856FEF7FEF81E05A
:1020A00090E00E94231F8C01892B09F056C0C801C3
:1020B0002A960FB6F894DEBF0FBECDBFDF91CF9149
:1020C0001F910F91FF90EF90DF90CF90BF90AF9056
:1020D0009F908F90089580E085CF30E020E0220F20
:1020E000331FF901E156FC4F0190F081E02D30974C
:1020F00009F497CF892F90E01995009709F491CFB3
:10210000DC011296ED91FC9113971496CD90DC9022
:10211000309709F08CCF1FC021E030E0E0CF22E003
:1021200030E0DDCF23E030E0DACFD12CC12CE6EE79
:10213000FEE09F3F09F07BCFE0919F03F091A00369
:10214000309721F4C90104EF1FEF0CC08FEF90E02E
:1021500019950097A9F604EF1FEF89859A850097D6
:1021600009F4A5CF0E947721A2CF0E9452208C01B2
:1021700089859A850E94772170E060E0C4010E9401
:10218000EB1F98878F830E94201F9E838D836F8112
:1021900078856115710559F0C8010E9403239A875B
:1021A000898706EF1FEF892B09F058CF59CF08EF29
:1021B0001FEF56CF08EF1FEFD0CF2091AD032223A2
:1021C00019F020E00C948C1987EF9FEF089580910F
:1021D000AB039091AC0308950E94101E0E946A1DEB
:1021E000F5D0EFE9F3E088E0DF011D928A95E9F789
:1021F0001092AD0390E080E008950C94C81B21E09C
:1022000040E050E0BA010C948C1986E090E0FA01AD
:102210009183808390E080E0089547E050E068E596
:1022200072E049CEDF92EF92FF920F931F93CF930C
:10223000DF938A01EC01C60FD71FE090B103F09045
:10224000B203D9800E943A20D816190678F082E0AD
:1022500090E0F801918380838EEF9FEFDF91CF9123
:102260001F910F91FF90EF90DF900895EF2841F4B8
:1022700082E090E0F8019183808384EF9FEFEECFBE
:1022800089818093B00390E00196F8019183808367
:1022900090E080E0E3CFCF93DF93EA010E94791CC6
:1022A000882321F00E9447200E947A1C82E090E05F
:1022B000998388838BEF9FEFDF91CF910895CF9320
:1022C000DF93EB0186E0FB0111928A95E9F78FEF2E
:1022D0008883D8DD8983E7DD8A83E8DD9D838C836D
:1022E000DF91CF910895CF93DF93EA010E947C1C88
:1022F000811109C082E090E09983888385EF9FEF88
:10230000DF91CF91089590E080E0B7DD81E090E02B
:102310009983888390E080E0F3CF0F931F93CF934E
:10232000DF93EA018C01060F171F0E947C1C8111AC
:102330000BC082E090E09983888385EF9FEFDF9167
:10234000CF911F910F910895F8018181823038F06B
:1023500082E090E0998388838EEF9FEFF0CF81E059
:1023600090E08BDD88E090E09983888390E080E0C6
:10237000E6CFCF93DF930097D1F4EB01FB013296C8
:1023800086E0DF011D928A95E9F78FEF888385E06B
:1023900089831A820E943A208B830E9439209D8370
:1023A0008C8381E08E838F83DF91CF910895DF91BD
:1023B000CF911ACD8DE091E19093AF038093AE035E
:1023C00008958091AE039091AF0308951092AF03EA
:1023D0001092AE0308958091B1039091B2030895D5
:1023E000411105C0611571058105910561F060938A
:1023F000B1037093B2038093B3039093B4034093FB
:10240000B50381E0089580E00895FF920F931F9334
:10241000CF93DF938A01EC01C60FD71FF9800E948A
:102420003A20F816190668F082E090E0F8019183EE
:1024300080838EEF9FEFDF91CF911F910F91FF90DF
:1024400008956C817D818E819F814B81C9DF8111CF
:1024500008C082E090E0F8019183808384EF9FEFD1
:10246000EACF89818093B00390E00196F8019183CF
:10247000808390E080E0DFCFCF93DF93EA01FC011F
:10248000E60FF71F64817581868197814381A8DFFC
:10249000811109C082E090E09983888384EF9FEFE7
:1024A000DF91CF91089581E090E09983888390E057
:1024B00080E0F6CFE1EBF3E04081518162817381EE
:1024C000480F511D611D711D4083518362837383C9
:1024D0000895CF93C091B0034C2F50E06091B103A9
:1024E0007091B20301960E9459328C2FE3DF109253
:1024F000B003CF910895009799F48091B103909122
:10250000B2032FEFFB012083892B59F02091B003F8
:1025100030E02F5F3F4F2417350719F4CB01D9CF97
:1025200063CC0895009799F48091B1039091B20320
:102530002FEFFB012083892B59F02091B00330E06D
:102540002F5F3F4F2417350719F4CB01C2CF4CCC76
:10255000089523E1AC01249FC001259F900D112413
:10256000E091BA03F091BB03E80FF91F2381348196
:102570002250310981E02230310508F080E00895D1
:102580000F931F93CF93DF930091BC031091BD0372
:10259000D0E0C0E080E00C171D0749F491E0811104
:1025A00090E0892FDF91CF911F910F9108958111B4
:1025B000F5CFCE01CEDF2196EECFA091BA03B09138
:1025C000BB03109729F12091BC033091BD03821702
:1025D0009307F0F453E1589F9001599F300D112457
:1025E000A20FB31FED91FC911197309789F01296CD
:1025F0008C91681768F48DE0689FE00DF11D11243F
:1026000080819181892B21F081E09281491708F026
:1026100080E008959C0143E1429FC001439F900DDB
:102620001124E091BA03F091BB03E80FF91F8385F1
:10263000823091F481E090E06581768140911102D1
:10264000509112026417750711F490E080E0892B15
:1026500019F081E0232B09F080E00895FC01A081AE
:10266000B1818DE0689FA00DB11D112413964D918D
:102670005C9185859685489F9001499F300D589FB4
:10268000300D1124C9010196611103C0478144FD39
:1026900004960895EF92FF920F931F93CF93DF93C9
:1026A000EA01FC01E60FF71F02811381E480F58047
:1026B0004F2D6E2DC80181DF81110DC082E090E0A9
:1026C000998388838EEF9FEFDF91CF911F910F91B8
:1026D000FF90EF900895C8013CDF882339F082E035
:1026E00090E09983888388EF9FEFEECF10931802D4
:1026F00000931702E0921902F0921A0281E090E032
:102700009983888390E080E0DFCFCF92DF92EF92D1
:10271000FF920F931F93CF93DF937A01EC01C60FC3
:10272000D71FC0901702D090180200911902109183
:102730001A02412F602FC60140DF811110C082E0D4
:1027400090E0F701918380838AEF9FEFDF91CF9133
:102750001F910F91FF90EF90DF90CF900895C601E9
:10276000F8DE882341F082E090E0F70191838083D6
:1027700088EF9FEFEBCF4C815D816E817F819A81E5
:1027800089818F3F41F082E090E0F701918380835F
:102790008EEF9FEFDBCFE3E1EC9D9001ED9D300DDF
:1027A0001124E091BA03F091BB03E20FF31F0190F3
:1027B000F081E02D2DE0029FE00DF11D112401902C
:1027C000F081E02D27E0129FE00DF11D11248083A0
:1027D00091838B81828343835483658376831F5FD8
:1027E00010931A0281E090E0F7019183808390E0DA
:1027F00080E0ACCFEF92FF920F931F93CF93DF93C4
:102800007A018C01060F171FC091BA03D091BB0348
:10281000209781F021E030E0F8018281938140919E
:10282000BC035091BD038417950710F030E020E001
:10283000232B71F482E090E0F701918380838EEF87
:102840009FEFDF91CF911F910F91FF90EF9008952F
:1028500043E1489F9001499F300D1124C20FD31FBF
:1028600078DE882341F082E090E0F7019183808355
:1028700088EF9FEFE6CFF8012481358120383105BC
:10288000C8F687818111D6CF4181842F90E08F7E59
:10289000009741F082E090E0F7019183808386EF1A
:1028A0009FEFCFCF4F833E832D83268128871986C4
:1028B000223010F421E0288721E030E0F701318355
:1028C0002083BFCF88E090E0FA019183808390E07D
:1028D00080E00895FB018FEF808381E181838FEF9A
:1028E0009FEF9383828380E890E0958384831682B0
:1028F00017820895FB018FEF808391E0918382839B
:102900009383848384E3858381E090E09783868347
:102910000895DF92EF92FF920F931F93CF93DF936F
:10292000EA01FC01E60FF71F8181813071F082E03E
:1029300090E0998388838FEF9FEFDF91CF911F9174
:102940000F91FF90EF90DF90089582819381D48062
:102950002581E680F7800091BA031091BB03011531
:10296000110539F482E090E0998388838CEF9FEF22
:10297000E4CF4091BC035091BD038417950738F014
:1029800082E090E0998388838EEF9FEFD6CF892BEA
:1029900039F082E090E09983888386EF9FEFCDCF76
:1029A0008D2D8D7FB1F72130A1F781E0D11006C0C8
:1029B00091E0E916F10431F080E004C0E2E0EE16A7
:1029C000F104D0F3882329F390E080E0C2DD88236E
:1029D00039F082E090E09983888388EF9FEFADCF54
:1029E000F801D38681E08487F686E586108A17860B
:1029F00081E090E09983888390E080E09ECF4CE076
:102A000050E062E872E057CA8F929F92BF92CF92D5
:102A1000DF92EF92FF920F931F93CF93DF93EA0120
:102A2000FC01E60FF71F828193810481B580E0915C
:102A3000BA03F091BB03309791F482E090E0998360
:102A400088838CEF9FEFDF91CF911F910F91FF90C3
:102A5000EF90DF90CF90BF909F908F90089520913E
:102A6000BC033091BD038217930738F082E090E0F9
:102A7000998388838EEF9FEFE6CF23E1289F600143
:102A8000299FD00C1124EC0DFD1DE080F180E11494
:102A9000F10499F28281081748F78DE0089F8001C0
:102AA0001124E00EF11EF70180819181892B29F616
:102AB000BB20E1F2F7E0BF9E40011124C4010E9457
:102AC0003E21F70191838083E091BA03F091BB032B
:102AD000EC0DFD1D0190F081E02DE00FF11F8081D4
:102AE0009181009739F482E090E0998388838DEF9B
:102AF0009FEFA9CFA40170E060E00E946232809154
:102B0000BA039091BB03C80ED91EF6018081918152
:102B1000080F191FF801B28281E090E09983888341
:102B200090E080E090CFAF92BF92CF92DF92FF9281
:102B30000F931F93CF93DF93EA01FC01E60FF71F7A
:102B400082819381F4800091BA031091BB03011537
:102B5000110581F482E090E0998388838CEF9FEFE8
:102B6000DF91CF911F910F91FF90DF90CF90BF9099
:102B7000AF9008952091BC033091BD038217930755
:102B800038F082E090E0998388838EEF9FEFE8CF62
:102B90002FEF2F0D2C3FA8F723E1289F6001299FDD
:102BA000D00C11240C0D1D1DF80180819181892B01
:102BB00089F6FDE0FF9E50011124C5010E943E21CF
:102BC000F80191838083E091BA03F091BB03EC0D8F
:102BD000FD1D80819181009739F482E090E0998316
:102BE00088838DEF9FEFBCCFA50170E060E00E946D
:102BF0006232E091BA03F091BB03EC0DFD1DF2824D
:102C000081E090E09983888390E080E0A9CFCF9223
:102C1000DF92EF92FF920F931F93CF93DF93860F74
:102C2000971FFC01028113818091BA039091BB032D
:102C3000892B81F082E090E0FA01918380838CEF10
:102C40009FEFDF91CF911F910F91FF90EF90DF9059
:102C5000CF900895C801B0E0A0E00197A109B109A3
:102C60008F3F9F4FA105B10540F082E090E0FA014F
:102C7000918380838EEF9FEFE4CF7A0183E1809F81
:102C80006001819FD00C1124C6010E943E21EC01FD
:102C9000009741F482E090E0F701918380838DEF0B
:102CA0009FEFCFCFA60170E060E00E946232D09328
:102CB000BB03C093BA031093BD030093BC0390E021
:102CC00080E02FEF3FEF41E061E070E08017910777
:102CD00041F481E090E0F7019183808390E080E00F
:102CE000B0CF3A8B298B1B864C877E876D87188ADD
:102CF0001F8601966396EACFEF92FF921F93CF93C0
:102D0000DF93EC0110E0F12CE12C6A811617B0F092
:102D100083E0689FB0011124AE014F5E5F4FC70191
:102D20000E94A321009721F02FEF3FEF3A8B298BD0
:102D3000DF91CF911F91FF90EF900895612FCE0109
:102D40008DDC61E070E00E94EB1FE816F90608F4E4
:102D50007C011F5FDACFF8942091B8033091B9035A
:102D600081E02115310509F080E0232B09F07894EA
:102D700008952F923F924F925F926F927F928F921F
:102D80009F92AF92BF92CF92DF92EF92FF920F93FA
:102D90001F93CF93DF933C01660E771EF301828170
:102DA00093814C01B12CA12CC091BA03D091BB03EB
:102DB000209769F021E030E06091BC037091BD0381
:102DC0008617970710F030E020E0232BD1F482E043
:102DD00090E0FA01918380838EEF9FEFDF91CF9196
:102DE0001F910F91FF90EF90DF90CF90BF90AF9029
:102DF0009F908F907F906F905F904F903F902F901B
:102E0000089580921B0290921C02A0921D02B09223
:102E10001E0263E1689F9001699F300D1124C20F6B
:102E2000D31FF3018181833040F082E090E0FA010A
:102E30009183808386EF9FEFD1CF2A012B813C8144
:102E4000232BF1F4288139819F8191FF2EC0232B00
:102E500009F46FC02091BF039A81422F490F552773
:102E6000551FBA0141E050E06138710514F050E09F
:102E700040E0452B09F45DC02A87920F9093BF0371
:102E80008150823008F481C066DF882309F4D8C0FD
:102E9000F3018181813009F48DC008F47BC0823058
:102EA00009F4C6C090E080E0ADC0232B09F441C016
:102EB0002091BE039A81E22FE90FFF27FF1F41E017
:102EC00050E0ED3FF10514F050E040E0452B89F172
:102ED0002A87920F9093BE03D3CFA081B181A20F16
:102EE000B31F11966C91060F111D0196295F3F4F7C
:102EF0008417950794F38D859E85089F1001099F7F
:102F0000300C189F300C1124C114D104D1F48F81DE
:102F100084FF17C00E943920F5E02F0E311C21E0FC
:102F20008215930508F420E0A701435F5F4F21114C
:102F30000EC082E090E0F2019183808387EF9FEFE3
:102F40004DCF0E9439202FEF221A320AE8CF888114
:102F50009981E80EF91EF70114830383FFEFCF1A5E
:102F6000DF0A7A018A818C151D0409F00CF48CCFDC
:102F7000E881F981EE0DFF1D428150E030E020E054
:102F800010E000E090E080E0B3CFF12CE12CD12CF8
:102F9000C12CE8CF81E090E09C838B83F1DA882319
:102FA00009F480CF81E090E00E943D0F80E40E9410
:102FB0004B0F78CF89899A89019661F083E090E080
:102FC0009C838B8382E090E00E943D0F80E40E940E
:102FD000450F68CF8D819E812091110230911202A0
:102FE00082179307D1F46091150270911602AE0119
:102FF0004F5E5F4F80911302909114020E94C22293
:103000000097E1F2789422E030E0F20131832083EE
:10301000892B99F08DEF9FEFE1CE89288A288B28A4
:1030200069F6892B59F6CE0167DE188A1F86E8CF2C
:1030300082E090E09C838B8335CF90E080E0CECE21
:1030400082E090E0F2019183808385EF9FEFC6CE0E
:103050008F929F92AF92BF92CF92DF92EF92FF92A8
:103060000F931F93CF93DF93EA018C01060F171F75
:10307000F8018181833098F082E090E09983888321
:1030800086EF9FEFDF91CF911F910F91FF90EF900F
:10309000DF90CF90BF90AF909F908F9008958091D8
:1030A000BA039091BB03892B61F081E090E02091FD
:1030B000BC033091BD03232B11F490E080E0892BF9
:1030C00039F482E090E0998388838EEF9FEFDACF26
:1030D00042DE882309F4DFC0F8018181813009F4E0
:1030E00095C0E8F0823099F42091BC033091BD0383
:1030F000E091BA03F091BB0390E080E041E050E042
:103100002817390709F0BDC03BDA811117C0789440
:1031100081E090E09983888390E080E0B3CF2091B4
:10312000BC033091BD03E091BA03F091BB0390E082
:1031300080E041E050E02817390741F481E090E059
:103140000E943D0F80E40E944B0FE1CF63817481A8
:10315000672B11F05483438301967396ECCFE09173
:10316000BA03F091BB03E00FF11F238134812230B9
:103170003105D9F4218932892F3F3F4FB1F42581A0
:10318000368140911102509112022417350761F5E2
:10319000AF014F5E5F4F60911502709116028091F2
:1031A0001302909114020E94C222EFEFCE1ADE0A9F
:1031B000EE0AFE0A0D5E1F4F4091BC035091BD0305
:1031C00070E060E0C416D506E606F7063CF5009709
:1031D00031F27894892B09F49BCF82E090E09983B7
:1031E00088838DEF9FEF4ECFC114D104E104F10429
:1031F000E1F6232BD1F6CF017FDDE091BA03F09108
:10320000BB03E00FF11F108A1786CFCF10E000E05C
:1032100090E080E0C12CD12C7601CECF0097C9F68A
:1032200010E000E0812C912C540183E0E82EF12C79
:103230001AC0E091BA03F091BB03E00FF11F838144
:103240009481029749F4F482E38282E090E00E9444
:103250003D0F80E40E94450FFFEF8F1A9F0AAF0ACF
:10326000BF0A0D5E1F4F8091BC039091BD03B0E07B
:10327000A0E088169906AA06BB06DCF290E080E082
:10328000A8CF638174816230710511F45483438344
:103290000196739635CF82E090E09983888385EF1D
:1032A0009FEFF0CE0097B9F48FEFFB018083209160
:1032B0001B0230911C0243E1429FC001439F900DCD
:1032C0001124E091BA03F091BB03E80FF91F828546
:1032D000FB01818308950C94F40E88E090E0FA01DC
:1032E0009183808390E080E008951092B90310925A
:1032F000B803EAEBF3E086E0DF011D928A95E9F777
:103300008FEF94E19093B7038093B6030895809173
:10331000B6039091B70308952F923F924F925F9218
:103320006F927F928F929F92AF92BF92CF92DF92D5
:10333000EF92FF920F931F93CF93DF93CDB7DEB73A
:103340002F970FB6F894DEBF0FBECDBFF894E09173
:10335000B803F091B9033196F093B903E093B80341
:1033600078944090BA035090BB034114510409F47F
:103370000CC2E091BC03F091BD03EF2B09F405C230
:103380002D8749875A876B877C8798878F8312019F
:10339000B12CA12C10E000E08091BC039091BD0302
:1033A000A816B90618F40115110529F1F8948091B1
:1033B000B8039091B90301979093B9038093B80330
:1033C0007894C8012F960FB6F894DEBF0FBECDBF1C
:1033D000DF91CF911F910F91FF90EF90DF90CF90F1
:1033E000BF90AF909F908F907F906F905F904F9025
:1033F0003F902F9008957101E418F508D1011796B8
:103400008C91179781FD54C013968D919C911497C0
:10341000039709F04DC015968D919C91EF81F88529
:103420008E179F0709F044C0B50190E080E07FD47B
:103430008A832091BA033091BB033D832C833D8561
:10344000332309F44CC04C815D81452B09F49AC1AA
:103450008091BC039091BD03A816B90608F092C1F3
:10346000C501D8D88823E9F06C817D816E0D7F1D60
:103470007D836C83DB011F968D919C91892B89F054
:10348000D12CC12CF12CE12CAC81BD8112968C91F8
:1034900012978E151F0409F094F450961C921E92F8
:1034A0001F972A81222321F0B50190E080E041D4CA
:1034B0003FEFA31AB30A43E1240E311C6DCFAC8158
:1034C000BD81ED91FC91EC0DFD1D858196810FD79D
:1034D000BFEFEB1AFB0AEDE0CE0ED11CD5CFEC818D
:1034E000FD81309709F44EC18091BC039091BD03DA
:1034F000A816B90608F046C1EE0DFF1DFF87EE873E
:10350000C50188D88B83882339F1AE85BF851F9686
:103510008D919C915097019621E01D964D915C9163
:103520008417950709F020E02E831982712C10E092
:1035300000E0AE85BF8512968C91781608F45DC0C8
:10354000EE85FF85878590890196658576850E9441
:103550000232908B8787A5CFB1E0BE83E6CF992456
:1035600093946BC08BD6F6019683858382C0D60177
:10357000ED90FC90B7E06B9EE00CF11C1124F7017C
:103580006381748180818F3F61F121E030E002C06E
:10359000220F331F8A95E2F7C901092E000CAA0BEE
:1035A000BB0BFB0140815181628173818423952390
:1035B000A623B72321E0892B8A2B8B2B09F420E04B
:1035C000D4012C93D70111968C91F6012385348573
:1035D000820F932F911D880E991E14861386639473
:1035E0009BC0418150E0C4010E945932EBCF9982C7
:1035F00006EF1FEFC5C01982C3C0F981F111A0CF3A
:10360000EDE07E9E70011124AE85BF85CD90DC90EB
:10361000CE0CDF1C15D49D838C83BB81BB2309F4A6
:103620009ECF81E0EE85FF8527853089232B09F029
:1036300080E0982E882309F458C0672D8E859F85D9
:103640000DD8D60118969C938E93179761E070E081
:10365000C2D4EE85FF85218932892F3F320709F4D4
:1036600081CFBC01C901CFD7D60116969C938E930A
:103670001597D60115968D919C911697009709F490
:10368000B6CFEC81FD818E0F9F1F1A969C938E936F
:103690001997AE85BF85ED91FC911197EE0EFF1E37
:1036A000F70121853285148613861A968C91870D31
:1036B000D9018D93711016C0EE85FF85878184FF37
:1036C00011C049855A856B857C85F90141835283F8
:1036D00063837483F701838594850496A80FB91FCB
:1036E00014861386F701B287A187D60115968D91AE
:1036F0009C911697892B09F443C0EE85FF8525819F
:10370000368180911102909112022817390779F0C1
:1037100019968D909C90612CD60112968C911297DF
:10372000681608F424CF1A969C928E921997BE813F
:10373000BB2309F460CF61E070E0F60187819085DA
:103740004AD4D6011796ED90FC90189715964D9196
:103750005C91E1E0F0E0BA81BB2311F0F0E0E0E041
:103760000C811D819C01B501882799278E1B9F0B19
:103770006AD38C01892B21F0F60185819681B7D51A
:103780007394D7CE0FEF1FEF8CCE10E000E00ECE7B
:103790002F923F924F925F926F927F928F929F9261
:1037A000AF92BF92CF92DF92EF92FF920F931F934F
:1037B000CF93DF938091BA039091BB0310E000E0B8
:1037C000892BA9F0C8DA0AEF1FEF882381F0209037
:1037D000BC033090BD03C091BA03D091BB03D12C80
:1037E000C12C10E000E02C143D04A9F47894C80129
:1037F000DF91CF911F910F91FF90EF90DF90CF90CD
:10380000BF90AF909F908F907F906F905F904F9000
:103810003F902F900895C6010E940A13882309F152
:103820008B819C810397E9F48F859889892BC9F056
:10383000B60190E080E07BD221E030E0882311F0F7
:1038400030E020E044245524421A530AB12CA12C24
:10385000912C812C8A818815190409F038F4188A72
:103860001F864FEFC41AD40A6396BDCFE881F98151
:10387000EA0DFB1D85819681892BA1F161E070E045
:1038800087819085A8D33C01DBD28C01E881F98146
:10389000EA0DFB1D8185928525813681200F311F20
:1038A000AC01421B530B9A0147815085421B530BBD
:1038B00070E060E00E946232E881F981EA0DFB1D50
:1038C000E780F084458156819301B601C201BBD2E5
:1038D0008C01892B39F0E881F981EA0DFB1D858186
:1038E000968105D55FEF851A950A8DE0A80EB11C6B
:1038F000B1CF31CA789408952F923F924F925F9240
:103900006F927F929F92AF92BF92CF92DF92EF928F
:10391000FF920F931F93CF93DF9300D000D0CDB7CA
:10392000DEB70091BA031091BB039924939401155B
:10393000110509F43EC0A090BC03B090BD030BDAA2
:10394000982E8823B1F11092BB031092BA03109203
:10395000BD031092BC031092BE031092BF038FEF01
:103960009FEFDC0180931B0290931C02A0931D0229
:10397000B0931E0278947FD31E830D83C12CD12C6B
:103980007601C501B0E0A0E089839A83AB83BC8354
:1039900022242A94322C89819A81AB81BC81C81659
:1039A000D906EA06FB06F4F0C801A1D480E40E941F
:1039B0004B0F892D26960FB6F894DEBF0FBECDBFF4
:1039C000DF91CF911F910F91FF90EF90DF90CF90FB
:1039D000BF90AF909F907F906F905F904F903F907F
:1039E0002F900895AD81BE8115968D919C9116976B
:1039F000209111023091120282179307D1F451964F
:103A00008D919C91EED5ED81FE8180819181B12CCB
:103A1000A12C412C512C3201892B89F5BFEFCB1AF7
:103A2000DB0AEB0AFB0AED81FE817396FE83ED83D0
:103A3000B2CFC114D104E104F10429F7892B19F79D
:103A4000ED81FE81818992898F3F980709F029D500
:103A5000AD81BE8152963C922E925197D4CF8A0D61
:103A60009B1DDC018D919C91009709F040D4BFEF24
:103A70004B1A5B0A6B0A7B0AEDE0AE0EB11CAD81FE
:103A8000BE818D919C91119712964C9150E070E0FF
:103A900060E044165506660677060CF328D4BECFC0
:103AA000CF93DF93EA0128DF811109C082E090E023
:103AB0009983888385EF9FEFDF91CF91089581E00F
:103AC00090E00E943D0F81E090E09983888390E030
:103AD00080E0F2CF11DF1092B7031092B603089581
:103AE00042E050E06AEC72E00C945B0FFF920F939F
:103AF0001F93CF93DF938A01EC01C60FD71FF98084
:103B0000B9D20897F816190671F068F082E090E0D3
:103B1000F801918380838EEF9FEFDF91CF911F910A
:103B20000F91FF9008956C817D818E819F814B81E3
:103B30000E94F011811108C082E090E0F8019183A9
:103B4000808384EF9FEFE9CFF9800E94EB114F2D26
:103B500050E0BE01685F7F4F0E94593289810E9408
:103B60005A1281E090E0F8019183808390E080E038
:103B7000D4CFDF92EF92FF920F931F93CF93DF93F7
:103B80008A01EC01C60FD71F0E94EB117C01D9807E
:103B900071D2DD2059F0029721E030E0D8161906E5
:103BA00019F010F030E020E0232B79F482E090E06F
:103BB000F801918380838EEF9FEFDF91CF911F916A
:103BC0000F91FF90EF90DF900895EF2841F482E08D
:103BD00090E0F8019183808384EF9FEFEECFF9802E
:103BE0000E94EB114F2D50E0BE016E5F7F4F0E948F
:103BF000593289810E945A1281E090E0F801918344
:103C0000808390E080E0D9CF80E79DE19093C1036D
:103C10008093C00308958091C0039091C1030895DB
:103C20000895FC0111821082938382830895DB0141
:103C30001D921C92DC011296ED91FC9113977183F9
:103C4000608313967C936E9312970895FC01808194
:103C50009181DB018D939C93A081B181109741F0FC
:103C60008D919C9191838083892B11F4F383E2835E
:103C70000895FC0180819181DB018D939C93892BB8
:103C800011F473836283718360830895FC01118250
:103C90001082938382830895CF93DF931F921F92A4
:103CA000CDB7DEB71A821982F894BE016F5F7F4FDD
:103CB00087EC93E0CBDF89819A81009709F017D3D5
:103CC00089819A81892B89F7BE016F5F7F4F8BECC9
:103CD00093E0BCDF89819A81009709F008D389813C
:103CE0009A81892B89F778940F900F90DF91CF916B
:103CF0000895CF93DF931F921F92CDB7DEB71A823C
:103D00001982F894BE016F5F7F4F83EC93E09EDFD2
:103D100089819A81009709F0EAD289819A81892B59
:103D200089F778940F900F90DF91CF91089581E0FB
:103D3000089590E080E00895EF92FF920F931F9313
:103D4000CF93DF931F921F92CDB7DEB71A821982ED
:103D50008091C20307EF1FEF8823A1F1F894BE0101
:103D60006F5F7F4F8BEC93E071DF789489819A814C
:103D7000EE24E394F12C892B51F4F894BE016F5F8B
:103D80007F4F87EC93E062DF7894F12CE12C8981FE
:103D90009A810EEF1FEF0097A9F0FC014281538139
:103DA00064E070E076D68C01892B61F0F89469812B
:103DB0007A81C701880F991F880F991F89539C4FDB
:103DC00058DF7894C8010F900F90DF91CF911F9129
:103DD0000F91FF90EF9008950F931F93CF93DF9370
:103DE00000D01F92CDB7DEB71C821B821A821982C7
:103DF0008091C20307EF1FEF8823C1F0AE014D5F32
:103E00005F4F64E070E0CE010196B6D68C01892B3D
:103E100069F4E981FA818B819C8193838283F89490
:103E200069817A8183EC93E002DF7894C8010F9076
:103E30000F900F900F90DF91CF911F910F910895E8
:103E4000BBD7049608958F929F92AF92BF92CF9264
:103E5000DF92EF92FF920F931F93CF93DF931F9206
:103E60001F92CDB7DEB71A821982BC016F5F7F4FF8
:103E70006330710598F0AA24AA94BA2CC5010F905A
:103E80000F90DF91CF911F910F91FF90EF90DF90F6
:103E9000CF90BF90AF909F908F900895411551059E
:103EA00051F3480159018A016C01CADF881599054F
:103EB00011F7E114F104F9F28E0D9F1DA816B90651
:103EC000D0F28091C2038823F1F0F894B5016450D8
:103ED00071099701AE014F5F5F4FC8010496E1D6AB
:103EE0005C01892B71F489819A81F8019383828323
:103EF000C601880F991F880F991FB80189539C4FDD
:103F000096DE7894BBCF87EFA82EBB24BA94B6CFA9
:103F1000AF92BF92CF92DF92EF92FF920F931F93D7
:103F2000CF93DF931F921F92CDB7DEB71A8219820B
:103F3000892B09F047C06115710509F443C041158B
:103F4000510509F43FC02115310509F43BC00115A5
:103F50001105C1F18091C2038823B9F179016A0189
:103F60005B01F894BE016F5F7F4F83EC93E06EDEE0
:103F7000789489819A81009759F1DC0112966D91AC
:103F80007C91A8010496A6D68C01E981FA81D5011D
:103F9000ED93FC93828193810496F6019183808353
:103FA0004FDFD7018D939C93C8010F900F90DF9145
:103FB000CF911F910F91FF90EF90DF90CF90BF9026
:103FC000AF9008950FEF1FEFEFCF07EF1FEFECCF8C
:103FD0000EEF1FEFE9CFCF93DF93EC01672B71F466
:103FE000F4D68C179D0760F0E7D62496C80FD91F2A
:103FF000E6D68C0F9D1FDF91CF910895E3D6F1CFC8
:1040000090E080E0F8CF0F931F93CF93DF93209140
:10401000C20321112BC08B01EC0187EC93E001DE80
:104020008BEC93E0FEDD83EC93E0FBDD97D0009713
:10403000C1F4CBD670E060E0CEDF4FE152E062E049
:1040400070E081D1009769F480911F029091200265
:10405000CED6B801CE0103D5009719F421E0209304
:10406000C203DF91CF911F910F91089584EF9FEFCD
:10407000F8CFA8C6AAC6CF93DF93AAD6EC01892BA6
:1040800011F40ADE36DECE01DF91CF910895CF9391
:10409000DF939ED6EC01892B09F4FEDDCE01DF9182
:1040A000CF91089580911F02909120020895CF939F
:1040B000DF938091C203D0E0C0E08823D1F09CD68A
:1040C000EC01892BB1F4E8DD14DE80911F029091A0
:1040D0002002E7D1E8D2EC01892B59F487EC93E078
:1040E000D5DD8BEC93E0D2DD83EC93E0CFDD109255
:1040F000C203CE01DF91CF910895EF92FF920F930B
:104100001F93CF93DF93EC017A018B010F5F1F4F59
:104110000E9DA0010F9D500D1E9D500D112470E0AD
:1041200060E00E94623290E080E0F0E0E0E02FEF9B
:10413000E816F90639F4DF91CF911F910F91FF90A6
:10414000EF9008951A8219822883309711F0D28354
:10415000C1830196FE01C00FD11FEACFCF92DF923B
:10416000EF92FF920F931F93CF93DF930CEE14E027
:104170000C7F43E050E061E272E087E292E01CD401
:1041800081E2E82E82E0F82E97E2C92E92E0D92E45
:10419000C3E5D5E0D7014D915D917D01F6016191B7
:1041A00071916F01198308835D834C835B834A831C
:1041B0007F836E839B012F5F3F4F249FC001259F0C
:1041C000900D349F900D1124998788870115110552
:1041D00011F0C80192DF88859985080F191F2A966A
:1041E000F7E2EF16F2E0FF06A9F6E1EDF3E088E171
:1041F00091E0DF019C011D9221503040E1F71092C7
:10420000D0031092CF031092720510927105109294
:104210007605109275051092740510927305109230
:1042200078051092770510927A0510927905109210
:104230007C0510927B051092800510927F051092EC
:104240007E0510927D0510928205109281051092D4
:104250008405109283051092500510924F0510921C
:1042600052051092510590E080E0DF91CF911F91AF
:104270000F91FF90EF90DF90CF9008950097F1F0AD
:10428000F894A7E2B2E0E3E5F5E030E020E04D91FC
:104290005D9148175907A8F0428153814115510596
:1042A00081F08AE0829FF001839FF00D1124ED5A86
:1042B000FA4F80819181009759F4789490E080E0E2
:1042C00008952F5F3F4F3A962330310501F7F5CF20
:1042D000DC0111966D917C9171836083415051098D
:1042E00053834283FC012193CF0178940895009772
:1042F00049F1DC018E91853041F4E0915105F09156
:1043000052053097F9F0CD0119948530D8F4282F53
:1043100030E0F8948FEF8C938AE0829FF001839FC6
:10432000F00D1124ED5AFA4F8081918112969C93E1
:104330008E931197B183A083828193810196938399
:10434000828378940895CF92DF92EF92FF920F9339
:104350001F93CF93DF939C0184ED93E08C7F4115F5
:10436000510509F49BC02115310509F497C0611569
:10437000710509F493C07A01AB01B9016D5F7F4FFC
:104380006C7F9B012F5F3F4F249F8001259F100D65
:10439000349F100D1124F89420917105309172050D
:1043A000232B59F42091790530917A052115310597
:1043B00069F12017310708F058C020917B05309132
:1043C0007C05232B91F42091790530917A05820F99
:1043D000931F20918305309184052115310509F43F
:1043E00041C02017310708F056C07894CFEFDFEFB7
:1043F00086EF9FEFF701D183C083DF91CF911F91AB
:104400000F91FF90EF90DF90CF900895C3E0D0E040
:10441000C090CF03D090D00325E131E02C193D09A5
:104420002017310710F32AE02C9FF0012D9FF00D8B
:104430001124ED5AFA4F918380835583448353832B
:1044400042837783668311870087009709F055DEE2
:104450000C0D1D1D1093D0030093CF03789490E0B2
:1044600080E0C8CFC4E0D0E0D3CFC3E0D0E02AE002
:104470002C9FF0012D9FF00D1124ED5AFA4F9183DE
:104480008083558344835383428377836683009775
:1044900029F333DEE3CFC4E0D0E0E9CF8FEF9FEF25
:1044A000ACCF9C010397029708F069C0F89484E0B0
:1044B0009AE0482F50E0241735070CF44DC091E0E6
:1044C0008AE0829FF001839FF00D1124ED5AFA4F8C
:1044D0001182108215821482138212821782168230
:1044E0009923B1F18091710590917205892BA9F4FE
:1044F0002091790530917A052115310571F080916F
:10450000CF039091D003821B930B9093D0038093A1
:10451000CF0310927A051092790580917B059091D6
:104520007C05892BA9F42091830530918405211500
:10453000310571F08091CF039091D003821B930BD2
:104540009093D0038093CF0310928405109283053B
:10455000789490E080E00895949FF001959FF00D8D
:104560001124ED5AFA4F40815181452B31F4408599
:104570005185452B11F481509CCF90E0A1CF8FEF56
:104580009FEF08954115510549F1009739F16115E3
:10459000710521F1F89420914F0530915005232B9E
:1045A000B9F42091510530915205232B89F4909351
:1045B000500580934F057093520560935105789490
:1045C00025E030E090E080E0FA0131832083089517
:1045D00078942FEF3FEF86EF9FEFF6CF8FEF9FEFAF
:1045E0000895059769F4F8941092500510924F05BC
:1045F0001092520510925105789490E080E0089551
:104600008FEF9FEF08956115710519F4F0E0E0E078
:1046100011C08530910581F4E0914F05F09150056E
:104620003097A1F3CB0101961995009779F3FC011E
:1046300085E08193CF0108959C01235031092230F8
:10464000310520F72AE0289FD001299FB00D1124C1
:10465000AD5ABA4F2D913C911197232BB9F2169672
:104660002D913C9117972617370780F2F8941296F0
:104670002D913C9113972115310529F0ED91FC9175
:104680001197309711F47894C1CF418152811196DE
:104690005C934E932150310913963C932E931297BD
:1046A00081937894C7CFE9EEF4E086E6DF011D92AE
:1046B0008A95E9F7E1EDF3E088E191E0DF019C0103
:1046C0001D9221503040E1F71092D0031092CF0399
:1046D000E3E5F5E082E3DF011D928A95E9F7EFE477
:1046E000F5E084E0DF011D928A95E9F790E080E033
:1046F0000895CF93DF93C0912D02D0912E02CF3F2A
:10470000DC0759F422D490932E0280932D0297FF58
:1047100009C0D0932E02C0932D0284EF9FEFDF914A
:10472000CF91089590E080E0FACF8230910528F48F
:104730008093850590E080E008958FEF9FEF0895C6
:104740004F925F926F927F92AF92BF92CF92DF9221
:10475000EF92FF920F931F93CF93DF931F921F92BD
:10476000CDB7DEB71A821982009709F479C06115B6
:10477000710509F475C020912D0230912E0207EFCA
:104780001FEF2F3F3F4F09F445C06B015C01412CE7
:10479000512C3201F12CE12C10E000E09E012F5F42
:1047A0003F4FA6014E195F09B5016E0D7F1D809127
:1047B0002D0290912E0228D4892B09F04BC08981BB
:1047C0009A81009741F4E114F10429F420918505C0
:1047D000222309F442C0E80EF91EEC14FD04D0F4C3
:1047E00080E8481684E858068EE16806710420F5D2
:1047F00060E070E0CB010E94DC2C2AE0420E511CEC
:10480000611C711C0A3F4FEF140721F0043F8FEF2A
:104810001807A1F4C8010F900F90DF91CF911F915D
:104820000F91FF90EF90DF90CF90BF90AF907F906F
:104830006F905F904F90089501EF1FEF81E090E03F
:10484000013F2FEF120711F090E080E0892B09F46F
:10485000A5CFE0CF04EF1FEFDDCF0AEF1FEFDACFD8
:104860000FEF1FEFD7CF4F925F926F927F92AF9271
:10487000BF92CF92DF92EF92FF920F931F93CF934D
:10488000DF931F921F92CDB7DEB71A82198200976D
:1048900009F479C06115710509F475C020912D02E4
:1048A00030912E0207EF1FEF2F3F3F4F09F445C015
:1048B0006B015C01412C512C3201F12CE12C10E0F8
:1048C00000E09E012F5F3F4FA6014E195F09B50121
:1048D0006E0D7F1D80912D0290912E024BD3892B5E
:1048E00009F04BC089819A81009741F4E114F104E9
:1048F00029F420918505222309F442C0E80EF91E0F
:10490000EC14FD04D0F480E4481682E458068FE0ED
:104910006806710420F560E070E0CB010E94DC2C99
:104920002AE0420E511C611C711C0E3F4FEF140710
:1049300021F0043F8FEF1807A1F4C8010F900F90EA
:10494000DF91CF911F910F91FF90EF90DF90CF906B
:10495000BF90AF907F906F905F904F90089502EF5F
:104960001FEF81E090E0023F2FEF120711F090E07F
:1049700080E0892B09F4A5CFE0CF04EF1FEFDDCF56
:104980000EEF1FEFDACF0FEF1FEFD7CF80912D0281
:1049900090912E028F3F980749F0CFD2892B49F48E
:1049A0008FEF9FEF90932E0280932D0290E080E096
:1049B000089584EF9FEF0895CF92DF92EF92FF92D8
:1049C0000F931F93CF93DF9321E04115510509F019
:1049D00020E04150510921112CC0DC01FB01D12CF8
:1049E000C12C21E022C03FEFC31AD30A7D010D91F3
:1049F0001D91E701EA80FB80E016F106A8F4208112
:104A00003181E280F380F182E08233832283ED9072
:104A1000FC9011979D0122503109E901F982E88249
:104A200011961C930E9320E03296C416D506D8F248
:104A3000D2CFDF91CF911F910F91FF90EF90DF9038
:104A4000CF900895FC01680F791F90E080E0E61791
:104A5000F70709F408952191820F911DF8CF209155
:104A60008605211113C045DE009791F410928C0544
:104A700010928B0510928A05109289051092880574
:104A80001092870521E020938605089584EF9FEF1B
:104A90000895AF92BF92CF92DF92EF92FF920F9361
:104AA0001F93CF93DF93009709F460C04630510500
:104AB00008F45CC020918605C7EFDFEF222309F4DC
:104AC00049C08C01060F171FF801C080D180C114A6
:104AD000D10409F44EC096012A5F3F4F4217530795
:104AE00008F447C07C0180918B0590918C059383DD
:104AF0008283B6016C5F7F4F5801A60EB71EC801B6
:104B0000A1DFF5019183808364E070E0C80118DEC5
:104B1000EC01892BF9F481E090E007DEB601C801D1
:104B200004960EDEEC01892B91F462E070E0C50181
:104B300007DEEC01892B59F4C701D9DB80918B0585
:104B400090918C05019690938C0580938B0590E055
:104B500080E0EBDDCE01DF91CF911F910F91FF90AF
:104B6000EF90DF90CF90BF90AF900895CFEFDFEF41
:104B7000F1CFC9EFDFEFEECF6F927F928F929F92CE
:104B8000AF92BF92CF92DF92EF92FF920F931F935B
:104B9000CF93DF9300D01F92CDB7DEB7009709F413
:104BA0007AC04115510509F476C02091860507EFBA
:104BB0001FEF222309F44DC03A017B015C0164E040
:104BC00070E0CE0101964FDE8C01892B09F041C0C7
:104BD00009811A810115110509F45AC0480186E0BE
:104BE000880E911CB701680D791D80912F0290915C
:104BF000300209DD6C01009709F450C0A70170E094
:104C000060E00E94623289819A81AB81BC81EC0CA8
:104C1000FD1CF70181939193A193B1937F0181E0F2
:104C200090E083DDB801C7011EDE892B31F562E01B
:104C300070E0C701800F911F16DE8C01892BE9F40B
:104C400090E080E072DDF501D182C082F3019182B3
:104C50008082C8010F900F900F900F90DF91CF913D
:104C60001F910F91FF90EF90DF90CF90BF90AF908A
:104C70009F908F907F906F90089590E080E055DD39
:104C8000F50111821082F30111821082C6012FDB1F
:104C900009EF1FEFDECF0FEF1FEFDBCF06EF1FEFA8
:104CA000D8CF0097A1F04115510589F021153105A4
:104CB00071F0F90136966E177F0748F0DC012D93ED
:104CC0003C93DA01ED93FC9390E080E008958FEF40
:104CD0009FEF0895AF92BF92CF92DF92EF92FF9233
:104CE0000F931F93CF93DF93009709F45FC0411593
:104CF000510509F45BC06530710508F457C0209177
:104D00008605C7EFDFEF222391F1DC01CD90DC9027
:104D100011971296ED91FC9196012A5F3F4FC9EFD2
:104D2000DFEF2617370719F5C0918705D091880561
:104D3000209749F521E030E03093880520938705DE
:104D40007A018C01F0938A05E09389055601B4E05D
:104D5000AB0EB11CB50176DE0A0D1B1DF8012081DA
:104D600031818217930729F5D701CD92DC92CE01CC
:104D7000DF91CF911F910F91FF90EF90DF90CF9037
:104D8000BF90AF9008952091890530918A052F5FDB
:104D90003F4FCCEFDFEFE217F30790F2CBEFDFEFFF
:104DA0002E173F0768F2D0E0C0E0CACFCFEFDFEFA9
:104DB000DECFC3EFDFEFDBCF84E090E0089582E049
:104DC00090E008958CEF9FEF089580E290E00895C1
:104DD00010928C0510928B0510928A05109289050D
:104DE000109288051092870590E080E008959093D6
:104DF000300280932F02089580918605882391F0D8
:104E0000C5DD009789F410928C0510928B051092E5
:104E10008A051092890510928805109287051092D4
:104E20008605089590E080E00895009749F06115A7
:104E3000710531F0FC0111821082FB011182108298
:104E40000895F3CF26E030E040E855E260E070E0FE
:104E500090E080E000C08130910569F01CF4892B5E
:104E600039F008958230910549F0039751F0089583
:104E70008AE995E0FAC787E396E0FCCF84ED96E0F7
:104E8000F9CF81E797E0F6CF1F920F920FB60F92FE
:104E900011240BB60F922F933F934F935F936F9311
:104EA0007F938F939F93AF93BF93EF93FF938FE87D
:104EB0009DEF9093250180932401BAD0FF91EF914B
:104EC000BF91AF919F918F917F916F915F914F9122
:104ED0003F912F910F900BBE0F900FBE0F901F9020
:104EE00018958FE89DEF9093250180932401A3E707
:104EF000B0E08C918E7F8C93E0E2F1E080818C7F3A
:104F00008083E1E2F1E08081877E8083808184601C
:104F1000808380818C7F80838C9181608C930895C5
:104F2000E3E7F0E0808190819E7F90838170089517
:104F300081E0089510928D05089568EE73E080E099
:104F400090E03AD590E080E0089526E030E040E03F
:104F500050E16EE070E090E080E07DDF8AE995E06E
:104F6000BAD6892B21F08AE995E0CFD6F7CF90E029
:104F700080E00895CF92DF92EF92FF920F931F93FC
:104F8000CF93DF936B017A01E901198218828AE9D4
:104F900095E0A1D6892B69F18601CC24C39482E0E7
:104FA000D82E80918D05811110C08AE995E0ADD68B
:104FB0000297B9F7C0928D05F801D1928F018881CF
:104FC0009981019699838883ECCF888199818E1588
:104FD0009F0578F48AE995E098D68F3F9807A9F362
:104FE000F80181938F018881998101969983888343
:104FF000ECCF90E080E0DF91CF911F910F91FF9077
:10500000EF90DF90CF9008950F931F93CF93DF938E
:10501000EA0189018AE995E00E94C531F801D1834E
:10502000C08390E080E0DF91CF911F910F910895B0
:10503000CF92DF92EF92FF92CF93DF9380918E0514
:1050400091E0980F90938E05882379F021E030E06D
:105050003093900520938F0580938E05DF91CF913B
:10506000FF90EF90DF90CF9008957894C091560212
:10507000D09157026E8D7F8D88A199A143D120E0F8
:1050800030E040E85FE4F4D16B017C016A8D7B8DF8
:105090008C8D9D8D37D19B01AC01C701B60199D094
:1050A00005D16B017C010E945B07B701A60190E06E
:1050B00080E00E943904F89480918E058150CCCF15
:1050C0000F931F93CF93DF9310923C0810923B08ED
:1050D000A9D4B8DEC0915602D09157021982188225
:1050E0006FEF7FEFCB010E94BC0470E060E090E0C6
:1050F00080E00E943D03009709F03AC00E942D080D
:10510000F8947894BE016A5D7F4F8A819B810E94EA
:105110004003892B59F46FEF7FEFCB010E94CF033F
:105120000E94B604882311F081E08AA7F894D9DEA2
:105130000E94B904882311F080E008C00E94B604E0
:105140008111FACF81E09AA59111F6CF80933B08A7
:1051500078940E94380F8C01789480913B088111DB
:105160000CC00E94BB080E949B04F89490E080E071
:10517000DF91CF911F910F9108950E9499040E9491
:10518000B9048823D9F081E080933C0890913C08D1
:1051900081E0911180E080933B0880913C0881116F
:1051A000BFDE0130110529F40E94380F892B09F464
:1051B000C1DE0E94380F8C01BBDECFCF0E94B60447
:1051C0008111E1CF81E09AA59111DECF80E0DCCFA3
:1051D0005058BB27AA270ED00DC1FED030F003D106
:1051E00020F031F49F3F11F41EF4F3C00EF4E0956B
:1051F000E7FBE9C0E92F0FD180F3BA176207730705
:105200008407950718F071F49EF527C10EF4E09518
:105210000B2EBA2FA02D0B01B90190010C01CA0170
:10522000A0011124FF27591B99F0593F50F4503E1B
:1052300068F11A16F040A22F232F342F4427585F0D
:10524000F3CF469537952795A795F0405395C9F725
:105250007EF41F16BA0B620B730B840BBAF09150DD
:10526000A1F0FF0FBB1F661F771F881FC2F70EC07C
:10527000BA0F621F731F841F48F48795779567954F
:10528000B795F7959E3F08F0B3CF9395880F08F038
:105290009927EE0F97958795089571D008F481E0CE
:1052A000089504D06894B111D9C00895BCD088F095
:1052B0009F5790F0B92F9927B751A0F0D1F0660F02
:1052C000771F881F991F1AF0BA95C9F712C0B1301D
:1052D00081F0C3D0B1E00895C0C0672F782F882730
:1052E000B85F39F0B93FCCF3869577956795B3955C
:1052F000D9F73EF490958095709561957F4F8F4FCB
:105300009F4F0895E89409C097FB3EF490958095CF
:10531000709561957F4F8F4F9F4F9923A9F0F92F7B
:1053200096E9BB279395F695879577956795B795F9
:10533000F111F8CFFAF4BB0F11F460FF1BC06F5FDF
:105340007F4F8F4F9F4F16C0882311F096E911C0F1
:10535000772321F09EE8872F762F05C0662371F012
:1053600096E8862F70E060E02AF09A95660F771F26
:10537000881FDAF7880F9695879597F90895990F02
:105380000008550FAA0BE0E8FEEF16161706E8070F
:10539000F907C0F012161306E407F50798F0621B30
:1053A000730B840B950B39F40A2661F0232B242B05
:1053B000252B21F408950A2609F4A140A6958FEF24
:1053C000811D811D089597F99F6780E870E060E076
:1053D00008959FEF80EC089500240A94161617068E
:1053E00018060906089500240A94121613061406D6
:1053F00005060895092E0394000C11F4882352F039
:10540000BB0F40F4BF2B11F460FF04C06F5F7F4FF0
:105410008F4F9F4F089557FD9058440F551F59F0D7
:105420005F3F71F04795880F97FB991F61F09F3F91
:1054300079F087950895121613061406551FF2CFBA
:105440004695F1DF08C0161617061806991FF1CF0A
:1054500086957105610508940895E894BB27662731
:105460007727CB0197F908958ADF08F48FEF089525
:105470000BD0C0CFB1DF28F0B6DF18F0952309F0CC
:10548000A2CFA7CF1124EACFC6DFA0F3959FD1F317
:10549000950F50E0551F629FF001729FBB27F00DE2
:1054A000B11D639FAA27F00DB11DAA1F649F662737
:1054B000B00DA11D661F829F2227B00DA11D621F86
:1054C000739FB00DA11D621F839FA00D611D221F40
:1054D000749F3327A00D611D231F849F600D211D24
:1054E000822F762F6A2F11249F5750408AF0E1F0C7
:1054F00088234AF0EE0FFF1FBB1F661F771F881F10
:1055000091505040A9F79E3F510570F05CCFA6CF57
:105510005F3FECF3983EDCF3869577956795B795FA
:10552000F795E7959F5FC1F7FE2B880F911D969524
:10553000879597F908950895883008F075C0E82F89
:10554000F0E0EE0FFF1FEF5CFD4F71836083815031
:10555000873008F03CC0E82FF0E08827EE54F54D86
:105560008F4F86C7EF2AB92AC12ACD2ADA2AFB2A09
:10557000082B809169008C7F482B40936900E89A42
:10558000089580916900837F440F551F440F551F74
:10559000482B40936900E99A0895809169008F7CB7
:1055A00074E0440F551F7A95E1F7482B409369004A
:1055B000EA9A0895809169008F7366E0440F551F41
:1055C0006A95E1F7482B40936900EB9A0895809122
:1055D0006A008C7F482B40936A00EC9A0895809172
:1055E0006A00837F440F551F440F551F482B40937B
:1055F0006A00ED9A089580916A008F7C24E0440F40
:10560000551F2A95E1F7482B40936A00EE9A0895BA
:1056100080916A008F7396E0440F551F9A95E1F7C9
:10562000482B40936A00EF9A08951F920F920FB68D
:105630000F9211240BB60F922F933F934F935F93CA
:105640006F937F938F939F93AF93BF93EF93FF934A
:10565000E0913502F09136021995FF91EF91BF91DB
:10566000AF919F918F917F916F915F914F913F91FA
:105670002F910F900BBE0F900FBE0F901F9018959B
:105680001F920F920FB60F9211240BB60F922F9309
:105690003F934F935F936F937F938F939F93AF93BA
:1056A000BF93EF93FF93E0913702F0913802199581
:1056B000FF91EF91BF91AF919F918F917F916F91EA
:1056C0005F914F913F912F910F900BBE0F900FBEA6
:1056D0000F901F9018951F920F920FB60F921124E2
:1056E0000BB60F922F933F934F935F936F937F93DC
:1056F0008F939F93AF93BF93EF93FF93E091390202
:10570000F0913A021995FF91EF91BF91AF919F915E
:105710008F917F916F915F914F913F912F910F905A
:105720000BBE0F900FBE0F901F9018951F920F92F7
:105730000FB60F9211240BB60F922F933F934F93F6
:105740005F936F937F938F939F93AF93BF93EF93E9
:10575000FF93E0913B02F0913C021995FF91EF918C
:10576000BF91AF919F918F917F916F915F914F9179
:105770003F912F910F900BBE0F900FBE0F901F9077
:1057800018951F920F920FB60F9211240BB60F921D
:105790002F933F934F935F936F937F938F939F9339
:1057A000AF93BF93EF93FF93E0913102F0913202F8
:1057B0001995FF91EF91BF91AF919F918F917F913B
:1057C0006F915F914F913F912F910F900BBE0F9072
:1057D0000FBE0F901F9018951F920F920FB60F9249
:1057E00011240BB60F922F933F934F935F936F93B8
:1057F0007F938F939F93AF93BF93EF93FF93E0912A
:105800003302F09134021995FF91EF91BF91AF915E
:105810009F918F917F916F915F914F913F912F91C8
:105820000F900BBE0F900FBE0F901F9018951F92F8
:105830000F920FB60F9211240BB60F922F933F9336
:105840004F935F936F937F938F939F93AF93BF9388
:10585000EF93FF93E0913D02F0913E021995FF9185
:10586000EF91BF91AF919F918F917F916F915F91D8
:105870004F913F912F910F900BBE0F900FBE0F9045
:105880001F9018951F920F920FB60F9211240BB60E
:105890000F922F933F934F935F936F937F938F93C9
:1058A0009F93AF93BF93EF93FF93E0913F02F091EB
:1058B00040021995FF91EF91BF91AF919F918F9108
:1058C0007F916F915F914F913F912F910F900BBE00
:1058D0000F900FBE0F901F9018951F920F920FB64A
:1058E0000F9211242F933F938F939F93AF93BF9366
:1058F0008091920590919305A0919405B0919505A2
:105900003091910523E0230F2D3758F50196A11D05
:10591000B11D209391058093920590939305A093D8
:105920009405B09395058091960590919705A09167
:105930009805B09199050196A11DB11D809396051A
:1059400090939705A0939805B0939905BF91AF9157
:105950009F918F913F912F910F900FBE0F901F90AD
:10596000189526E8230F0296A11DB11DD2CF3FB78F
:10597000F8948091960590919705A0919805B09123
:10598000990526B5A89B05C02F3F19F00196A11DCA
:10599000B11D3FBFBA2FA92F982F8827BC01CD0179
:1059A000620F711D811D911D42E0660F771F881FD8
:1059B000991F4A95D1F708958F929F92AF92BF9207
:1059C000CF92DF92EF92FF926B017C01D0DF4B010F
:1059D0005C01C114D104E104F104D9F003D5C7DF9F
:1059E000681979098A099B09683E73408105910508
:1059F00080F321E0C21AD108E108F10888EE880E90
:105A000083E0981EA11CB11CC114D104E104F1046F
:105A100031F7FF90EF90DF90CF90BF90AF909F90C5
:105A20008F900895789484B5826084BD84B5816038
:105A300084BD85B5826085BD85B5816085BDEEE696
:105A4000F0E0808181608083E1E8F0E01082808175
:105A500082608083808181608083E0E8F0E08081E3
:105A600081608083E1EBF0E0808184608083E0EB03
:105A7000F0E0808181608083E1E9F0E080818260F4
:105A80008083808181608083E0E9F0E080818160B3
:105A90008083E1EAF0E080818260808380818160A0
:105AA0008083E0EAF0E0808181608083E1E2F1E0E0
:105AB000808182608083808181608083E0E2F1E088
:105AC000808181608083EAE7F0E080818460808368
:105AD0008081826080838081816080838081806812
