:1000000005C100000C9454280C947F280C94AA2855
:100010000C94D5280C9400290C942B290C94562967
:100020000C94812924C1000022C1000020C10000DD
:100030001EC100001CC100001AC1000018C1000050
:1000400016C1000014C1000012C1000010C1000060
:100050000EC100000CC100000AC100000C94AC29C4
:1000600006C100000C94D42C0C940A2D00C1000091
:10007000FEC00000FCC00000FAC00000F8C0000094
:10008000F6C00000F4C00000F2C00000F0C00000A4
:100090000C94602D0C94962DEAC00000E8C000007E
:1000A000E6C00000E4C00000E2C00000E0C00000C4
:1000B000DEC00000DCC00000DAC00000D8C00000D4
:1000C000D6C00000D4C000000C9483240C94EC2D06
:1000D0000C94222ECCC000000C94782E0C94AE2EE2
:1000E000C6C0000000000A0B02090C0D0E08070331
:1000F00004010000000000000000000000000000FB
:1001000000000000000000000000000000000000EF
:1001100012111000000000000000000000000000AC
:100120000000000000000000000001021020200874
:100130000810204010204080020102010804020142
:1001400001020408102040808040201008040201B1
:10015000800402018040201008040201080402010A
:100160000102040810204080010204081020408091
:1001700005050505070508080808020202020A0A23
:100180000808040404040101010101010101030341
:10019000030303030303040707070C0C0C0C0C0CEC
:1001A0000C0C0202020206060606060606060B0BE9
:1001B0000B0B0B0B0B0B000020002300260029006B
:1001C0002C002F003200000100000301060109018C
:1001D00000002200250028002B002E0031003400F2
:1001E00002010000050108010B01000021002400AC
:1001F00027002A002D003000330001010000040117
:1002000007010A01332DBF2D4B2ED72E11241FBEFF
:10021000CFEFD1E2DEBFCDBF00E00CBF12E0A0E027
:10022000B2E0E6E3FFE500E00BBF02C007900D92ED
:10023000A43EB107D9F728E0A4EEB2E001C01D92B8
:10024000AD31B207E1F711E0C6E0D1E000E006C051
:1002500021970109802FFE010E94682FC230D1072B
:1002600080E00807A9F70E949F250C94992FC8CE1B
:10027000CF93DF93EC0170E060E06C177D070CF525
:10028000072E000C880B990B0E94C32620E030E05B
:10029000A9010E94282620E030E0A9010E9428261A
:1002A00020E030E040E450E40E94282620E030E0E6
:1002B00040E450E40E9427260E9490266F5F7F4F03
:1002C000DCCFDF91CF910895CF93DF938091F4023B
:1002D0009091F5020E94822BEC018091FA0290919C
:1002E000FB02C6DF8091F6029091F7020E94822BFA
:1002F000019771F48091F8029091F902219771F4BD
:1003000001969093F9028093F802DF91CF910895BE
:100310008091F8029091F902CD2B91F30197F1CFE2
:10032000CF93DF938091EC029091ED020E94822B9B
:10033000EC018091F2029091F3029ADF8091EE023B
:100340009091EF020E94822B019771F48091F0024C
:100350009091F102219771F401969093F1028093AC
:10036000F002DF91CF9108958091F0029091F10217
:10037000CD2B91F30197F1CFCF93DF938091E402DE
:100380009091E5020E94822BEC018091EA0290910B
:10039000EB026EDF8091E6029091E7020E94822BD1
:1003A000019771F48091E8029091E902219771F42C
:1003B00001969093E9028093E802DF91CF9108952E
:1003C0008091E8029091E902CD2B91F30197F1CF52
:1003D000CF93DF938091EE029091EF020E94822BE7
:1003E000EC018091F2029091F30242DF8091EC02E5
:1003F0009091ED020E94822B019771F48091F0029E
:100400009091F102CD2B71F401969093F1028093BB
:10041000F002DF91CF9108958091F0029091F10266
:10042000219791F30197F1CFCF93DF938091E6026B
:100430009091E7020E94822BEC018091EA02909158
:10044000EB0216DF8091E4029091E5020E94822B7C
:10045000019771F48091E8029091E902CD2B71F43B
:1004600001969093E9028093E802DF91CF9108957D
:100470008091E8029091E902219791F30197F1CFE1
:10048000CF93DF938091F6029091F7020E94822B26
:10049000EC018091FA029091FB02EADE8091F40275
:1004A0009091F5020E94822B019771F48091F802DD
:1004B0009091F902CD2B71F401969093F9028093FB
:1004C000F802DF91CF9108958091F8029091F9029E
:1004D000219791F30197F1CF0F931F93CF93DF9360
:1004E0008C01EC0183E0CC0FDD1F8A95E1F7CC5144
:1004F000DD4F798368835B834A838881998160E0DB
:100500000E94192B8A819B8160E00E94192B8881AF
:10051000998161E00E94552B8A819B8161E00E9454
:10052000552B01301105D9F10230110509F466C0CF
:10053000012B09F092C08091E4029091E5020297AC
:100540008431910530F5835C9D4FFC018081082E3C
:10055000000C990B41E050E064E172E00E94DB275F
:100560008091E6029091E702029784319105A0F410
:10057000835C9D4FFC018081082E000C990B41E0AB
:1005800050E06CEB71E0DF91CF911F910F910C94D3
:10059000DB278FEF9FEFDECF8FEF9FEFF0CF8091C4
:1005A000EC029091ED0202978431910508F5835C8D
:1005B0009D4FFC018081082E000C990B41E050E01A
:1005C00068EE71E00E94DB278091EE029091EF02CD
:1005D00002978431910578F4835C9D4FFC01808102
:1005E000082E000C990B41E050E060E971E0CBCFA0
:1005F0008FEF9FEFE3CF8FEF9FEFF5CF8091F40266
:100600009091F50202978431910508F5835C9D4F26
:10061000FC018081082E000C990B41E050E060E461
:1006200072E00E94DB278091F6029091F702029718
:100630008431910578F4835C9D4FFC018081082E04
:10064000000C990B41E050E064E671E09CCF8FEF25
:100650009FEFE3CF8FEF9FEFF5CFDF91CF911F910A
:100660000F91089523E0880F991F2A95E1F7FC0167
:10067000EC51FD4F84819581089590E080E00895CC
:100680000F931F93009709F487C06115710509F452
:1006900083C000910402109105022091060230915E
:1006A00007020E3F1F4F2F4F3F4F09F066C04FEF1D
:1006B0005FEFBA0140930402509305026093060273
:1006C0007093070240910402509105026091060266
:1006D00070910702DC011296ED91FC91808191816D
:1006E000A281B3818093680390936903A0936A0306
:1006F000B0936B0384819581A681B7818093640355
:1007000090936503A0936603B093670380859185FA
:10071000A285B3858093600390936103A0936203E5
:10072000B093630384859585A685B78580935C0324
:1007300090935D03A0935E03B0935F031092580300
:100740001092590310925A0310925B03C3D48FE89E
:1007500098E09093FD028093FC029093FF028093B7
:10076000FE02A7D3009731F421E030E030936D030F
:1007700020936C031F910F91089500910402109132
:1007800005022091060230910702DB010D931D93B3
:100790002D933C93139796CF8FEF9FEFEBCF8F92D4
:1007A0009F92AF92BF92CF92DF92EF92FF921F93F0
:1007B000CF93DF934B015C0110916F0382E090E0D7
:1007C00090936D0380936C0381149104A104B10490
:1007D00041F480916F03811104C080916E03C1E0E8
:1007E0008111C0E0C12CD12C760180916F03811161
:1007F00006C080916E03811102C0CC23D1F083E04A
:1008000090E090936D0380936C03CC2371F1CCE95D
:10081000DFEF111101C0E7D7CE01DF91CF911F911A
:10082000FF90EF90DF90CF90BF90AF909F908F9010
:1008300008956AE070E080E090E00E941B2A80E169
:10084000C80E87E2D81EE11CF11C8FEF88169806AF
:10085000A806B80631F0C1E08C149D04AE04BF04B4
:1008600008F0C0E080E059D3C0CFD0E0C0E0D1CFE5
:10087000CF92DF92EF92FF920F931F93CF93DF936C
:100880008F3F910511F008F050C020916C0330911A
:100890006D032330310539F020916C0330916D03E5
:1008A0002130310531F424E030E030936D032093A2
:1008B0006C036A017B01EC0182309105A0F011E02C
:1008C000AE01C701B601F4D2AB01BC01CE011123C8
:1008D000F9F0DF91CF911F910F91FF90EF90DF9092
:1008E000CF900C941C0E8C01000F111F04501D4F53
:1008F000D8018D919C91892B11F30E94260E0297AD
:10090000F1F6D801ED91FC91CE011995182FD8CFB1
:100910000E943E0E90E080E0DF91CF911F910F91F9
:10092000FF90EF90DF90CF9008958FEF9FEFF4CF7F
:1009300080E0F3C2CF93DF9386E090E090936D0365
:1009400080936C0343D3EC01ECEFF2E084E0DF0131
:100950001D928A95E9F7DFD610926D0310926C0311
:10096000CE01DF91CF91089580916E03089580911B
:100970005703089560930402709305028093060262
:100980009093070290E080E008954F925F926F92FB
:100990007F928F929F92AF92BF92CF92DF92EF920F
:1009A000FF92C0900002D0900102E0900202F0900D
:1009B0000302A70196016091FC077091FD078091E9
:1009C000FE079091FF070E948C26882341F0C09279
:1009D000FC07D092FD07E092FE07F092FF0790E03F
:1009E00080E040DE092E000CAA0BBB0B8093F207BF
:1009F0009093F307A093F407B093F507C0902A03F0
:100A0000D0902B03E0902C03F0902D038FEFC81AA9
:100A1000D80AE80AF80AC0922A03D0922B03E0927F
:100A20002C03F0922D03C114D104E104F10499F4D4
:100A300080912E0390912F03A0913003B091310348
:100A40000196A11DB11D80932E0390932F03A093B7
:100A50003003B09331038090320390903303A09021
:100A60003403B090350360912E0370912F03809171
:100A70003003909131030E94C126A50194010E9488
:100A8000772720E030E040E85FE40E9477272B01E1
:100A90003C01C701B6010E94C126A50194010E9434
:100AA00077279B01AC01C301B2010E942826609305
:100AB0002603709327038093280390932903FF90C4
:100AC000EF90DF90CF90BF90AF909F908F907F90EE
:100AD0006F905F904F9008951F93CF93DF9384E0C2
:100AE00090E0AED0E0E1F3E08BE2DF011D928A9569
:100AF000E9F780E090E0A0E8BFEB86A397A3A0A76A
:100B0000B1A78AE097EDA3E2BCE382A393A3A4A3D9
:100B1000B5A385E897E6ACEBBEE184839583A68315
:100B2000B78386E591E3A2E9B4E580879187A28740
:100B3000B3878AE096ECA5E3BEE984879587A6870C
:100B4000B7878DE591E7A4EBB2E2808B918BA28B06
:100B5000B38BA4E0B3E0B383A283E0E0F3E01196AB
:100B6000FC93EE9381E592E091838083938382836B
:100B700084E293E015969C938E93149784E193E01E
:100B800013969C938E93129786E293E017969C930C
:100B90008E931697E2EFF7E084E0DF011D928A95CD
:100BA000E9F7C6EFD7E08DE0FE0111928A95E9F7EB
:100BB00011E01C878091000290910102A091020235
:100BC000B09103028E839F83A887B98781E090E06C
:100BD000A0E0B0E089839A83AB83BC8343E050E01C
:100BE00062E070E090E080E077DC1D83DF91CF91E0
:100BF0001F9108958091F607811103C081E08093D1
:100C0000F607089560E070E080E89FE7089560E0EF
:100C100070E080E89FE7089560E070E080E89FEF73
:100C2000089560E070E080E89FEF089560E070E074
:100C300080EC9FEF089560E070E080EC9FEF0895F6
:100C4000F5DF60930F08709310088093110890935C
:100C50001208F1DF6093030870930408809305087D
:100C600090930608CFDF60930B0870930C08809375
:100C70000D0890930E08CBDF609307087093080867
:100C80008093090890930A08C7DF60931308709354
:100C900014088093150890931608C3DF6093170813
:100CA000709318088093190890931A0808954F922A
:100CB0005F926F927F928F929F92AF92BF92CF92EC
:100CC000DF92EF92FF920F931F93F89440904703A7
:100CD000509048036090490370904A03C0903B03D2
:100CE000D0903C03E0903D03F0903E03452B09F08B
:100CF000A4C09B01AC0124193509460957092901F3
:100D00003A0100914303109144032091450330912F
:100D1000460348015901840C951CA61CB71C80167B
:100D20009106A206B306A0F400913F031091400380
:100D300020914103309142030F5F1F4F2F4F3F4FD0
:100D400000933F03109340032093410330934203E9
:100D50008092430390924403A0924503B0924603CD
:100D600000913F03109140032091410330914203D1
:100D700080924B0390924C03A0924D03B0924E038D
:100D800000934F0310935003209351033093520369
:100D900060934703709348038093490390934A03F9
:100DA000A0E1B7E2A30192010E94702F6C0D7D1D9E
:100DB0008E1D9F1D60933B0370933C0380933D0306
:100DC00090933E03009104021091050220910602C7
:100DD000309107020F3F1F4F2F4F3F4FF1F000910F
:100DE00004021091050220910602309107020E3F85
:100DF0001F4F2F4F3F4F89F0C0900402D090050243
:100E0000E0900602F090070221E08C149D04AE04ED
:100E1000BF0408F420E02093570378941F910F91AA
:100E2000FF90EF90DF90CF90BF90AF909F908F900A
:100E30007F906F905F904F9008954B015C018418F4
:100E40009508A608B708A3019201261B370B480B8B
:100E5000590B6415750586059705D0F08216930623
:100E6000A406B50640F420E030E0A9018114910405
:100E7000A104B10491F4A0E1B7E20E94702FA70190
:100E80009601261B370B480B590BCA01B901C5CF78
:100E900082169306A406B50670F7A0E1B7E2A50195
:100EA00094010E94702F6C0D7D1D8E1D9F1DB5CF6E
:100EB000FECECF93DF9300D01F92CDB7DEB71C825A
:100EC0001B821A82198210925303109254031092BB
:100ED000550310925603BE016F5F7F4FCE010396FC
:100EE0000E94542469817A818B819C810E94421DD9
:100EF000009761F4BE016F5F7F4FCE0103960E94A1
:100F0000602469817A818B819C812ED50F900F900E
:100F10000F900F90DF91CF910895FF920F931F9341
:100F2000CF93DF93082F60E070E0CB010E941B2A73
:100F3000FF24F3940E942B1CEC01892B89F010E014
:100F4000CE3F8FEFD80769F0002361F160E070E0D9
:100F5000CB010E941B2A81E090E0892B59F322C02B
:100F600011E025D5EC01892B21F0CE3F8FEFD8077A
:100F700059F711111EC011E0229609F410E00E94E9
:100F8000DB1BEC01892B21F0CE3F8FEFD807E1F678
:100F9000111111C011E0CE3F8FEFD80709F410E016
:100FA00001110BC0CE01DF91CF911F910F91FF90E6
:100FB000089511E0E4CF11E0F3CF60E070E0CB01E1
:100FC0000E941B2A1F25812F90E0C7CFCF93DF936C
:100FD00080915703882321F060E070E0CB014CD66C
:100FE00035D6D0E0C0E0892B71F06AE070E080E097
:100FF00090E00E941B2A81E090DF28D62196C03D18
:1010000027E0D20781F727D60E94961D10926F0322
:1010100010926E03109268031092690310926A0393
:1010200010926B0310926403109265031092660392
:101030001092670310926003109261031092620392
:101040001092630310925C0310925D0310925E0392
:1010500010925F03109258031092590310925A0392
:1010600010925B034EEF5FEF6FEF7FEF4093040250
:101070005093050260930602709307021092570383
:10108000EBE4F3E028E0DF011D922A95E9F71092E6
:101090004703109248031092490310924A0310929A
:1010A000430310924403109245031092460310929A
:1010B0003F0310924003109241031092420310929A
:1010C0003B0310923C0310923D0310923E03DF91CC
:1010D000CF91089510927B0310927C0310927D03B0
:1010E00010927E0310927A0380918303909184037F
:1010F000909379038093780310927703109276038C
:10110000109272031092730310927403109275037D
:101110001092800310927F0390E080E00895CF92B8
:10112000DF92EF92FF920F931F93CF938C01892B45
:1011300009F055C020918303309184038091780396
:1011400090917903409183035091840350937903E4
:10115000409378032817390781F010927703109293
:10116000760310927203109273031092740310921C
:1011700075031092800310927F03809183039091F6
:101180008403019761F580917F0390918003892BFF
:1011900021F480910802811112C080917F03909107
:1011A00080030197E1F48091720390917303A09101
:1011B0007403B09175030197A105B10581F41092F4
:1011C00072031092730310927403109275031092BD
:1011D000080282E090E09093800380937F038091E7
:1011E000830390918403019709F01CC180919903B6
:1011F00090919A038017910709F014C1809195038B
:1012000090919603A0919703B0919803009709F4E9
:1012100009C12091940321110DC040919503509173
:1012200096036091970370919803452B462B472BAB
:1012300009F4F8C020917F033091800322303105FA
:1012400009F0F0C0209176032111ECC0FC01C080B0
:10125000D180E280F38080917A03882309F4D3C09F
:101260008091860390918703892B09F4FDC020911A
:1012700086033091870381E02230310509F080E058
:101280002091860330918703C1E02130310549F078
:101290002091860330918703C1E02230310509F0A7
:1012A000C0E0882309F456C0209190033091910347
:1012B0004091920350919303C701B6010E94732796
:1012C00087FD14C0209190033091910340919203C7
:1012D0005091930360917B0370917C0380917D0317
:1012E00090917E030E948C2687FD22C0209190035E
:1012F000309191034091920350919303C701B6013D
:101300000E947327181634F52091900330919103B1
:10131000409192035091930360917B0370917C0301
:1013200080917D0390917E030E948C26811112C0D2
:101330008091880390918903A0918A03B0918B03D7
:10134000892B8A2B8B2B19F481E08093770381E022
:1013500080937603CC2309F456C0209190033091FA
:1013600091034091920350919303C701B6010E94EB
:101370008C2687FF14C020919003309191034091F7
:1013800092035091930360917B0370917C03809151
:101390007D0390917E030E94732787FF22C02091D6
:1013A0009003309191034091920350919303C701B0
:1013B000B6010E948C26811126C0209190033091A5
:1013C0009103409192035091930360917B0370913C
:1013D0007C0380917D0390917E030E9473271816F1
:1013E00094F48091880390918903A0918A03B0912D
:1013F0008B03892B8A2B8B2B19F481E08093770345
:1014000081E08093760381E090917603911180E0F2
:1014100080937A03C0927B03D0927C03E0927D0399
:10142000F0927E03012B09F067C180917F039091B8
:101430008003892BD9F41092850310927603809152
:101440000802882379F082E090E0909380038093F3
:101450007F0310920802209183033091840381E07E
:10146000232BE9F080E01BC081E00ACF1092080234
:1014700080918503882349F01092770310928003AE
:1014800010927F0310928503EDCF8091830390919A
:101490008403892BE1F080917603109276032091EA
:1014A0007F03309180032230310509F45EC088F457
:1014B0002115310509F448C02130310509F4F3C084
:1014C00010927703109276031092850338C081E062
:1014D000E6CF2330310509F4B1C02430310581F75E
:1014E000409172035091730360917403709175037E
:1014F000411551056105710561F0415051096109BE
:101500007109409372035093730360937403709353
:10151000750340917203509173036091740370914D
:101520007503452B462B472BD9F42091810330912D
:1015300082032130310509F046C0109277031092E2
:10154000800310927F030CC080910802882341F031
:1015500082E090E09093800380937F0310920802D2
:101560001092700380917703CEC08823C9F38091D5
:10157000880390918903A0918A03B0918B03181678
:1015800019061A061B060CF07DC08091830390910A
:101590008403019709F076C08091880390918903B4
:1015A000A0918A03B0918B0380937203909373038D
:1015B000A0937403B093750383E090E0909380034D
:1015C00080937F03CDCF40918C0350918D03609128
:1015D0008E0370918F03452B462B472BA9F0109259
:1015E000770380918C0390918D03A0918E03B0912D
:1015F0008F038093720390937303A0937403B0934B
:10160000750381E090E0DACF882399F08091090298
:1016100090910A02A0910B02B0910C028093720388
:1016200090937303A0937403B093750384E090E0E8
:10163000C5CF1092770382E090E0C0CF8091720313
:1016400090917303A0917403B09175030097A10565
:10165000B10559F00197A109B109809372039093E4
:101660007303A0937403B0937503809172039091F8
:101670007303A0917403B0917503892B8A2B8B2B74
:1016800009F06ECF8091090290910A02A0910B029D
:10169000B0910C02892B8A2B8B2B09F44ECF81E061
:1016A00080937703B3CF409172035091730360919D
:1016B000740370917503411551056105710561F061
:1016C00041505109610971094093720350937303AA
:1016D0006093740370937503409172035091730388
:1016E0006091740370917503452B462B472B09F0CD
:1016F00037CF8111C7CF9FCF80917003882309F422
:1017000031CF80917103CF911F910F91FF90EF9096
:10171000DF90CF90089510927B0310927C0310927B
:101720007D0310927E0310927A0310928003109230
:101730007F03109279031092780310929A0310920B
:10174000990310927703109276031092720310920D
:101750007303109274031092750310927103109228
:1017600070031092950310929603109297031092B3
:101770009803109294031092900310929103109288
:1017800092031092930388EE93E0A0E0B0E0809380
:10179000090290930A02A0930B02B0930C021092DC
:1017A0008C0310928D0310928E0310928F0310926F
:1017B00088031092890310928A0310928B0310926F
:1017C00087031092860381E08093080210928503BC
:1017D000109284031092830310928203109281036B
:1017E00090E080E008958091830390918403892B99
:1017F00019F580910802882351F0809185038111A9
:1018000006C081E080937103809370030895209156
:1018100085033091080281E090E0332311F090E0DD
:1018200080E030E082239323892B21F01092710312
:1018300081E0EACF10927003089582E090E0FA010F
:10184000918380838FEF9FEF0895CF93DF93EA0119
:10185000009711F00E94B61E1982188290E080E075
:10186000DF91CF910895DB01009719F48FEF8C93EE
:1018700008952EEF2C93FC013F96EF30F10508F010
:1018800034C08827E95BF34F8F4F0C94682F730C9B
:10189000710C6F0C6D0C6B0C670C690C650C630C98
:1018A000610C5E0C5A0C560C5C0C750C80E31196A6
:1018B0008C93089589E2FBCF82E2F9CF11961C92B6
:1018C000089583E2F4CF81E2F2CF81E1F0CF87E2A5
:1018D000EECF8AE2ECCF80E1EACF84E2E8CF88E283
:1018E000E6CF86E2E4CF81E3E2CF80E2E0CF8091F1
:1018F000A7039091A80308959093A8038093A7034A
:1019000008958091A60308959091A603892B809352
:10191000A6030895982F90958091A603892380931C
:10192000A60308958091A50308958091A303909143
:10193000A40308956115710559F0FB0130E020E022
:1019400070E060E02417350719F06115710511F09A
:10195000CB010895A081B181A817B90709F4BF018F
:101960002F5F3F4F3696EECF8091A90381111CC0A7
:1019700060D266D290939C0380939B030E94B4161E
:101980000E94C6169093A00380939F030E94431B5E
:101990000E944A1B90939E0380939D0381E0809355
:1019A000A90390E080E0089584EF9FEF08958F925F
:1019B0009F92AF92BF92CF92DF92EF92FF920F93DE
:1019C0001F93CF93DF9300D000D000D01F92CDB7EC
:1019D000DEB71A86198618861F821E821D821C8217
:1019E0001B821A8219828091A90307EF1FEF8823B7
:1019F00009F49CC08E010D5F1F4F9E012B5F3F4F6E
:101A0000AE01495F5F4FBE01675F7F4F90E080E0AE
:101A10000E94C71C8C01009721F00596029708F0E0
:101A2000DBC029853A852115310509F402C1ED8015
:101A3000FE804B815C81B701640F751F8F81988593
:101A40008617970708F4F5C0E20EF31ED7019C91A4
:101A5000903C09F07FC04230510508F47BC01196DC
:101A60008C914091A7035091A803452B09F49CC089
:101A7000913F08F071C02CE1290F2D3008F48BC084
:101A80002DE2290F203108F489C0903C21F48150C7
:101A9000823008F483C088E3890F8B3008F481C05A
:101AA00093E3C92E9CE0D92EEDE1FCE06D817E81AF
:101AB000AE014F5F5F4F89859A8519955C01C1140E
:101AC000D104A1F189809A808114910479F18B81EC
:101AD0009C818815990508F487C010E000E04B81CF
:101AE0005C8170E060E0C7010E94922F0115110532
:101AF000E9F449815A8169857A858D819E81680FD3
:101B0000791FC501F6011995E980FA800D811E81C2
:101B10002F81388549855A856FEF7FEF81E090E00E
:101B20000E94621C8C01892B09F056C0C8012A96BC
:101B30000FB6F894DEBF0FBECDBFDF91CF911F91DE
:101B40000F91FF90EF90DF90CF90BF90AF909F905C
:101B50008F90089580E085CF30E020E0220F331F82
:101B6000F901E556FC4F0190F081E02D309709F422
:101B700097CF892F90E01995009709F491CFDC0158
:101B80001296ED91FC9113971496CD90DC903097BE
:101B900009F08CCF1FC021E030E0E0CF22E030E040
:101BA000DDCF23E030E0DACFD12CC12CE5E2FCE040
:101BB0009F3F09F07BCFE0919B03F0919C0330970E
:101BC00021F4C90104EF1FEF0CC08FEF90E01995CD
:101BD0000097A9F604EF1FEF89859A85009709F40D
:101BE000A5CF0E94B61EA2CF0E94911D8C018985AF
:101BF0009A850E94B61E70E060E0C4010E942A1D12
:101C000098878F830E945F1C9E838D836F81788568
:101C10006115710559F0C8010E9442209A87898791
:101C200006EF1FEF892B09F058CF59CF08EF1FEFB0
:101C300056CF08EF1FEFD0CF2091A903222319F030
:101C400020E00C94CB1687EF9FEF08958091A703B7
:101C50009091A80308950E944F1B0E94A91AF5D0E5
:101C6000EBE9F3E088E0DF011D928A95E9F7109235
:101C7000A90390E080E008950C94071921E040E06A
:101C800050E0BA010C94CB1686E090E0FA01918303
:101C9000808390E080E0089547E050E064E572E0E2
:101CA00049CEDF92EF92FF920F931F93CF93DF9372
:101CB0008A01EC01C60FD71FE090AD03F090AE0390
:101CC000D9800E94791DD816190678F082E090E03C
:101CD000F801918380838EEF9FEFDF91CF911F9169
:101CE0000F91FF90EF90DF900895EF2841F482E08C
:101CF00090E0F8019183808384EF9FEFEECF89819C
:101D00008093AC0390E00196F8019183808390E08A
:101D100080E0E3CFCF93DF93EA010E94B8198823D4
:101D200021F00E94861D0E94B91982E090E09983FB
:101D300088838BEF9FEFDF91CF910895CF93DF934F
:101D4000EB0186E0FB0111928A95E9F78FEF88831A
:101D5000D8DD8983E7DD8A83E8DD9D838C83DF918D
:101D6000CF910895CF93DF93EA010E94BB198111AF
:101D700009C082E090E09983888385EF9FEFDF912F
:101D8000CF91089590E080E0B7DD81E090E0998305
:101D9000888390E080E0F3CF0F931F93CF93DF937E
:101DA000EA018C01060F171F0E94BB1981110BC09D
:101DB00082E090E09983888385EF9FEFDF91CF9158
:101DC0001F910F910895F8018181823038F082E0EF
:101DD00090E0998388838EEF9FEFF0CF81E090E0D1
:101DE0008BDD88E090E09983888390E080E0E6CF07
:101DF000CF93DF930097D1F4EB01FB01329686E09D
:101E0000DF011D928A95E9F78FEF888385E089834A
:101E10001A820E94791D8B830E94781D9D838C837A
:101E200081E08E838F83DF91CF910895DF91CF91F1
:101E30001ACD8CE49EE09093AB038093AA0308959F
:101E40008091AA039091AB0308951092AB03109276
:101E5000AA0308958091AD039091AE0308954111B6
:101E600005C0611571058105910561F06093AD03B1
:101E70007093AE038093AF039093B0034093B1038C
:101E800081E0089580E00895FF920F931F93CF9310
:101E9000DF938A01EC01C60FD71FF9800E94791DDC
:101EA000F816190668F082E090E0F80191838083CB
:101EB0008EEF9FEFDF91CF911F910F91FF900895CB
:101EC0006C817D818E819F814B81C9DF811108C02A
:101ED00082E090E0F8019183808384EF9FEFEACF66
:101EE00089818093AC0390E00196F801918380830F
:101EF00090E080E0DFCFCF93DF93EA01FC01E60FB3
:101F0000F71F64817581868197814381A8DF8111E4
:101F100009C082E090E09983888384EF9FEFDF918E
:101F2000CF91089581E090E09983888390E080E0EC
:101F3000F6CFEDEAF3E04081518162817381480F71
:101F4000511D611D711D4083518362837383089508
:101F5000CF93C091AC034C2F50E06091AD037091D2
:101F6000AE0301960E94892F8C2FE3DF1092AC0301
:101F7000CF910895009799F48091AD039091AE03AD
:101F80002FEFFB012083892B59F02091AC0330E027
:101F90002F5F3F4F2417350719F4CB01D9CF63CCFE
:101FA0000895009799F48091AD039091AE032FEFBF
:101FB000FB012083892B59F02091AC0330E02F5F87
:101FC0003F4F2417350719F4CB01C2CF4CCC0895ED
:101FD00023E1AC01249FC001259F900D1124E091C5
:101FE000B603F091B703E80FF91F23813481225023
:101FF000310981E02230310508F080E008950F9327
:102000001F93CF93DF930091B8031091B903D0E0F1
:10201000C0E080E00C171D0749F491E0811190E0C9
:10202000892FDF91CF911F910F9108958111F5CFE5
:10203000CE01CEDF2196EECFA091B603B091B703CB
:10204000109729F12091B8033091B90382179307B3
:10205000F0F453E1589F9001599F300D1124A20FC5
:10206000B31FED91FC911197309789F012968C91E6
:10207000681768F48DE0689FE00DF11D11248081E0
:102080009181892B21F081E09281491708F080E04D
:1020900008959C0143E1429FC001439F900D11248C
:1020A000E091B603F091B703E80FF91F8385823002
:1020B00091F481E090E06581768140910D0250912C
:1020C0000E026417750711F490E080E0892B19F077
:1020D00081E0232B09F080E00895FC01A081B1810B
:1020E0008DE0689FA00DB11D112413964D915C9158
:1020F00085859685489F9001499F300D589F300DEA
:102100001124C9010196611103C0478144FD049661
:102110000895EF92FF920F931F93CF93DF93EA01FD
:10212000FC01E60FF71F02811381E480F5804F2D3B
:102130006E2DC80181DF81110DC082E090E099838E
:1021400088838EEF9FEFDF91CF911F910F91FF90CA
:10215000EF900895C8013CDF882339F082E090E0D9
:102160009983888388EF9FEFEECF1093140200933A
:102170001302E0921502F092160281E090E099833A
:10218000888390E080E0DFCFCF92DF92EF92FF92E2
:102190000F931F93CF93DF937A01EC01C60FD71FE4
:1021A000C0901302D09014020091150210911602F3
:1021B000412F602FC60140DF811110C082E090E006
:1021C000F701918380838AEF9FEFDF91CF911F9179
:1021D0000F91FF90EF90DF90CF900895C601F8DE49
:1021E000882341F082E090E0F7019183808388EFBB
:1021F0009FEFEBCF4C815D816E817F819A818981D8
:102200008F3F41F082E090E0F701918380838EEF71
:102210009FEFDBCFE3E1EC9D9001ED9D300D1124AC
:10222000E091B603F091B703E20FF31F0190F08144
:10223000E02D2DE0029FE00DF11D11240190F081B1
:10224000E02D27E0129FE00DF11D11248083918382
:102250008B81828343835483658376831F5F1093CE
:10226000160281E090E0F7019183808390E080E0A6
:10227000ACCFEF92FF920F931F93CF93DF937A012E
:102280008C01060F171FC091B603D091B70320979A
:1022900081F021E030E0F801828193814091B80320
:1022A0005091B9038417950710F030E020E0232BFC
:1022B00071F482E090E0F701918380838EEF9FEFCD
:1022C000DF91CF911F910F91FF90EF90089543E11F
:1022D000489F9001499F300D1124C20FD31F78DE13
:1022E000882341F082E090E0F7019183808388EFBA
:1022F0009FEFE6CFF8012481358120383105C8F6FB
:1023000087818111D6CF4181842F90E08F7E009705
:1023100041F082E090E0F7019183808386EF9FEFA8
:10232000CFCF4F833E832D83268128871986223085
:1023300010F421E0288721E030E0F7013183208389
:10234000BFCF88E090E0FA019183808390E080E045
:102350000895FB018FEF808381E181838FEF9FEFF1
:102360009383828380E890E095838483168217822A
:102370000895FB018FEF808391E0918382839383A3
:10238000848384E3858381E090E097838683089546
:10239000DF92EF92FF920F931F93CF93DF93EA01A7
:1023A000FC01E60FF71F8181813071F082E090E03F
:1023B000998388838FEF9FEFDF91CF911F910F91CA
:1023C000FF90EF90DF90089582819381D4802581E2
:1023D000E680F7800091B6031091B703011511054F
:1023E00039F482E090E0998388838CEF9FEFE4CF0B
:1023F0004091B8035091B9038417950738F082E0F3
:1024000090E0998388838EEF9FEFD6CF892B39F0A8
:1024100082E090E09983888386EF9FEFCDCF8D2D6A
:102420008D7FB1F72130A1F781E0D11006C091E096
:10243000E916F10431F080E004C0E2E0EE16F104A8
:10244000D0F3882329F390E080E0C2DD882339F0BF
:1024500082E090E09983888388EF9FEFADCFF80109
:10246000D38681E08487F686E586108A178681E028
:1024700090E09983888390E080E09ECF4CE050E02C
:102480006EE772E057CA8F929F92BF92CF92DF920F
:10249000EF92FF920F931F93CF93DF93EA01FC011A
:1024A000E60FF71F828193810481B580E091B60326
:1024B000F091B703309791F482E090E0998388839C
:1024C0008CEF9FEFDF91CF911F910F91FF90EF90D5
:1024D000DF90CF90BF909F908F9008952091B80388
:1024E0003091B9038217930738F082E090E0998326
:1024F00088838EEF9FEFE6CF23E1289F6001299F1D
:10250000D00C1124EC0DFD1DE080F180E114F104EC
:1025100099F28281081748F78DE0089F8001112405
:10252000E00EF11EF70180819181892B29F6BB20F5
:10253000E1F2F7E0BF9E40011124C4010E947D1E1C
:10254000F70191838083E091B603F091B703EC0D1E
:10255000FD1D0190F081E02DE00FF11F8081918140
:10256000009739F482E090E0998388838DEF9FEFA4
:10257000A9CFA40170E060E00E94922F8091B60381
:102580009091B703C80ED91EF60180819181080F82
:10259000191FF801B28281E090E09983888390E06E
:1025A00080E090CFAF92BF92CF92DF92FF920F93D5
:1025B0001F93CF93DF93EA01FC01E60FF71F82819F
:1025C0009381F4800091B6031091B70301151105B2
:1025D00081F482E090E0998388838CEF9FEFDF9114
:1025E000CF911F910F91FF90DF90CF90BF90AF9050
:1025F00008952091B8033091B9038217930738F0FA
:1026000082E090E0998388838EEF9FEFE8CF2FEFF1
:102610002F0D2C3FA8F723E1289F6001299FD00CA4
:1026200011240C0D1D1DF80180819181892B89F6E3
:10263000FDE0FF9E50011124C5010E947D1EF8019E
:1026400091838083E091B603F091B703EC0DFD1DFB
:1026500080819181009739F482E090E099838883AA
:102660008DEF9FEFBCCFA50170E060E00E94922F3C
:10267000E091B603F091B703EC0DFD1DF28281E00D
:1026800090E09983888390E080E0A9CFCF92DF9299
:10269000EF92FF920F931F93CF93DF93860F971FB5
:1026A000FC01028113818091B6039091B703892BBD
:1026B00081F082E090E0FA01918380838CEF9FEFBC
:1026C000DF91CF911F910F91FF90EF90DF90CF900E
:1026D0000895C801B0E0A0E00197A109B1098F3FBA
:1026E0009F4FA105B10540F082E090E0FA0191838F
:1026F00080838EEF9FEFE4CF7A0183E1809F6001BA
:10270000819FD00C1124C6010E947D1EEC01009710
:1027100041F482E090E0F701918380838DEF9FEF99
:10272000CFCFA60170E060E00E94922FD093B70354
:10273000C093B6031093B9030093B80390E080E010
:102740002FEF3FEF41E061E070E08017910741F427
:1027500081E090E0F7019183808390E080E0B0CF4A
:102760003A8B298B1B864C877E876D87188A1F863C
:1027700001966396EACFEF92FF921F93CF93DF9378
:10278000EC0110E0F12CE12C6A811617B0F083E027
:10279000689FB0011124AE014F5E5F4FC7010E94D8
:1027A000E21E009721F02FEF3FEF3A8B298BDF914C
:1027B000CF911F91FF90EF900895612FCE018DDC96
:1027C00061E070E00E942A1DE816F90608F47C0119
:1027D0001F5FDACFF8942091B4033091B50381E004
:1027E0002115310509F080E0232B09F07894089534
:1027F0002F923F924F925F926F927F928F929F9211
:10280000AF92BF92CF92DF92EF92FF920F931F93FE
:10281000CF93DF933C01660E771EF3018281938193
:102820004C01B12CA12CC091B603D091B7032097D5
:1028300069F021E030E06091B8037091B903861728
:10284000970710F030E020E0232BD1F482E090E0F5
:10285000FA01918380838EEF9FEFDF91CF911F91DB
:102860000F91FF90EF90DF90CF90BF90AF909F902F
:102870008F907F906F905F904F903F902F90089532
:102880008092170290921802A0921902B0921A0236
:1028900063E1689F9001699F300D1124C20FD31F1F
:1028A000F3018181833040F082E090E0FA0191836E
:1028B000808386EF9FEFD1CF2A012B813C81232B90
:1028C000F1F4288139819F8191FF2EC0232B09F4D7
:1028D0006FC02091BB039A81422F490F5527551F86
:1028E000BA0141E050E06138710514F050E040E079
:1028F000452B09F45DC02A87920F9093BB0381504A
:10290000823008F481C066DF882309F4D8C0F3015F
:102910008181813009F48DC008F47BC0823009F4D4
:10292000C6C090E080E0ADC0232B09F441C02091E7
:10293000BA039A81E22FE90FFF27FF1F41E050E021
:10294000ED3FF10514F050E040E0452B89F12A8776
:10295000920F9093BA03D3CFA081B181A20FB31F7E
:1029600011966C91060F111D0196295F3F4F841738
:10297000950794F38D859E85089F1001099F300C63
:10298000189F300C1124C114D104D1F48F8184FF1D
:1029900017C00E94781DF5E02F0E311C21E0821532
:1029A000930508F420E0A701435F5F4F21110EC09B
:1029B00082E090E0F2019183808387EF9FEF4DCF1B
:1029C0000E94781D2FEF221A320AE8CF8881998160
:1029D000E80EF91EF70114830383FFEFCF1ADF0A15
:1029E0007A018A818C151D0409F00CF48CCFE881E2
:1029F000F981EE0DFF1D428150E030E020E010E053
:102A000000E090E080E0B3CFF12CE12CD12CC12C80
:102A1000E8CF81E090E09C838B83F1DA882309F48E
:102A200080CF81E090E00E947C0C80E40E948A0CC0
:102A300078CF89899A89019661F083E090E09C8340
:102A40008B8382E090E00E947C0C80E40E94840CE6
:102A500068CF8D819E8120910D0230910E028217E8
:102A60009307D1F46091110270911202AE014F5E92
:102A70005F4F80910F02909110020E9401200097F9
:102A8000E1F2789422E030E0F20131832083892B57
:102A900099F08DEF9FEFE1CE89288A288B2869F67F
:102AA000892B59F6CE0167DE188A1F86E8CF82E0AF
:102AB00090E09C838B8335CF90E080E0CECE82E0A7
:102AC00090E0F2019183808385EF9FEFC6CE8F92D5
:102AD0009F92AF92BF92CF92DF92EF92FF920F93AD
:102AE0001F93CF93DF93EA018C01060F171FF801A4
:102AF0008181833098F082E090E09983888386EF2B
:102B00009FEFDF91CF911F910F91FF90EF90DF909A
:102B1000CF90BF90AF909F908F9008958091B60313
:102B20009091B703892B61F081E090E02091B80388
:102B30003091B903232B11F490E080E0892B39F414
:102B400082E090E0998388838EEF9FEFDACF42DEB8
:102B5000882309F4DFC0F8018181813009F495C030
:102B6000E8F0823099F42091B8033091B903E091F4
:102B7000B603F091B70390E080E041E050E0281701
:102B8000390709F0BDC03BDA811117C0789481E0A4
:102B900090E09983888390E080E0B3CF2091B803E0
:102BA0003091B903E091B603F091B70390E080E073
:102BB00041E050E02817390741F481E090E00E949D
:102BC0007C0C80E40E948A0CE1CF63817481672BC6
:102BD00011F05483438301967396ECCFE091B603D2
:102BE000F091B703E00FF11F2381348122303105CA
:102BF000D9F4218932892F3F3F4FB1F425813681A5
:102C000040910D0250910E022417350761F5AF0176
:102C10004F5E5F4F609111027091120280910F021E
:102C2000909110020E940120EFEFCE1ADE0AEE0A08
:102C3000FE0A0D5E1F4F4091B8035091B90370E03A
:102C400060E0C416D506E606F7063CF5009731F2BB
:102C50007894892B09F49BCF82E090E09983888354
:102C60008DEF9FEF4ECFC114D104E104F104E1F6E2
:102C7000232BD1F6CF017FDDE091B603F091B703AE
:102C8000E00FF11F108A1786CFCF10E000E090E030
:102C900080E0C12CD12C7601CECF0097C9F610E090
:102CA00000E0812C912C540183E0E82EF12C1AC015
:102CB000E091B603F091B703E00FF11F8381948197
:102CC000029749F4F482E38282E090E00E947C0C57
:102CD00080E40E94840CFFEF8F1A9F0AAF0ABF0A9C
:102CE0000D5E1F4F8091B8039091B903B0E0A0E052
:102CF00088169906AA06BB06DCF290E080E0A8CF11
:102D0000638174816230710511F4548343830196A9
:102D1000739635CF82E090E09983888385EF9FEFAB
:102D2000F0CE0097B9F48FEFFB018083209117025A
:102D30003091180243E1429FC001439F900D11243E
:102D4000E091B603F091B703E80FF91F8285FB010C
:102D5000818308950C94330C88E090E0FA0191830C
:102D6000808390E080E008951092B5031092B40340
:102D7000E6EBF3E086E0DF011D928A95E9F78EE34A
:102D800092E19093B3038093B20308958091B203CC
:102D90009091B30308952F923F924F925F926F925A
:102DA0007F928F929F92AF92BF92CF92DF92EF92DB
:102DB000FF920F931F93CF93DF93CDB7DEB72F977B
:102DC0000FB6F894DEBF0FBECDBFF894E091B40308
:102DD000F091B5033196F093B503E093B403789482
:102DE0004090B6035090B7034114510409F40CC24B
:102DF000E091B803F091B903EF2B09F405C22D87D8
:102E000049875A876B877C8798878F831201B12CFB
:102E1000A12C10E000E08091B8039091B903A816AE
:102E2000B90618F40115110529F1F8948091B4033D
:102E30009091B50301979093B5038093B403789470
:102E4000C8012F960FB6F894DEBF0FBECDBFDF913D
:102E5000CF911F910F91FF90EF90DF90CF90BF9097
:102E6000AF909F908F907F906F905F904F903F902A
:102E70002F9008957101E418F508D10117968C91EF
:102E8000179781FD54C013968D919C9114970397C9
:102E900009F04DC015968D919C91EF81F8858E17A4
:102EA0009F0709F044C0B50190E080E07FD48A8399
:102EB0002091B6033091B7033D832C833D853323A6
:102EC00009F44CC04C815D81452B09F49AC1809175
:102ED000B8039091B903A816B90608F092C1C501CC
:102EE000D8D88823E9F06C817D816E0D7F1D7D83AC
:102EF0006C83DB011F968D919C91892B89F0D12CDD
:102F0000C12CF12CE12CAC81BD8112968C911297D1
:102F10008E151F0409F094F450961C921E921F9770
:102F20002A81222321F0B50190E080E041D43FEFD7
:102F3000A31AB30A43E1240E311C6DCFAC81BD81CD
:102F4000ED91FC91EC0DFD1D858196810FD7BFEFB2
:102F5000EB1AFB0AEDE0CE0ED11CD5CFEC81FD8142
:102F6000309709F44EC18091B8039091B903A81627
:102F7000B90608F046C1EE0DFF1DFF87EE87C501BB
:102F800088D88B83882339F1AE85BF851F968D91B4
:102F90009C915097019621E01D964D915C9184176C
:102FA000950709F020E02E831982712C10E000E0D3
:102FB000AE85BF8512968C91781608F45DC0EE85BB
:102FC000FF85878590890196658576850E94322FD9
:102FD000908B8787A5CFB1E0BE83E6CF99249394E9
:102FE0006BC08BD6F6019683858382C0D601ED90A7
:102FF000FC90B7E06B9EE00CF11C1124F70163819B
:10300000748180818F3F61F121E030E002C0220FA6
:10301000331F8A95E2F7C901092E000CAA0BBB0BDE
:10302000FB01408151816281738184239523A62312
:10303000B72321E0892B8A2B8B2B09F420E0D401C4
:103040002C93D70111968C91F60123853485820F3C
:10305000932F911D880E991E1486138663949BC02E
:10306000418150E0C4010E94892FEBCF998206EF85
:103070001FEFC5C01982C3C0F981F111A0CFEDE0E7
:103080007E9E70011124AE85BF85CD90DC90CE0C64
:10309000DF1C15D49D838C83BB81BB2309F49ECF99
:1030A00081E0EE85FF8527853089232B09F080E0BC
:1030B000982E882309F458C0672D8E859F850DD8DA
:1030C000D60118969C938E93179761E070E0C2D456
:1030D000EE85FF85218932892F3F320709F481CFA0
:1030E000BC01C901CFD7D60116969C938E93159734
:1030F000D60115968D919C911697009709F4B6CF3D
:10310000EC81FD818E0F9F1F1A969C938E931997C9
:10311000AE85BF85ED91FC911197EE0EFF1EF70174
:1031200021853285148613861A968C91870DD901D4
:103130008D93711016C0EE85FF85878184FF11C0C5
:1031400049855A856B857C85F90141835283638368
:103150007483F701838594850496A80FB91F14869C
:103160001386F701B287A187D60115968D919C91A0
:103170001697892B09F443C0EE85FF85258136819A
:1031800080910D0290910E022817390779F0199657
:103190008D909C90612CD60112968C911297681696
:1031A00008F424CF1A969C928E921997BE81BB2365
:1031B00009F460CF61E070E0F601878190854AD420
:1031C000D6011796ED90FC90189715964D915C914D
:1031D000E1E0F0E0BA81BB2311F0F0E0E0E00C8127
:1031E0001D819C01B501882799278E1B9F0B6AD3EF
:1031F0008C01892B21F0F60185819681B7D57394D6
:10320000D7CE0FEF1FEF8CCE10E000E00ECE2F9246
:103210003F924F925F926F927F928F929F92AF9266
:10322000BF92CF92DF92EF92FF920F931F93CF93B3
:10323000DF938091B6039091B70310E000E0892BF3
:10324000A9F0C8DA0AEF1FEF882381F02090B803B5
:103250003090B903C091B603D091B703D12CC12CE3
:1032600010E000E02C143D04A9F47894C801DF912B
:10327000CF911F910F91FF90EF90DF90CF90BF9073
:10328000AF909F908F907F906F905F904F903F9006
:103290002F900895C6010E944910882309F18B815F
:1032A0009C810397E9F48F859889892BC9F0B60131
:1032B00090E080E07BD221E030E0882311F030E024
:1032C00020E044245524421A530AB12CA12C912CFD
:1032D000812C8A818815190409F038F4188A1F8610
:1032E0004FEFC41AD40A6396BDCFE881F981EA0D85
:1032F000FB1D85819681892BA1F161E070E08781BA
:103300009085A8D33C01DBD28C01E881F981EA0DDC
:10331000FB1D8185928525813681200F311FAC01EF
:10332000421B530B9A0147815085421B530B70E09F
:1033300060E00E94922FE881F981EA0DFB1DE78091
:10334000F084458156819301B601C201BBD28C0144
:10335000892B39F0E881F981EA0DFB1D8581968181
:1033600005D55FEF851A950A8DE0A80EB11CB1CF87
:1033700031CA789408952F923F924F925F926F9244
:103380007F929F92AF92BF92CF92DF92EF92FF9285
:103390000F931F93CF93DF9300D000D0CDB7DEB74C
:1033A0000091B6031091B703992493940115110568
:1033B00009F43EC0A090B803B090B9030BDA982E80
:1033C0008823B1F11092B7031092B6031092B9039B
:1033D0001092B8031092BA031092BB038FEF9FEFC5
:1033E000DC018093170290931802A0931902B09306
:1033F0001A0278947FD31E830D83C12CD12C7601C1
:10340000C501B0E0A0E089839A83AB83BC8322240A
:103410002A94322C89819A81AB81BC81C816D90645
:10342000EA06FB06F4F0C801A1D480E40E948A0CED
:10343000892D26960FB6F894DEBF0FBECDBFDF9163
:10344000CF911F910F91FF90EF90DF90CF90BF90A1
:10345000AF909F907F906F905F904F903F902F9094
:103460000895AD81BE8115968D919C9116972091FE
:103470000D0230910E0282179307D1F451968D916F
:103480009C91EED5ED81FE8180819181B12CA12CA2
:10349000412C512C3201892B89F5BFEFCB1ADB0A65
:1034A000EB0AFB0AED81FE817396FE83ED83B2CFBA
:1034B000C114D104E104F10429F7892B19F7ED8136
:1034C000FE81818992898F3F980709F029D5AD81C6
:1034D000BE8152963C922E925197D4CF8A0D9B1D5D
:1034E000DC018D919C91009709F040D4BFEF4B1AFD
:1034F0005B0A6B0A7B0AEDE0AE0EB11CAD81BE81AA
:103500008D919C91119712964C9150E070E060E083
:1035100044165506660677060CF328D4BECFCF9323
:10352000DF93EA0128DF811109C082E090E09983EE
:10353000888385EF9FEFDF91CF91089581E090E040
:103540000E947C0C81E090E09983888390E080E089
:10355000F2CF11DF1092B3031092B203089542E04C
:1035600050E066EC72E00C949A0CFF920F931F935C
:10357000CF93DF938A01EC01C60FD71FF980B9D230
:103580000897F816190671F068F082E090E0F801EB
:10359000918380838EEF9FEFDF91CF911F910F91E9
:1035A000FF9008956C817D818E819F814B810E9467
:1035B0002F0F811108C082E090E0F8019183808391
:1035C00084EF9FEFE9CFF9800E942A0F4F2D50E042
:1035D000BE01685F7F4F0E94892F89810E94990FE9
:1035E00081E090E0F8019183808390E080E0D4CF87
:1035F000DF92EF92FF920F931F93CF93DF938A0195
:10360000EC01C60FD71F0E942A0F7C01D98071D20E
:10361000DD2059F0029721E030E0D816190619F0A4
:1036200010F030E020E0232B79F482E090E0F80104
:10363000918380838EEF9FEFDF91CF911F910F9148
:10364000FF90EF90DF900895EF2841F482E090E042
:10365000F8019183808384EF9FEFEECFF9800E9481
:103660002A0F4F2D50E0BE016E5F7F4F0E94892FC1
:1036700089810E94990F81E090E0F8019183808315
:1036800090E080E0D9CF8FEA9AE19093BD038093D8
:10369000BC0308958091BC039091BD0308950895E3
:1036A000FC0111821082938382830895DB011D92B5
:1036B0001C92DC011296ED91FC911397718360834B
:1036C00013967C936E9312970895FC0180819181EB
:1036D000DB018D939C93A081B181109741F08D9176
:1036E0009C9191838083892B11F4F383E283089565
:1036F000FC0180819181DB018D939C93892B11F4D6
:1037000073836283718360830895FC011182108248
:10371000938382830895CF93DF931F921F92CDB737
:10372000DEB71A821982F894BE016F5F7F4F83EC77
:1037300093E0CBDF89819A81009709F017D38981C3
:103740009A81892B89F7BE016F5F7F4F87EC93E0E9
:10375000BCDF89819A81009709F008D389819A8119
:10376000892B89F778940F900F90DF91CF9108956E
:10377000CF93DF931F921F92CDB7DEB71A821982C3
:10378000F894BE016F5F7F4F8FEB93E09EDF8981DE
:103790009A81009709F0EAD289819A81892B89F769
:1037A00078940F900F90DF91CF91089581E0089564
:1037B00090E080E00895EF92FF920F931F93CF93D4
:1037C000DF931F921F92CDB7DEB71A8219828091C4
:1037D000BE0307EF1FEF8823A1F1F894BE016F5FCE
:1037E0007F4F87EC93E071DF789489819A81EE2492
:1037F000E394F12C892B51F4F894BE016F5F7F4F55
:1038000083EC93E062DF7894F12CE12C89819A813A
:103810000EEF1FEF0097A9F0FC014281538164E095
:1038200070E076D68C01892B61F0F89469817A81F9
:10383000C701880F991F880F991F8D539C4F58DF20
:103840007894C8010F900F90DF91CF911F910F9145
:10385000FF90EF9008950F931F93CF93DF9300D0C5
:103860001F92CDB7DEB71C821B821A82198280910B
:10387000BE0307EF1FEF8823C1F0AE014D5F5F4F1E
:1038800064E070E0CE010196B6D68C01892B69F414
:10389000E981FA818B819C8193838283F894698189
:1038A0007A818FEB93E002DF7894C8010F900F903C
:1038B0000F900F90DF91CF911F910F910895BBD77B
:1038C000049608958F929F92AF92BF92CF92DF920B
:1038D000EF92FF920F931F93CF93DF931F921F924C
:1038E000CDB7DEB71A821982BC016F5F7F4F63309C
:1038F000710598F0AA24AA94BA2CC5010F900F90D4
:10390000DF91CF911F910F91FF90EF90DF90CF90BB
:10391000BF90AF909F908F9008954115510551F33E
:10392000480159018A016C01CADF8815990511F710
:10393000E114F104F9F28E0D9F1DA816B906D0F21C
:103940008091BE038823F1F0F894B50164507109A9
:103950009701AE014F5F5F4FC8010496E1D65C014D
:10396000892B71F489819A81F80193838283C6013E
:10397000880F991F880F991FB8018D539C4F96DEB1
:103980007894BBCF87EFA82EBB24BA94B6CFAF9262
:10399000BF92CF92DF92EF92FF920F931F93CF933C
:1039A000DF931F921F92CDB7DEB71A821982892B3F
:1039B00009F047C06115710509F443C0411551056F
:1039C00009F43FC02115310509F43BC0011511056B
:1039D000C1F18091BE038823B9F179016A015B01CD
:1039E000F894BE016F5F7F4F8FEB93E06EDE7894AB
:1039F00089819A81009759F1DC0112966D917C9131
:103A0000A8010496A6D68C01E981FA81D501ED932F
:103A1000FC93828193810496F601918380834FDF2A
:103A2000D7018D939C93C8010F900F90DF91CF9198
:103A30001F910F91FF90EF90DF90CF90BF90AF90CC
:103A400008950FEF1FEFEFCF07EF1FEFECCF0EEF53
:103A50001FEFE9CFCF93DF93EC01672B71F4F4D61E
:103A60008C179D0760F0E7D62496C80FD91FE6D6BD
:103A70008C0F9D1FDF91CF910895E3D6F1CF90E099
:103A800080E0F8CF0F931F93CF93DF932091BE0375
:103A900021112BC08B01EC0183EC93E001DE87EC5C
:103AA00093E0FEDD8FEB93E0FBDD97D00097C1F450
:103AB000CBD670E060E0CEDF4BE152E062E070E038
:103AC00081D1009769F480911B0290911C02CED69F
:103AD000B801CE0103D5009719F421E02093BE036D
:103AE000DF91CF911F910F91089584EF9FEFF8CF51
:103AF000A8C6AAC6CF93DF93AAD6EC01892B11F4EE
:103B00000ADE36DECE01DF91CF910895CF93DF93A9
:103B10009ED6EC01892B09F4FEDDCE01DF91CF9119
:103B2000089580911B0290911C020895CF93DF931A
:103B30008091BE03D0E0C0E08823D1F09CD6EC0198
:103B4000892BB1F4E8DD14DE80911B0290911C02F8
:103B5000E7D1E8D2EC01892B59F483EC93E0D5DD71
:103B600087EC93E0D2DD8FEB93E0CFDD1092BE03C4
:103B7000CE01DF91CF910895EF92FF920F931F93A3
:103B8000CF93DF93EC017A018B010F5F1F4F0E9DE6
:103B9000A0010F9D500D1E9D500D112470E060E09E
:103BA0000E94922F90E080E0F0E0E0E02FEFE81636
:103BB000F90639F4DF91CF911F910F91FF90EF90AB
:103BC00008951A8219822883309711F0D283C18315
:103BD0000196FE01C00FD11FEACFCF92DF92EF9284
:103BE000FF920F931F93CF93DF9300ED14E00C7FB0
:103BF00043E050E06DE172E083E292E01CD48DE19D
:103C0000E82E82E0F82E93E2C92E92E0D92EC7E387
:103C1000D5E0D7014D915D917D01F60161917191E2
:103C20006F01198308835D834C835B834A837F83A1
:103C30006E839B012F5F3F4F249FC001259F900DF6
:103C4000349F900D1124998788870115110511F073
:103C5000C80192DF88859985080F191F2A96F3E21B
:103C6000EF16F2E0FF06A9F6EDECF3E080E091E05C
:103C7000DF019C011D9221503040E1F71092CC03EE
:103C80001092CB03109256051092550510925A05CA
:103C900010925905109258051092570510925C0524
:103CA00010925B0510925E0510925D051092600502
:103CB00010925F05109264051092630510926205E0
:103CC00010926105109266051092650510926805C4
:103CD0001092670510923405109233051092360544
:103CE0001092350590E080E0DF91CF911F910F9108
:103CF000FF90EF90DF90CF9008950097F1F0F89447
:103D0000A3E2B2E0E7E3F5E030E020E04D915D9121
:103D100048175907A8F0428153814115510581F098
:103D20008AE0829FF001839FF00D1124E95CFA4F35
:103D300080819181009759F4789490E080E0089513
:103D40002F5F3F4F3A962330310501F7F5CFDC0165
:103D500011966D917C917183608341505109538319
:103D60004283FC012193CF0178940895009749F193
:103D7000DC018E91853041F4E0913505F0913605F6
:103D80003097F9F0CD0119948530D8F4282F30E020
:103D9000F8948FEF8C938AE0829FF001839FF00D5F
:103DA0001124E95CFA4F8081918112969C938E9345
:103DB0001197B183A083828193810196938382833B
:103DC00078940895CF92DF92EF92FF920F931F9312
:103DD000CF93DF939C0180ED93E08C7F41155105DB
:103DE00009F49BC02115310509F497C061157105CF
:103DF00009F493C07A01AB01B9016D5F7F4F6C7F0D
:103E00009B012F5F3F4F249F8001259F100D349F02
:103E1000100D1124F8942091550530915605232B4F
:103E200059F420915D0530915E052115310569F148
:103E30002017310708F058C020915F0530916005C8
:103E4000232B91F420915D0530915E05820F931F25
:103E500020916705309168052115310509F441C0AD
:103E60002017310708F056C07894CFEFDFEF86EFC8
:103E70009FEFF701D183C083DF91CF911F910F9105
:103E8000FF90EF90DF90CF900895C3E0D0E0C09016
:103E9000CB03D090CC032DEF30E02C193D09201737
:103EA000310710F32AE02C9FF0012D9FF00D112413
:103EB000E95CFA4F91838083558344835383428323
:103EC0007783668311870087009709F055DE0C0D14
:103ED0001D1D1093CC030093CB03789490E080E0F9
:103EE000C8CFC4E0D0E0D3CFC3E0D0E02AE02C9F1D
:103EF000F0012D9FF00D1124E95CFA4F918380832E
:103F0000558344835383428377836683009729F3E1
:103F100033DEE3CFC4E0D0E0E9CF8FEF9FEFACCF4B
:103F20009C010397029708F069C0F89484E09AE036
:103F3000482F50E0241735070CF44DC091E08AE07B
:103F4000829FF001839FF00D1124E95CFA4F1182EA
:103F5000108215821482138212821782168299238C
:103F6000B1F18091550590915605892BA9F42091C6
:103F70005D0530915E052115310571F08091CB030F
:103F80009091CC03821B930B9093CC038093CB0333
:103F900010925E0510925D0580915F05909160051D
:103FA000892BA9F420916705309168052115310509
:103FB00071F08091CB039091CC03821B930B909373
:103FC000CC038093CB031092680510926705789418
:103FD00090E080E00895949FF001959FF00D1124EA
:103FE000E95CFA4F40815181452B31F44085518580
:103FF000452B11F481509CCF90E0A1CF8FEF9FEF24
:1040000008954115510549F1009739F16115710580
:1040100021F1F8942091330530913405232BB9F424
:104020002091350530913605232B89F49093340582
:10403000809333057093360560933505789425E0B9
:1040400030E090E080E0FA01318320830895789495
:104050002FEF3FEF86EF9FEFF6CF8FEF9FEF0895A3
:10406000059769F4F8941092340510923305109274
:10407000360510923505789490E080E008958FEF32
:104080009FEF08956115710519F4F0E0E0E011C0AB
:104090008530910581F4E0913305F0913405309736
:1040A000A1F3CB0101961995009779F3FC0185E006
:1040B0008193CF0108959C012350310922303105AD
:1040C00020F72AE0289FD001299FB00D1124A95C78
:1040D000BA4F2D913C911197232BB9F216962D9141
:1040E0003C9117972617370780F2F89412962D9176
:1040F0003C9113972115310529F0ED91FC91119711
:10410000309711F47894C1CF4181528111965C931C
:104110004E932150310913963C932E93129781931D
:104120007894C7CFEDECF4E086E6DF011D928A9526
:10413000E9F7EDECF3E080E091E0DF019C011D92F6
:1041400021503040E1F71092CC031092CB03E7E30B
:10415000F5E082E3DF011D928A95E9F7E3E3F5E0FC
:1041600084E0DF011D928A95E9F790E080E00895F0
:10417000CF93DF93C0912902D0912A02CF3FDC0771
:1041800059F422D490932A028093290297FF09C000
:10419000D0932A02C093290284EF9FEFDF91CF9141
:1041A000089590E080E0FACF8230910528F4809362
:1041B000690590E080E008958FEF9FEF08954F929A
:1041C0005F926F927F92AF92BF92CF92DF92EF9207
:1041D000FF920F931F93CF93DF931F921F92CDB740
:1041E000DEB71A821982009709F479C0611571054A
:1041F00009F475C02091290230912A0207EF1FEFC0
:104200002F3F3F4F09F445C06B015C01412C512CFD
:104210003201F12CE12C10E000E09E012F5F3F4FB6
:10422000A6014E195F09B5016E0D7F1D809129020F
:1042300090912A0228D4892B09F04BC089819A8158
:10424000009741F4E114F10429F420916905222337
:1042500009F442C0E80EF91EEC14FD04D0F480E825
:10426000481684E858068EE16806710420F560E07F
:1042700070E0CB010E941B2A2AE0420E511C611CF7
:10428000711C0A3F4FEF140721F0043F8FEF18070E
:10429000A1F4C8010F900F90DF91CF911F910F9162
:1042A000FF90EF90DF90CF90BF90AF907F906F9096
:1042B0005F904F90089501EF1FEF81E090E0013F84
:1042C0002FEF120711F090E080E0892B09F4A5CFC1
:1042D000E0CF04EF1FEFDDCF0AEF1FEFDACF0FEFD4
:1042E0001FEFD7CF4F925F926F927F92AF92BF92A4
:1042F000CF92DF92EF92FF920F931F93CF93DF93B2
:104300001F921F92CDB7DEB71A821982009709F467
:1043100079C06115710509F475C0209129023091A9
:104320002A0207EF1FEF2F3F3F4F09F445C06B01F3
:104330005C01412C512C3201F12CE12C10E000E009
:104340009E012F5F3F4FA6014E195F09B5016E0D0B
:104350007F1D8091290290912A024BD3892B09F06D
:104360004BC089819A81009741F4E114F10429F44A
:1043700020916905222309F442C0E80EF91EEC14CD
:10438000FD04D0F480E4481682E458068FE0680605
:10439000710420F560E070E0CB010E941B2A2AE046
:1043A000420E511C611C711C0E3F4FEF140721F08F
:1043B000043F8FEF1807A1F4C8010F900F90DF9111
:1043C000CF911F910F91FF90EF90DF90CF90BF9012
:1043D000AF907F906F905F904F90089502EF1FEF26
:1043E00081E090E0023F2FEF120711F090E080E0B3
:1043F000892B09F4A5CFE0CF04EF1FEFDDCF0EEF3F
:104400001FEFDACF0FEF1FEFD7CF809129029091E6
:104410002A028F3F980749F0CFD2892B49F48FEFBA
:104420009FEF90932A028093290290E080E0089504
:1044300084EF9FEF0895CF92DF92EF92FF920F9358
:104440001F93CF93DF9321E04115510509F020E040
:104450004150510921112CC0DC01FB01D12CC12C90
:1044600021E022C03FEFC31AD30A7D010D911D91B7
:10447000E701EA80FB80E016F106A8F42081318193
:10448000E280F380F182E08233832283ED90FC901E
:1044900011979D0122503109E901F982E8821196B4
:1044A0001C930E9320E03296C416D506D8F2D2CFD4
:1044B000DF91CF911F910F91FF90EF90DF90CF9000
:1044C0000895FC01680F791F90E080E0E617F70778
:1044D00009F408952191820F911DF8CF20916A056A
:1044E000211113C045DE009791F4109270051092CF
:1044F0006F0510926E0510926D0510926C0510926A
:104500006B0521E020936A05089584EF9FEF0895DD
:10451000AF92BF92CF92DF92EF92FF920F931F93D1
:10452000CF93DF93009709F460C04630510508F43B
:104530005CC020916A05C7EFDFEF222309F449C070
:104540008C01060F171FF801C080D180C114D1045F
:1045500009F44EC096012A5F3F4F4217530708F4F3
:1045600047C07C0180916F05909170059383828391
:10457000B6016C5F7F4F5801A60EB71EC801A1DFC0
:10458000F5019183808364E070E0C80118DEEC01DE
:10459000892BF9F481E090E007DEB601C8010496AA
:1045A0000EDEEC01892B91F462E070E0C50107DEBC
:1045B000EC01892B59F4C701D9DB80916F059091EB
:1045C000700501969093700580936F0590E080E0F0
:1045D000EBDDCE01DF91CF911F910F91FF90EF9016
:1045E000DF90CF90BF90AF900895CFEFDFEFF1CF86
:1045F000C9EFDFEFEECF6F927F928F929F92AF92D3
:10460000BF92CF92DF92EF92FF920F931F93CF93BF
:10461000DF9300D01F92CDB7DEB7009709F47AC0C0
:104620004115510509F476C020916A0507EF1FEF87
:10463000222309F44DC03A017B015C0164E070E083
:10464000CE0101964FDE8C01892B09F041C0098112
:104650001A810115110509F45AC0480186E0880E37
:10466000911CB701680D791D80912B0290912C024D
:1046700009DD6C01009709F450C0A70170E060E00B
:104680000E94922F89819A81AB81BC81EC0CFD1C28
:10469000F70181939193A193B1937F0181E090E021
:1046A00083DDB801C7011EDE892B31F562E070E0C1
:1046B000C701800F911F16DE8C01892BE9F490E071
:1046C00080E072DDF501D182C082F30191828082A7
:1046D000C8010F900F900F900F90DF91CF911F9115
:1046E0000F91FF90EF90DF90CF90BF90AF909F9091
:1046F0008F907F906F90089590E080E055DDF501F8
:1047000011821082F30111821082C6012FDB09EFA2
:104710001FEFDECF0FEF1FEFDBCF06EF1FEFD8CF7E
:104720000097A1F04115510589F02115310571F06F
:10473000F90136966E177F0748F0DC012D933C9304
:10474000DA01ED93FC9390E080E008958FEF9FEF06
:104750000895AF92BF92CF92DF92EF92FF920F93A4
:104760001F93CF93DF93009709F45FC04115510564
:1047700009F45BC06530710508F457C020916A05E3
:10478000C7EFDFEF222391F1DC01CD90DC90119790
:104790001296ED91FC9196012A5F3F4FC9EFDFEF32
:1047A0002617370719F5C0916B05D0916C05209736
:1047B00049F521E030E030936C0520936B057A01D8
:1047C0008C01F0936E05E0936D055601B4E0AB0EDD
:1047D000B11CB50176DE0A0D1B1DF8012081318167
:1047E0008217930729F5D701CD92DC92CE01DF9194
:1047F000CF911F910F91FF90EF90DF90CF90BF90DE
:10480000AF90089520916D0530916E052F5F3F4F59
:10481000CCEFDFEFE217F30790F2CBEFDFEF2E17CD
:104820003F0768F2D0E0C0E0CACFCFEFDFEFDECFC6
:10483000C3EFDFEFDBCF84E090E0089582E090E00B
:1048400008958CEF9FEF089580E290E00895109214
:10485000700510926F0510926E0510926D05109202
:104860006C0510926B0590E080E0089590932C0207
:1048700080932B02089580916A05882391F0C5DD0D
:10488000009789F41092700510926F0510926E05D2
:1048900010926D0510926C0510926B0510926A05CE
:1048A000089590E080E00895009749F06115710542
:1048B00031F0FC0111821082FB01118210820895F7
:1048C000F3CF26E030E040E855E260E070E090E0B1
:1048D00080E000C08130910569F01CF4892B39F02B
:1048E00008958230910549F0039751F008958EE7BD
:1048F00095E0FAC78BE196E0FCCF88EB96E0F9CF24
:1049000085E597E0F6CF1F920F920FB60F92112414
:104910000BB60F922F933F934F935F936F937F93B9
:104920008F939F93AF93BF93EF93FF938FE89DEF88
:104930009093250180932401BAD0FF91EF91BF910C
:10494000AF919F918F917F916F915F914F913F9127
:104950002F910F900BBE0F900FBE0F901F901895C8
:104960008FE89DEF9093250180932401A3E7B0E0A9
:104970008C918E7F8C93E0E2F1E080818C7F80834C
:10498000E1E2F1E08081877E8083808184608083A2
:1049900080818C7F80838C9181608C930895E3E784
:1049A000F0E0808190819E7F90838170089581E006
:1049B000089510927105089568EE73E080E090E02C
:1049C0003AD590E080E0089526E030E040E050E104
:1049D0006EE070E090E080E07DDF8EE795E0BAD693
:1049E000892B21F08EE795E0CFD6F7CF90E080E0DD
:1049F0000895CF92DF92EF92FF920F931F93CF9380
:104A0000DF936B017A01E901198218828EE795E044
:104A1000A1D6892B69F18601CC24C39482E0D82EDB
:104A200080917105811110C08EE795E0ADD6029797
:104A3000B9F7C0927105F801D1928F0188819981EF
:104A4000019699838883ECCF888199818E159F0583
:104A500078F48EE795E098D68F3F9807A9F3F80190
:104A600081938F0188819981019699838883ECCF06
:104A700090E080E0DF91CF911F910F91FF90EF9038
:104A8000DF90CF9008950F931F93CF93DF93EA01A8
:104A900089018EE795E00E94042FF801D183C0833D
:104AA00090E080E0DF91CF911F910F910895CF9218
:104AB000DF92EF92FF92CF93DF938091720591E0A6
:104AC000980F90937205882379F021E030E03093BD
:104AD00074052093730580937205DF91CF91FF9049
:104AE000EF90DF90CF9008957894C0915202D091CA
:104AF00053026E8D7F8D88A199A143D120E030E0D3
:104B000040E85FE4F4D16B017C016A8D7B8D8C8D74
:104B10009D8D37D19B01AC01C701B60199D005D15C
:104B20006B017C010E94C504B701A60190E080E002
:104B30000E943804F894809172058150CCCF0F9375
:104B40001F93CF93DF9310921C0810921B08A9D4D7
:104B5000B8DEC0915202D0915302198218826FEFD1
:104B60007FEFCB010E94BA0470E060E090E080E04B
:104B70000E943D03009709F03AC00E946C05F8942A
:104B80007894BE016A5D7F4F8A819B810E944003B9
:104B9000892B59F46FEF7FEFCB010E94CF030E9466
:104BA000B404882311F081E08AA7F894D9DE0E942A
:104BB000B704882311F080E008C00E94B40481117A
:104BC000FACF81E09AA59111F6CF80931B087894D3
:104BD0000E94770C8C01789480911B0881110CC085
:104BE0000E94FA050E949A04F89490E080E0DF9118
:104BF000CF911F910F9108950E9498040E94B704CD
:104C00008823D9F081E080931C0890911C0881E0F2
:104C1000911180E080931B0880911C088111BFDEF8
:104C20000130110529F40E94770C892B09F4C1DEAB
:104C30000E94770C8C01BBDECFCF0E94B40481119F
:104C4000E1CF81E09AA59111DECF80E0DCCF505812
:104C5000BB27AA270ED00DC1FED030F003D120F023
:104C600031F49F3F11F41EF4F3C00EF4E095E7FB1E
:104C7000E9C0E92F0FD180F3BA17620773078407E1
:104C8000950718F071F49EF527C10EF4E0950B2EF0
:104C9000BA2FA02D0B01B90190010C01CA01A0018E
:104CA0001124FF27591B99F0593F50F4503E68F1E9
:104CB0001A16F040A22F232F342F4427585FF3CF2A
:104CC000469537952795A795F0405395C9F77EF4FB
:104CD0001F16BA0B620B730B840BBAF09150A1F044
:104CE000FF0FBB1F661F771F881FC2F70EC0BA0FCA
:104CF000621F731F841F48F4879577956795B79552
:104D0000F7959E3F08F0B3CF9395880F08F0992749
:104D1000EE0F97958795089571D008F481E0089576
:104D200004D06894B111D9C00895BCD088F09F57C1
:104D300090F0B92F9927B751A0F0D1F0660F771FE7
:104D4000881F991F1AF0BA95C9F712C0B13081F0C7
:104D5000C3D0B1E00895C0C0672F782F8827B85F0F
:104D600039F0B93FCCF3869577956795B395D9F728
:104D70003EF490958095709561957F4F8F4F9F4F32
:104D80000895E89409C097FB3EF49095809570953E
:104D900061957F4F8F4F9F4F9923A9F0F92F96E987
:104DA000BB279395F695879577956795B795F111FC
:104DB000F8CFFAF4BB0F11F460FF1BC06F5F7F4F99
:104DC0008F4F9F4F16C0882311F096E911C07723AB
:104DD00021F09EE8872F762F05C0662371F096E8B4
:104DE000862F70E060E02AF09A95660F771F881F83
:104DF000DAF7880F9695879597F90895990F000827
:104E0000550FAA0BE0E8FEEF16161706E807F9079C
:104E1000C0F012161306E407F50798F0621B730B37
:104E2000840B950B39F40A2661F0232B242B252BB8
:104E300021F408950A2609F4A140A6958FEF811D5B
:104E4000811D089597F99F6780E870E060E00895FC
:104E50009FEF80EC089500240A9416161706180692
:104E60000906089500240A9412161306140605066E
:104E70000895092E0394000C11F4882352F0BB0FFF
:104E800040F4BF2B11F460FF04C06F5F7F4F8F4F62
:104E90009F4F089557FD9058440F551F59F05F3F9D
:104EA00071F04795880F97FB991F61F09F3F79F04C
:104EB00087950895121613061406551FF2CF4695CE
:104EC000F1DF08C0161617061806991FF1CF869550
:104ED0007105610508940895E894BB276627772734
:104EE000CB0197F908958ADF08F48FEF08950BD06E
:104EF000C0CFB1DF28F0B6DF18F0952309F0A2CFBC
:104F0000A7CF1124EACFC6DFA0F3959FD1F3950F69
:104F100050E0551F629FF001729FBB27F00DB11D3D
:104F2000639FAA27F00DB11DAA1F649F6627B00DCD
:104F3000A11D661F829F2227B00DA11D621F739FB6
:104F4000B00DA11D621F839FA00D611D221F749FC4
:104F50003327A00D611D231F849F600D211D822F0B
:104F6000762F6A2F11249F5750408AF0E1F0882352
:104F70004AF0EE0FFF1FBB1F661F771F881F91505F
:104F80005040A9F79E3F510570F05CCFA6CF5F3F20
:104F9000ECF3983EDCF3869577956795B795F79592
:104FA000E7959F5FC1F7FE2B880F911D969587951A
:104FB00097F908950895883008F075C0E82FF0E05B
:104FC000EE0FFF1FE35DFD4F7183608381508730DB
:104FD00008F03CC0E82FF0E08827EF50F84D8F4FE5
:104FE00077C72E28F82700280C2819283A284728A0
:104FF000809169008C7F482B40936900E89A08955E
:1050000080916900837F440F551F440F551F482B23
:1050100040936900E99A0895809169008F7C74E05B
:10502000440F551F7A95E1F7482B40936900EA9A9F
:105030000895809169008F7366E0440F551F6A954B
:10504000E1F7482B40936900EB9A089580916A003C
:105050008C7F482B40936A00EC9A089580916A00F7
:10506000837F440F551F440F551F482B40936A0000
:10507000ED9A089580916A008F7C24E0440F551FBB
:105080002A95E1F7482B40936A00EE9A08958091A3
:105090006A008F7396E0440F551F9A95E1F7482BED
:1050A00040936A00EF9A08951F920F920FB60F92E5
:1050B00011240BB60F922F933F934F935F936F93EF
:1050C0007F938F939F93AF93BF93EF93FF93E09161
:1050D0003102F09132021995FF91EF91BF91AF919A
:1050E0009F918F917F916F915F914F913F912F9100
:1050F0000F900BBE0F900FBE0F901F9018951F9230
:105100000F920FB60F9211240BB60F922F933F936D
:105110004F935F936F937F938F939F93AF93BF93BF
:10512000EF93FF93E0913302F09134021995FF91D0
:10513000EF91BF91AF919F918F917F916F915F910F
:105140004F913F912F910F900BBE0F900FBE0F907C
:105150001F9018951F920F920FB60F9211240BB645
:105160000F922F933F934F935F936F937F938F9300
:105170009F93AF93BF93EF93FF93E0913502F0912C
:1051800036021995FF91EF91BF91AF919F918F9149
:105190007F916F915F914F913F912F910F900BBE37
:1051A0000F900FBE0F901F9018951F920F920FB681
:1051B0000F9211240BB60F922F933F934F935F934F
:1051C0006F937F938F939F93AF93BF93EF93FF93CF
:1051D000E0913702F09138021995FF91EF91BF915C
:1051E000AF919F918F917F916F915F914F913F917F
:1051F0002F910F900BBE0F900FBE0F901F90189520
:105200001F920F920FB60F9211240BB60F922F938D
:105210003F934F935F936F937F938F939F93AF933E
:10522000BF93EF93FF93E0912D02F0912E02199519
:10523000FF91EF91BF91AF919F918F917F916F916E
:105240005F914F913F912F910F900BBE0F900FBE2A
:105250000F901F9018951F920F920FB60F92112466
:105260000BB60F922F933F934F935F936F937F9360
:105270008F939F93AF93BF93EF93FF93E0912F0290
:10528000F09130021995FF91EF91BF91AF919F91ED
:105290008F917F916F915F914F913F912F910F90DF
:1052A0000BBE0F900FBE0F901F9018951F920F927C
:1052B0000FB60F9211240BB60F922F933F934F937B
:1052C0005F936F937F938F939F93AF93BF93EF936E
:1052D000FF93E0913902F0913A021995FF91EF9115
:1052E000BF91AF919F918F917F916F915F914F91FE
:1052F0003F912F910F900BBE0F900FBE0F901F90FC
:1053000018951F920F920FB60F9211240BB60F92A1
:105310002F933F934F935F936F937F938F939F93BD
:10532000AF93BF93EF93FF93E0913B02F0913C0268
:105330001995FF91EF91BF91AF919F918F917F91BF
:105340006F915F914F913F912F910F900BBE0F90F6
:105350000FBE0F901F9018951F920F920FB60F92CD
:1053600011242F933F938F939F93AF93BF9380917B
:10537000760590917705A0917805B09179053091E7
:10538000750523E0230F2D3758F50196A11DB11D9A
:10539000209375058093760590937705A093780503
:1053A000B093790580917A0590917B05A0917C0559
:1053B000B0917D050196A11DB11D80937A05909352
:1053C0007B05A0937C05B0937D05BF91AF919F9124
:1053D0008F913F912F910F900FBE0F901F901895B6
:1053E00026E8230F0296A11DB11DD2CF3FB7F89436
:1053F00080917A0590917B05A0917C05B0917D0507
:1054000026B5A89B05C02F3F19F00196A11DB11D1F
:105410003FBFBA2FA92F982F8827BC01CD01620F5B
:10542000711D811D911D42E0660F771F881F991F16
:105430004A95D1F708958F929F92AF92BF92CF92E3
:10544000DF92EF92FF926B017C01D0DF4B015C0198
:10545000C114D104E104F104D9F003D5C7DF681900
:1054600079098A099B09683E73408105910580F39B
:1054700021E0C21AD108E108F10888EE880E83E025
:10548000981EA11CB11CC114D104E104F10431F730
:10549000FF90EF90DF90CF90BF90AF909F908F9054
:1054A0000895789484B5826084BD84B5816084BD9C
:1054B00085B5826085BD85B5816085BDEEE6F0E08D
:1054C000808181608083E1E8F0E0108280818260E9
:1054D0008083808181608083E0E8F0E0808181606A
:1054E0008083E1EBF0E0808184608083E0EBF0E09A
:1054F000808181608083E1E9F0E080818260808347
:10550000808181608083E0E9F0E080818160808338
:10551000E1EAF0E080818260808380818160808325
:10552000E0EAF0E0808181608083E1E2F1E0808167
:1055300082608083808181608083E0E2F1E080810D
:1055400081608083EAE7F0E08081846080838081ED
:105550008260808380818160808380818068808395
:105560001092C10008958150823108F059C0E82F8F
:10557000F0E08827E254F54D8F4FAAC4DE2AE22AD4
:10558000D02AD62ADA2A102BE52AEB2AEF2AF52A86
:10559000F92AFD2A032B072B102B0B2B112B152B74
:1055A000809180008F7780938000089580918000A3
:1055B0008F7DF9CF80918000877FF5CF84B58F777D
:1055C00084BD089584B58F7DFBCF8091B0008F7727
:1055D0008093B00008958091B0008F7DF9CF8091C5
:1055E00090008F77809390000895809190008F7D38
:1055F000F9CF80919000877FF5CF8091A0008F77C1
:105600008093A00008958091A0008F7DF9CF8091B4
:10561000A000877FF5CF809120018F7780932001B4
:105620000895809120018F7DF9CF80912001877F9F
:10563000F5CFCF93DF9390E0FC01E65DFE4F249120
:1056400080599E4FFC0184918823C9F090E0880F17
:10565000991FFC01E651FE4FA591B491FC01E05366
:10566000FE4FC591D49161110DC09FB7F8948C91F4
:10567000209582238C938881282328839FBFDF91E4
:10568000CF910895623051F49FB7F8943C91822FE6
:10569000809583238C93E8812E2BEFCF8FB7F894DE
:1056A000EC912E2B2C938FBFEACF1F93CF93DF93D8
:1056B000282F30E0F901EC51FF4F8491F901E65DAC
:1056C000FE4FD491F901E059FE4FC491CC23A1F0D3
:1056D000162F811148DFEC2FF0E0EE0FFF1FE05393
:1056E000FE4FA591B4918FB7F894EC91111108C0B9
:1056F000D095DE23DC938FBFDF91CF911F9108956A
:10570000DE2BF8CFCF93DF93282F30E0F901EC5157
:10571000FF4F8491F901E65DFE4FD491F901E05904
:10572000FE4FC491CC2399F081111DDFEC2FF0E0E6
:10573000EE0FFF1FEA54FE4FA591B491EC91ED23BB
:1057400081E090E009F480E0DF91CF91089580E05E
:1057500090E0FACFFC01918D228D892F90E0805C42
:105760009F4F821B91098F7399270895FC01918D9A
:10577000828D981731F0828DE80FF11D858D90E0B4
:1057800008958FEF9FEF0895FC01918D828D9817FA
:1057900061F0A28DAE0FBF2FB11D5D968C91928DE1
:1057A0009F5F9F73928F90E008958FEF9FEF089512
:1057B000FC01538D448D252F30E0842F90E0821B17
:1057C000930B541710F0CF96089501970895FC019C
:1057D000A48DA80FB92FB11DA35ABF4F2C91848D52
:1057E00090E001968F739927848FA689B7892C93AF
:1057F000A089B1898C91837080648C93938D848D02
:10580000981306C00288F389E02D80818F7D808304
:105810000895CF93DF93EC01888D8823B1F0AA8996
:10582000BB89E889F9898C9185FD03C0808186FD5B
:105830000CC00FB607FCF7CF8C9185FFF2CF8081AB
:1058400085FFEDCFCE01C3DFEACFDF91CF91089581
:10585000EF92FF920F931F93CF93DF93EC0181E0C0
:10586000888F9B8D8C8D98131AC0E889F989808167
:1058700085FF15C09FB7F894EE89FF896083E8899A
:10588000F98980818370806480839FBF81E090E08C
:10589000DF91CF911F910F91FF90EF900895F62E19
:1058A0000B8D10E00F5F1F4F0F731127E02E8C8DB3
:1058B0008E110BC00FB607FCFACFE889F9898081F9
:1058C00085FFF5CFCE0183DFF2CFEB8DEC0FFD2FFF
:1058D000F11DE35AFF4FF0829FB7F8940B8FEA89CE
:1058E000FB8980818062D0CFCF92DF92EF92FF92CE
:1058F0001F93CF93DF93EC016A017B01122FE8899C
:10590000F98982E08083C11481EED806E104F104B4
:1059100099F060E079E08DE390E0A7019601B6D2BE
:1059200021503109410951095695479537952795D9
:10593000211580E1380790F0E889F989108260E844
:1059400074E88EE190E0A7019601A0D221503109C0
:10595000410951095695479537952795EC85FD8561
:105960003083EE85FF852083188EEC89FD891083B6
:10597000EA89FB89808180618083EA89FB89808153
:1059800088608083EA89FB89808180688083EA89D6
:10599000FB8980818F7D8083DF91CF911F91FF9064
:1059A000EF90DF90CF9008951F920F920FB60F9255
:1059B00011240BB60F922F938F939F93EF93FF9326
:1059C000E0918E05F0918F058081E0919405F09132
:1059D000950582FD1DC09081809197058F5F8F7323
:1059E00020919805821741F0E0919705F0E0E25888
:1059F000FA4F958F80939705FF91EF919F918F912B
:105A00002F910F900BBE0F900FBE0F901F90189507
:105A10008081F2CF1F920F920FB60F9211240BB616
:105A20000F922F933F934F935F936F937F938F9337
:105A30009F93AF93BF93EF93FF938EE795E0C7DEFD
:105A4000FF91EF91BF91AF919F918F917F916F9156
:105A50005F914F913F912F910F900BBE0F900FBE12
:105A60000F901F901895EEE7F5E01382128288EEF2
:105A700093E0A0E0B0E084839583A683B78386EDAE
:105A800092E09183808385EC90E09587848784EC15
:105A900090E09787868780EC90E0918B808B81ECFB
:105AA00090E0938B828B82EC90E0958B848B86ECDC
:105AB00090E0978B868B118E128E138E148E089524
:105AC0001F920F920FB60F9211240BB60F922F93C5
:105AD0008F939F93EF93FF93E0912B06F0912C0609
