:1000000014C100000C94AF2F0C94DA2F0C9405301F
:100010000C9430300C945B300C9486300C94B130DE
:100020000C94DC3033C1000031C100002FC100004E
:100030002DC100002BC1000029C1000027C1000014
:1000400025C1000023C1000021C100001FC1000024
:100050001DC100001BC1000019C100000C94073134
:1000600015C100000C9403350C9439350FC1000004
:100070000DC100000BC1000009C1000007C1000054
:1000800005C1000003C1000001C10000FFC0000065
:100090000C948F350C94C535F9C00000F7C00000F2
:1000A000F5C00000F3C00000F1C00000EFC0000088
:1000B000EDC00000EBC00000E9C00000E7C0000098
:1000C000E5C00000E3C000000C94802B0C941B36AC
:1000D0000C945136DBC000000C94A7360C94DD362E
:1000E000D5C0000005A84CCDB2D44EB93836A9020F
:1000F0000C50B9918688083CA6AAAA2ABE00000026
:10010000803F00000A0B02090C0D0E0807030401D2
:1001100000000000000000000000000000000000DF
:1001200000000000000000000000000000001211AC
:1001300010000000000000000000000000000000AF
:10014000000000000000000001021020200808103C
:100150002040102040800201020108040201010237
:100160000408102040808040201008040201800410
:10017000020180402010080402010804020101026B
:10018000040810204080010204081020408005056A
:100190000505070508080808020202020A0A0808FD
:1001A000040404040101010101010101030303032B
:1001B00003030303040707070C0C0C0C0C0C0C0CBA
:1001C0000202020206060606060606060B0B0B0BCB
:1001D0000B0B0B0B000020002300260029002C0035
:1001E0002F00320000010000030106010901000098
:1001F0002200250028002B002E00310034000201CF
:100200000000050108010B01000021002400270067
:100210002A002D0030003300010100000401070115
:100220000A016235EE357A36063711241FBECFEF4C
:10023000D1E2DEBFCDBF00E00CBF13E0A0E0B2E032
:10024000E2EBFFE600E00BBF02C007900D92AE317B
:10025000B107D9F729E0AEE1B3E001C01D92A133A7
:10026000B207E1F711E0C5E1D1E000E006C0219757
:100270000109802FFE010E94A637C131D10780E01D
:100280000807A9F70E946E2C0C94D737B9CE6111DC
:1002900002C00C9448336130E1F362E0FACF662388
:1002A00019F061E00C94843360E0FCCFCF92DF92D0
:1002B000EF92FF92CF93882351F16A017B01CFEF38
:1002C000C80F20E030E0A901CB01B6010E94632DE8
:1002D00018168CF0C701B60190580E946C2D9B0136
:1002E000AC016C2F70E090E080E0CF91FF90EF9038
:1002F000DF90CF90B2C0C701B6010E94672D8C2F4E
:10030000CF91FF90EF90DF90CF900C940E32CF9171
:10031000FF90EF90DF90CF9008950F931F938B0184
:100320009C0183E036952795179507958A95D1F717
:10033000025E1C4F462F477021E030E0F90102C0F9
:10034000EE0FFF1F4A95E2F7AF01F8012081242349
:10035000CB010196211102C090E080E01F910F9126
:1003600008950F931F938B019C0183E03695279589
:10037000179507958A95D1F7677081E090E001C0E5
:10038000880F6A95EAF7F801E25EFC4F2081452B61
:1003900031F48095822380831F910F910895822BE1
:1003A000FACF2F923F924F925F926F927F928F92ED
:1003B0009F92AF92BF92CF92DF92EF92FF920F93F4
:1003C0001F93CF93DF93D62EC72E782E692E490127
:1003D0005A01280161E08D2D0E944833CD2DDC2D7E
:1003E0008E010F5F1F4FA8016D2D7C2D872D962D3F
:1003F000B8DF20E030E0A901C201B7010E944A2E17
:10040000181664F4C201B7010E946C2D2B01C501BE
:10041000B4010E946C2DA201CE0123D0C801DF914E
:10042000CF911F910F91FF90EF90DF90CF90BF90F1
:10043000AF909F908F907F906F905F904F903F9084
:100440002F900895882341F08150682F70E090E04C
:1004500080E050E040E085CF0895862FB9010C94EC
:100460000E329C01FC01EE5FFE4FE491E150E2315F
:10047000E0F4F0E08827E05CFD4F8F4F0C94A63746
:10048000520259025C027302880255029D02A902BF
:10049000AD02C402D902EE0205031A0355022F036E
:1004A00046035B0384B5806884BD60E0822F0C94B2
:1004B000843384B58062F8CF809180008C7F826025
:1004C0008093800080918100807E8061682B6093A2
:1004D000810050938700409386008091800080685F
:1004E00080938000E2CF809180008C7F8260809337
:1004F000800080918100807E8061682B6093810004
:100500005093870040938600809180008062E8CFFE
:10051000809180008C7F8260809380008091810038
:10052000807E8061682B60938100509387004093A8
:100530008600809180008860D3CF8091B000806871
:100540008093B0008091B100887F682B6093B100E8
:10055000ACCF8091B0008062F3CF809190008C7F0F
:1005600082608093900080919100807E8061682BF2
:100570006093910050939700409396008091900073
:1005800080688093900091CF809190008C7F8260F2
:100590008093900080919100807E8061682B6093B1
:1005A0009100509397004093960080919000806254
:1005B000E8CF809190008C7F826080939000809142
:1005C0009100807E8061682B60939100509397002A
:1005D00040939600809190008860D3CF8091A000D6
:1005E0008C7F82608093A0008091A100807E8061DA
:1005F000682B6093A1005093A7004093A6008091C0
:10060000A00080688093A00050CF8091A0008C7FD4
:1006100082608093A0008091A100807E8061682B21
:100620006093A1005093A7004093A6008091A00082
:100630008062E8CF8091A0008C7F82608093A000D0
:100640008091A100807E8061682B6093A10050930F
:10065000A7004093A6008091A0008860D3CF80912E
:1006600020018C7F82608093200180912101807E17
:100670008061682B609321015093270140932601EC
:10068000809120018068809320010FCF809120010C
:100690008C7F82608093200180912101807E806127
:1006A000682B60932101509327014093260180918C
:1006B00020018062E8CF809120018C7F826080934E
:1006C000200180912101807E8061682B609321014F
:1006D0005093270140932601809120018860D3CF59
:1006E000CF93DF93EC0170E060E06C177D070CF5B1
:1006F000072E000C880B990B0E949A2D20E030E009
:10070000A9010E94FF2C20E030E0A9010E94FF2CEB
:1007100020E030E040E450E40E94FF2C20E030E094
:1007200040E450E40E94FE2C0E94672D6F5F7F4FD3
:10073000DCCFDF91CF910895CF93DF938091370382
:10074000909138030E94B133EC0180913D03909168
:100750003E03C6DF8091390390913A030E94B13382
:10076000019771F480913B0390913C03219771F4C0
:10077000019690933C0380933B03DF91CF910895C2
:1007800080913B0390913C03CD2B91F30197F1CFE6
:10079000CF93DF9380912F03909130030E94B13368
:1007A000EC0180913503909136039ADF80913103FB
:1007B000909132030E94B133019771F48091330319
:1007C00090913403219771F40196909334038093B0
:1007D0003303DF91CF9108958091330390913403D7
:1007E000CD2B91F30197F1CFCF93DF938091270326
:1007F000909128030E94B133EC0180912D039091D8
:100800002E036EDF8091290390912A030E94B13359
:10081000019771F480912B0390912C03219771F42F
:10082000019690932C0380932B03DF91CF91089531
:1008300080912B0390912C03CD2B91F30197F1CF55
:10084000CF93DF9380913103909132030E94B133B3
:10085000EC01809135039091360342DF80912F03A4
:10086000909130030E94B133019771F4809133036A
:1008700090913403CD2B71F40196909334038093BF
:100880003303DF91CF910895809133039091340326
:10089000219791F30197F1CFCF93DF9380912903B3
:1008A00090912A030E94B133EC0180912D03909125
:1008B0002E0316DF80912703909128030E94B13305
:1008C000019771F480912B0390912C03CD2B71F43F
:1008D000019690932C0380932B03DF91CF91089581
:1008E00080912B0390912C03219791F30197F1CFE5
:1008F000CF93DF938091390390913A030E94B133F3
:10090000EC0180913D0390913E03EADE8091370334
:10091000909138030E94B133019771F480913B03A9
:1009200090913C03CD2B71F4019690933C038093FE
:100930003B03DF91CF91089580913B0390913C035D
:10094000219791F30197F1CF0F931F93CF93DF93EB
:100950008C01EC0183E0CC0FDD1F8A95E1F7C95DC6
:10096000DC4F798368835B834A838881998160E067
:100970000E9448338A819B8160E00E9448338881CD
:10098000998161E00E9484338A819B8161E00E94A9
:10099000843301301105D9F10230110509F466C024
:1009A000012B09F092C080912703909128030297B0
:1009B0008431910530F58B599D4FFC018081082EC3
:1009C000000C990B41E050E06CE474E00E94352F7C
:1009D0008091290390912A03029784319105A0F414
:1009E0008B599D4FFC018081082E000C990B41E032
:1009F00050E064EF73E0DF91CF911F910F910C9461
:100A0000352F8FEF9FEFDECF8FEF9FEFF0CF8091ED
:100A10002F039091300302978431910508F58B598B
:100A20009D4FFC018081082E000C990B41E050E0A5
:100A300060E274E00E94352F80913103909132037F
:100A400002978431910578F48B599D4FFC01808188
:100A5000082E000C990B41E050E068EC73E0CBCF1E
:100A60008FEF9FEFE3CF8FEF9FEFF5CF80913703AD
:100A70009091380302978431910508F58B599D4F69
:100A8000FC018081082E000C990B41E050E068E7E2
:100A900074E00E94352F8091390390913A030297B8
:100AA0008431910578F48B599D4FFC018081082E8B
:100AB000000C990B41E050E06CE973E09CCF8FEFA4
:100AC0009FEFE3CF8FEF9FEFF5CFDF91CF911F9196
:100AD0000F91089523E0880F991F2A95E1F7FC01F3
:100AE000E95DFC4F84819581089590E080E0089550
:100AF0000F931F93009709F489C06115710509F4DC
:100B000085C000912C0210912D0220912E0230916F
:100B10002F020E3F1F4F2F4F3F4F09F068C04FEF7E
:100B20005FEFBA0140932C0250932D0260932E0286
:100B300070932F0240912C0250912D0260912E0251
:100B400070912F02DC011296ED91FC9180819181D0
:100B5000A281B3818093450490934604A0934704F7
:100B6000B093480484819581A681B7818093410424
:100B700090934204A0934304B093440480859185EC
:100B8000A285B38580933D0490933E04A0933F04D7
:100B9000B093400484859585A685B78580933904F4
:100BA00090933A04A0933B04B0933C041092350414
:100BB0001092360410923704109238040E94640F89
:100BC00089E89FE09093400380933F039093420312
:100BD000809341030E94530E009731F421E030E0EE
:100BE00030934A04209349041F910F910895009176
:100BF0002C0210912D0220912E0230912F02DB0148
:100C00000D931D932D933C93139794CF8FEF9FEFEC
:100C1000EBCF8F929F92AF92BF92CF92DF92EF92E3
:100C2000FF921F93CF93DF934B015C0110914C0413
:100C300082E090E090934A048093490481149104E7
:100C4000A104B10441F480914C04811104C080914D
:100C50004B04C1E08111C0E0C12CD12C7601809100
:100C60004C04811106C080914B04811102C0CC2339
:100C7000D9F083E090E090934A0480934904CC2318
:100C800081F1CCE9DFEF111102C00E94EE12CE011A
:100C9000DF91CF911F91FF90EF90DF90CF90BF90A9
:100CA000AF909F908F9008956AE070E080E090E0B0
:100CB0000E94763180E1C80E87E2D81EE11CF11C4B
:100CC0008FEF88169806A806B80631F0C1E08C149C
:100CD0009D04AE04BF0408F0C0E080E00E94870ECF
:100CE000BECFD0E0C0E0CFCFCF92DF92EF92FF92A5
:100CF0000F931F93CF93DF938F3F910511F008F06F
:100D000050C02091490430914A042330310539F014
:100D10002091490430914A042130310531F424E016
:100D200030E030934A04209349046A017B01EC01CE
:100D300082309105A0F011E0AE01C701B601B2D733
:100D4000AB01BC01CE011123F9F0DF91CF911F91CE
:100D50000F91FF90EF90DF90CF900C9417158C01BE
:100D6000000F111F015C1C4FD8018D919C91892BA4
:100D700011F30E9421150297F1F6D801ED91FC9133
:100D8000CE011995182FD8CF0E94391590E080E038
:100D9000DF91CF911F910F91FF90EF90DF90CF9057
:100DA00008958FEF9FEFF4CF80E0B1C7CF93DF932B
:100DB00086E090E090934A04809349040E94E00EFC
:100DC000EC01EFE3F3E084E0DF011D928A95E9F79F
:100DD0000E94861210924A0410924904CE01DF91BB
:100DE000CF91089580914B04089580913404089523
:100DF00060932C0270932D0280932E0290932F0209
:100E000090E080E008952F923F924F925F926F9210
:100E10007F928F929F92AF92BF92CF92DF92EF928A
:100E2000FF920F931F93CF93DF93CDB7DEB7CB54D1
:100E3000D1090FB6F894DEBF0FBECDBF26967FAFA7
:100E40006EAF269728965FAF4EAF28973E8B2D8BBF
:100E50002C96FFAEEEAE2C97FB01E150F04CEE0F5E
:100E6000FF1FEE0FFF1FE80FF91F80809180A28007
:100E7000B3808F8A988EA98EBA8EB501A4014427BB
:100E800077FD439555276627772729964FAF2997F2
:100E9000F901E150F04CEE0FFF1FEE0FFF1F2896F7
:100EA000AEACBFAC2897EA0DFB1DC080D180E280BC
:100EB000F380CB8EDC8EED8EFE8EB701A60144272B
:100EC00077FD43955527662777272A964FAF2A97B0
:100ED000188B0F87F80130E020E02C96EEACFFACC9
:100EE0002C972E153F050CF43FC022969FAF8EAF76
:100EF00022971A8B098B312C212C812C912C540197
:100F000083948D829E82AF82B88626968EAC9FACEB
:100F10002697281439047CF129969FAC29972A96A4
:100F2000AFAC2A9730E020E041E050E060E070E0B4
:100F30009A10F5C1C55BDF4F0FB6F894DEBF0FBE48
:100F4000CDBFDF91CF911F910F91FF90EF90DF9078
:100F5000CF90BF90AF909F908F907F906F905F9059
:100F60004F903F902F9008951192119211921192EB
:100F70002F5F3F4FB2CF2296EEADFFAD229781910A
:100F80009191A191B1912296FFAFEEAF22978F88F8
:100F9000988CA98CBA8CB7FE23C04D815E816F817D
:100FA000788541505109610971095A016B01A81AEC
:100FB000B90ACA0ADB0AD601C50121E0CD80DE806C
:100FC000EF80F8848C159D05AE05BF0508F020E084
:100FD000822E912CB12CA12C8D829E82AF82B8865C
:100FE0005D01CC24DD24A8A2B9A2CAA2DBA29C0187
:100FF000AD01442755272CA33DA34EA35FA32C96F8
:10100000EEADFFAD2C97E219F3098D889E888E1600
:101010009F060CF4F4012896AEACBFAC289724963A
:10102000BFAEAEAE2497C988DA88DC8ACB8A1E862A
:101030001D86812C912C5401839489869A86AB86D7
:10104000BC86812C912C5401CD84DE84CE16DF0623
:1010500004F1F7FF02C0F0E0E0E0E20DF31D2C9692
:10106000EEACFFAC2C97EE15FF0554F4EE0FFF1F0E
:10107000EE0FFF1FE00FF11F80829182A282B382E8
:101080002FEF221A320AE989FA893496FA8BE98B12
:101090003CCF2496AEADBFAD2497CD90DD90ED90C2
:1010A000FD902496BFAFAEAF24972B8D3C8D4D8D18
:1010B0005E8D57FF22C089859A85AB85BC850197D7
:1010C000A109B109AC01BD014C195D096E097F0987
:1010D0006A017B0181E029853A854B855C85C216D2
:1010E000D306E406F50608F080E0482F50E070E0F3
:1010F00060E049875A876B877C87B70188279927E3
:1011000068A779A78AA79BA7EE24FF2428A139A165
:101110004AA15BA1C701B6010E9461372B013C01C6
:101120002CA13DA14EA15FA168A579A58AA59BA58B
:101130000E9461376CA77DA78EA79FA7AB89BC894A
:101140004D915D916D917D91BC8BAB8BDB01CA01A3
:10115000880D991DAA1DBB1D89839A83AB83BC830F
:1011600091E09F8F29813A814B815C812815390557
:101170004A055B0508F01F8E2CA13DA14EA15FA181
:10118000C701B6010E9461376B017C0189809A809A
:10119000AB80BC808C0C9D1CAE1CBF1C89829A82CB
:1011A000AB82BC8252019924882488AA99AAAAAA4F
:1011B000BBAA29813A814B815C81280D391D4A1DCA
:1011C0005B1D2CAB3DAB4EAB5FAB8CA49DA4AEA422
:1011D000BFA454019924882488AE99AEAAAEBBAEB0
:1011E000280D391D4A1D5B1D2CAF3DAF4EAF5FAFC3
:1011F000AB89BC8914972D933D934D935C931397C2
:1012000028A139A14AA15BA168A579A58AA59BA5BA
:101210000E9461379F8C690D711D811D911D2301F5
:1012200066247724460E571E681E791E2CA53DA500
:101230004EA55FA54A01AA24BB24840C951CA61CBC
:10124000B71C81E090E0A0E0B0E049815A816B8159
:101250007C814C155D056E057F0518F080E090E0FF
:10126000DC01880D991DAA1DBB1D41E050E060E026
:1012700070E088A899A8AAA8BBA8CCA8DDA8EEA869
:10128000FFA8C814D904EA04FB0418F040E050E0B9
:10129000BA01840F951FA61FB71F812C912C5401F2
:1012A0008394C8ACD9ACEAACFBAC2CAD3DAD4EAD33
:1012B0005FAD2C153D054E055F0518F0812C912C76
:1012C0005401880E991EAA1EBB1E4D855E854F5F78
:1012D0005F4F5E874D87B8CEEF85F889C190D1907A
:1012E000E190F190F88BEF87DB01CA010197A1092A
:1012F000B1098C199D09AE09BF0934978083918388
:10130000A283B383E1E084179507A607B70708F027
:10131000E0E04E2F50E070E060E02F5F3F4F2C96F2
:101320008EAC9FAC2C9728153905B4F203CE4F92A2
:101330005F926F927F928F929F92AF92BF92CF9265
:10134000DF92EF92FF920F931F93CF93DF9300D022
:1013500000D01F921F92CDB7DEB7C0900002D09090
:101360000102E0900202F0900302A7019601609151
:10137000ED087091EE088091EF089091F0080E94BE
:10138000632D882341F0C092ED08D092EE08E092E0
:10139000EF08F092F00890E080E09CDB409128029A
:1013A0005091290260912A0270912B024D835E8335
:1013B0006F837887092E000CAA0BBB0B89839A8355
:1013C000AB83BC8392E0E92EF12C0FE019E021E021
:1013D00030E0AE014F5F5F4F61E070E0CE010596F7
:1013E00012DDE0910E04F0910F042091140230916F
:1013F000150240911602509117026081718182811D
:1014000093810E944E2E2091180230911902409132
:101410001A0250911B020E94FF2C0E94B12E2091B3
:101420000C0230910D0240910E0250910F020E9469
:101430004E2E2091100230911102409112025091D3
:1014400013020E94FF2C6B017C018090040290909B
:101450000502A0900602B09007024090080250904A
:10146000090260900A0270900B02AC019B01C50159
:10147000B4010E94632D60E087FD0BC011E0A7015D
:101480009601C301B2010E94632D811101C010E0D9
:10149000612F88E00E944F01A7019601C301B201AC
:1014A0000E94632D60E0882351F011E0A7019601AE
:1014B000C501B4010E94632D87FF10E0612F8AE00F
:1014C0000E944F0165E070E080E090E00E948D0195
:1014D0008C01909308098093070920911C02309198
:1014E0001D0240911E0250911F02C701B6010E94C9
:1014F0004E2E4B015C01C0902002D0902102E09062
:101500002202F09023029B01AC01C701B6010E94A8
:10151000632D87FD12C0C0902402D0902502E09078
:101520002602F09027029401A501C701B6010E948E
:101530004A2E181614F064017501E894F7F820E0BB
:1015400030E04FE753E4C701B6010E94632D18163F
:1015500034F4C12CD12C8FE7E82E83E4F82EB701A8
:10156000A601C8010E9456016091F7037091F8032B
:101570008091F9039091FA030E94982D20E030E0C9
:1015800040E85FE40E944E2E6B017C016091F30302
:101590007091F4038091F5039091F6030E94982DC9
:1015A0009B01AC01C701B6010E94FF2C20E030E096
:1015B000A9010E94FF2C0E946C2DAB01BC0190E0A0
:1015C00080E092DB60910304709104048091050433
:1015D000909106040E94982D20E030E040E85FE4FE
:1015E0000E944E2E6B017C016091FF0370910004FC
:1015F00080910104909102040E94982D9B01AC01FE
:10160000C701B6010E94FF2C20E030E0A9010E9432
:10161000FF2C0E946C2DAB01BC0181E090E064DBEB
:10162000C090F303D090F403E090F503F090F6033C
:101630008FEFC81AD80AE80AF80AC092F303D092CA
:10164000F403E092F503F092F603C114D104E1042F
:10165000F10499F48091F7039091F803A091F903B4
:10166000B091FA030196A11DB11D8093F7039093E9
:10167000F803A093F903B093FA038090FB039090D2
:10168000FC03A090FD03B090FE0300910E041091A6
:101690000F046091F7037091F8038091F903909122
:1016A000FA030E94982DA50194010E944E2E20E07D
:1016B00030E040E85FE40E944E2E2B013C01C70160
:1016C000B6010E94982DA50194010E944E2E9B0107
:1016D000AC01C301B2010E94FF2CF8016083718349
:1016E000828393838091FF0390910004A091010471
:1016F000B09102040196A11DB11D8093FF03909348
:101700000004A0930104B0930204892B8A2B8B2B35
:1017100099F48091030490910404A0910504B09180
:1017200006040196A11DB11D809303049093040447
:10173000A0930504B093060428960FB6F894DEBF74
:101740000FBECDBFDF91CF911F910F91FF90EF9012
:10175000DF90CF90BF90AF909F908F907F906F90D1
:101760005F904F9008958F929F92AF92BF92DF92B9
:10177000EF92FF920F931F93CF93DF9384E090E05B
:1017800058D1E9E5F3E08FEBDF011D928A95E9F787
:101790008BE094E097838683CEE0D4E0D0939A03E5
:1017A000C09399030BEF13E0158B048BF093C403E4
:1017B000E093C303F583E48321E030E0DC012D9363
:1017C0003C9389E792E09387828720E134E0398374
:1017D000288340E050E060E87FEB4093070450939B
:1017E00008046093090470930A044AE057ED63E229
:1017F0007CE3D8014D935D936D937C931397C1EE79
:10180000D3E081E394E9A3EDBAEA88839983AA83BC
:10181000BB838FE69FE9AFE2B1ED8093E503909340
:10182000E603A093E703B093E80385ED95E1AAED05
:10183000B3E68093E9039093EA03A093EB03B0939C
:10184000EC0385EB9BEAA6E1B2E88093ED0390936D
:10185000EE03A093EF03B093F003ADE4B3E0B383E2
:10186000A283E3E4F3E01196FC93EE938BE892E01D
:1018700091838083938382839583848397838683F4
:101880009187808781EF93E015969C938E931497B0
:101890001396DC93CE93129717963C932E9316973C
:1018A000EFE0F9E088E0DF011D928A95E9F7C7EEE5
:1018B000D8E088E2FE0111928A95E9F7DD24D394FD
:1018C000DCA28091000290910102A0910202B091ED
:1018D00003028E839F83A887B987812C912C5401A2
:1018E000839489829A82AB82BC8243E050E062E0BA
:1018F00070E090E080E028D8DD821A8ADFA28B8A2F
:101900009C8AAD8ABE8A61E088E00E944701DF8A36
:101910001A86DEA28B869C86AD86BE8661E08AE052
:101920000E944701DF861A8EDDA28B8E9C8EAD8EC3
:10193000BE8EE12CF12C8701A801970165E070E0D3
:1019400080E090E00E94D10199A388A3DF8EDF910F
:10195000CF911F910F91FF90EF90DF90BF90AF90CC
:101960009F908F9008958091E708811103C081E0D6
:101970008093E7088091F908811103C081E080938A
:10198000F9088091F108811103C081E08093F1088A
:101990008091010981112EC081E08093010980911D
:1019A000020990910309A0910409B09105090197DA
:1019B000A105B105F9F4809106098823D9F065E005
:1019C00070E080E090E00E948D0190930809809380
:1019D000070940E050E0BA010E94560165E070E05E
:1019E00080E090E00E948D019093080980930709A0
:1019F0000C942202089560E070E080E89FE708956B
:101A000060E070E080E89FE7089560E070E080E8C3
:101A10009FEF089560E070E080E89FEF089560E038
:101A200070E080EC9FEF089560E070E080EC9FEF45
:101A30000895F5DF609323097093240980932509A5
:101A400090932609F1DF609317097093180980932A
:101A5000190990931A09CFDF60931F097093200929
:101A60008093210990932209CBDF60931B09709327
:101A70001C0980931D0990931E09C7DF60932709F5
:101A8000709328098093290990932A09C3DF6093F2
:101A90002B0970932C0980932D0990932E0908959A
:101AA0004F925F926F927F928F929F92AF92BF926E
:101AB000CF92DF92EF92FF920F931F93F894409092
:101AC0002404509025046090260470902704C09050
:101AD0001804D0901904E0901A04F0901B044130CF
:101AE000510509F0A4C09B01AC0124193509460930
:101AF000570929013A0100912004109121042091F5
:101B000022043091230448015901840C951CA61C21
:101B1000B71C80169106A206B306A0F400911C041F
:101B200010911D0420911E0430911F040F5F1F4F60
:101B30002F4F3F4F00931C0410931D0420931E044D
:101B400030931F048092200490922104A0922204DA
:101B5000B092230400911C0410911D0420911E04D6
:101B600030911F048092280490922904A0922A04A4
:101B7000B0922B0400932C0410932D0420932E0478
:101B800030932F04609324047093250480932604DB
:101B900090932704A0E1B7E2A30192010E94AE371F
:101BA0006C0D7D1D8E1D9F1D60931804709319048C
:101BB00080931A0490931B0400912C0210912D0223
:101BC00020912E0230912F020F3F1F4F2F4F3F4F7A
:101BD000F1F000912C0210912D0220912E023091F3
:101BE0002F020E3F1F4F2F4F3F4F89F0C0902C0206
:101BF000D0902D02E0902E02F0902F0221E08C1464
:101C00009D04AE04BF0408F420E0209334047894CB
:101C10001F910F91FF90EF90DF90CF90BF90AF900A
:101C20009F908F907F906F905F904F9008954B01A1
:101C30005C0184189508A608B708A3019201261B29
:101C4000370B480B590B6415750586059705D0F0C1
:101C500082169306A406B50640F420E030E0A90100
:101C600081149104A104B10491F4A0E1B7E20E94AF
:101C7000AE37A7019601261B370B480B590BCA013B
:101C8000B901C5CF82169306A406B50670F7A0E188
:101C9000B7E2A50194010E94AE376C0D7D1D8E1D2B
:101CA0009F1DB5CFFDCECF93DF9300D01F92CDB750
:101CB000DEB71C821B821A821982109230041092A5
:101CC00031041092320410923304BE016F5F7F4FD3
:101CD000CE0103960E94502B69817A818B819C8171
:101CE0000E943E24009761F4BE016F5F7F4FCE01DA
:101CF00003960E945C2B69817A818B819C812FD510
:101D00000F900F900F900F90DF91CF910895FF9259
:101D10000F931F93CF93DF93082F60E070E0CB0108
:101D20000E947631FF24F3940E942723EC01892B33
:101D300089F010E0CE3F8FEFD80769F0002361F102
:101D400060E070E0CB010E94763181E090E0892B69
:101D500059F322C011E026D5EC01892B21F0CE3FAA
:101D60008FEFD80759F711111EC011E0229609F420
:101D700010E00E94D722EC01892B21F0CE3F8FEF9B
:101D8000D807E1F6111111C011E0CE3F8FEFD8074F
:101D900009F410E001110BC0CE01DF91CF911F912A
:101DA0000F91FF90089511E0E4CF11E0F3CF60E0D0
:101DB00070E0CB010E9476311F25812F90E0C7CFC4
:101DC000CF93DF9380913404882321F060E070E0AA
:101DD000CB014DD636D6D0E0C0E0892B71F06AE059
:101DE00070E080E090E00E94763181E090DF29D6BB
:101DF0002196C03D27E0D20781F728D60E94922481
:101E000010924C0410924B04109245041092460418
:101E10001092470410924804109241041092420418
:101E2000109243041092440410923D0410923E0418
:101E300010923F04109240041092390410923A0418
:101E400010923B0410923C04109235041092360418
:101E500010923704109238044EEF5FEF6FEF7FEF70
:101E600040932C0250932D0260932E0270932F0208
:101E700010923404E8E2F4E028E0DF011D922A9594
:101E8000E9F710922404109225041092260410926F
:101E90002704109220041092210410922204109220
:101EA000230410921C0410921D0410921E04109220
:101EB0001F04109218041092190410921A04109220
:101EC0001B04DF91CF910895109258041092590489
:101ED00010925A0410925B0410925704809160048F
:101EE0009091610490935604809355041092540489
:101EF0001092530410924F04109250041092510407
:101F00001092520410925D0410925C0490E080E004
:101F10000895CF92DF92EF92FF920F931F93CF938A
:101F20008C01019709F055C0209160043091610443
:101F30008091550490915604409160045091610441
:101F400050935604409355042817390781F0109296
:101F500054041092530410924F04109250041092A3
:101F600051041092520410925D0410925C0480910E
:101F7000600490916104019761F580915C049091F7
:101F80005D04892B21F480913002811112C080916F
:101F90005C0490915D040197E1F480914F0490916D
:101FA0005004A0915104B09152040197A105B105CC
:101FB00081F410924F041092500410925104109228
:101FC00052041092300282E090E090935D0480937E
:101FD0005C048091600490916104019709F01CC138
:101FE00080917604909177048017910709F014C1CD
:101FF0008091720490917304A0917404B09175045F
:10200000009709F409C12091710421110DC040917C
:102010007204509173046091740470917504452B9F
:10202000462B472B09F4F8C020915C0430915D04E5
:102030002230310509F0F0C0209153042111ECC089
:10204000FC01C080D180E280F38080915704882316
:1020500009F4D3C08091630490916404892B09F43E
:10206000FEC0209163043091640481E02230310588
:1020700009F080E02091630430916404C1E02130D4
:10208000310549F02091630430916404C1E02230AD
:10209000310509F0C0E0882309F456C020916D0491
:1020A00030916E0440916F0450917004C701B601E5
:1020B0000E944A2E87FD14C020916D0430916E0459
:1020C00040916F04509170046091580470915904CC
:1020D00080915A0490915B040E94632D87FD22C079
:1020E00020916D0430916E0440916F045091700402
:1020F000C701B6010E944A2E181634F520916D04CE
:1021000030916E0440916F045091700460915804B6
:102110007091590480915A0490915B040E94632D40
:10212000811112C08091650490916604A0916704AA
:10213000B0916804892B8A2B8B2B19F481E0809352
:10214000540481E080935304CC2309F456C02091B9
:102150006D0430916E0440916F0450917004C7017A
:10216000B6010E94632D87FF14C020916D04309149
:102170006E0440916F045091700460915804709106
:10218000590480915A0490915B040E944A2E87FF63
:1021900022C020916D0430916E0440916F045091E3
:1021A0007004C701B6010E94632D811126C02091E1
:1021B0006D0430916E0440916F04509170046091F1
:1021C00058047091590480915A0490915B040E94C4
:1021D0004A2E181694F48091650490916604A0919B
:1021E0006704B0916804892B8A2B8B2B19F481E04A
:1021F0008093540481E08093530481E090915304D0
:10220000911180E080935704C0925804D0925904F1
:10221000E0925A04F0925B040130110509F067C1A5
:1022200080915C0490915D04892BD9F41092620432
:102230001092530480913002882379F082E090E07C
:1022400090935D0480935C041092300220916004AE
:102250003091610481E0232BE9F080E01BC081E034
:1022600009CF1092300280916204882349F01092C5
:10227000540410925D0410925C0410926204EDCF3D
:102280008091600490916104892BE1F08091530466
:102290001092530420915C0430915D04223031058A
:1022A00009F45EC088F42115310509F448C02130D5
:1022B000310509F4F3C010925404109253041092A3
:1022C000620438C081E0E6CF2330310509F4B1C0A3
:1022D0002430310581F740914F04509150046091B2
:1022E000510470915204411551056105710561F069
:1022F000415051096109710940934F0450935004B2
:10230000609351047093520440914F0450915004D3
:102310006091510470915204452B462B472BD9F400
:1023200020915E0430915F042130310509F046C0F0
:102330001092540410925D0410925C040CC08091C1
:102340003002882341F082E090E090935D04809316
:102350005C041092300210924D0480915404CEC05F
:102360008823C9F38091650490916604A091670465
:10237000B0916804181619061A061B060CF07DC0E9
:102380008091600490916104019709F076C080917A
:10239000650490916604A0916704B09168048093ED
:1023A0004F0490935004A0935104B093520483E0DF
:1023B00090E090935D0480935C04CDCF40916904DC
:1023C00050916A0460916B0470916C04452B462B0C
:1023D000472BA9F0109254048091690490916A04EB
:1023E000A0916B04B0916C0480934F0490935004BF
:1023F000A0935104B093520481E090E0DACF882397
:1024000099F08091310290913202A0913302B09103
:10241000340280934F0490935004A0935104B093DE
:10242000520484E090E0C5CF1092540482E090E022
:10243000C0CF80914F0490915004A0915104B0916D
:1024400052040097A105B10559F00197A109B109FE
:1024500080934F0490935004A0935104B09352047E
:1024600080914F0490915004A0915104B091520476
:10247000892B8A2B8B2B09F06ECF809131029091A2
:102480003202A0913302B0913402892B8A2B8B2B1C
:1024900009F44ECF81E080935404B3CF40914F04B0
:1024A00050915004609151047091520441155105AE
:1024B0006105710561F0415051096109710940934D
:1024C0004F04509350046093510470935204409110
:1024D0004F04509150046091510470915204452B67
:1024E000462B472B09F037CF8111C7CF9FCF809163
:1024F0004D04882309F431CF80914E04CF911F9170
:102500000F91FF90EF90DF90CF90089510925804B4
:102510001092590410925A0410925B0410925704BE
:1025200010925D0410925C041092560410925504AF
:10253000109277041092760410925404109253046F
:1025400010924F04109250041092510410925204B1
:1025500010924E0410924D04109272041092730463
:1025600010927404109275041092710410926D040C
:1025700010926E0410926F041092700488EE93E033
:10258000A0E0B0E08093310290933202A093330236
:10259000B09334021092690410926A0410926B0492
:1025A00010926C04109265041092660410926704F5
:1025B00010926804109264041092630481E0809386
:1025C0003002109262041092610410926004109222
:1025D0005F0410925E0490E080E0089580916004B2
:1025E00090916104892B19F580913002882351F074
:1025F00080916204811106C081E080934E04809333
:102600004D040895209162043091300281E090E001
:10261000332311F090E080E030E082239323892B74
:1026200021F010924E0481E0EACF10924D040895FB
:1026300082E090E0FA01918380838FEF9FEF08950D
:10264000CF93DF93EA01009711F00E94B22519821F
:10265000188290E080E0DF91CF910895DB01009730
:1026600019F48FEF8C9308952EEF2C93FC013F9675
:10267000EF30F10508F034C08827EE5BFC4E8F4F39
:102680000C94A6376E136C136A13681366136213E7
:10269000641360135E135C135913551351135713CE
:1026A000701380E311968C93089589E2FBCF82E248
:1026B000F9CF11961C92089583E2F4CF81E2F2CF14
:1026C00081E1F0CF87E2EECF8AE2ECCF80E1EACF82
:1026D00084E2E8CF88E2E6CF86E2E4CF81E3E2CF8E
:1026E00080E2E0CF809184049091850408959093D6
:1026F00085048093840408958091830408959091C3
:102700008304892B809383040895982F909580915A
:10271000830489238093830408958091820408951B
:10272000809180049091810408956115710559F09C
:10273000FB0130E020E070E060E02417350719F07D
:102740006115710511F0CB010895A081B181A81721
:10275000B90709F4BF012F5F3F4F3696EECF809146
:10276000860481111CC060D266D290937904809354
:1027700078040E94B01D0E94C21D90937D04809336
:102780007C040E943F220E94462290937B04809307
:102790007A0481E08093860490E080E0089584EFDD
:1027A0009FEF08958F929F92AF92BF92CF92DF9248
:1027B000EF92FF920F931F93CF93DF9300D000D03F
:1027C00000D01F92CDB7DEB71A86198618861F82F1
:1027D0001E821D821C821B821A82198280918604AD
:1027E00007EF1FEF882309F49CC08E010D5F1F4F78
:1027F0009E012B5F3F4FAE01495F5F4FBE01675F98
:102800007F4F90E080E00E94C3238C01009721F06D
:102810000596029708F0DBC029853A852115310518
:1028200009F402C1ED80FE804B815C81B701640F29
:10283000751F8F8198858617970708F4F5C0E20EFB
:10284000F31ED7019C91903C09F07FC042305105A6
:1028500008F47BC011968C914091840450918504BA
:10286000452B09F49CC0913F08F071C02CE1290F61
:102870002D3008F48BC02DE2290F203108F489C0D7
:10288000903C21F48150823008F483C088E3890FA2
:102890008B3008F481C09EE2C92E93E1D92EE8E185
:1028A000F3E16D817E81AE014F5F5F4F89859A852F
:1028B00019955C01C114D104A1F189809A80811419
:1028C000910479F18B819C818815990508F487C062
:1028D00010E000E04B815C8170E060E0C7010E9485
:1028E000D03701151105E9F449815A8169857A8546
:1028F0008D819E81680F791FC501F6011995E980C8
:10290000FA800D811E812F81388549855A856FEFA8
:102910007FEF81E090E00E945E238C01892B09F01B
:1029200056C0C8012A960FB6F894DEBF0FBECDBFC1
:10293000DF91CF911F910F91FF90EF90DF90CF909B
:10294000BF90AF909F908F90089580E085CF30E04A
:1029500020E0220F331FF901E858FB4F0190F0816E
:10296000E02D309709F497CF892F90E019950097C3
:1029700009F491CFDC011296ED91FC911397149616
:10298000CD90DC90309709F08CCF1FC021E030E073
:10299000E0CF22E030E0DDCF23E030E0DACFD12C11
:1029A000C12CE0E2F3E19F3F09F07BCFE091780496
:1029B000F0917904309721F4C90104EF1FEF0CC0A6
:1029C0008FEF90E019950097A9F604EF1FEF898526
:1029D0009A85009709F4A5CF0E94B225A2CF0E9444
:1029E0008D248C0189859A850E94B22570E060E073
:1029F000C4010E94262498878F830E945B239E83B4
:102A00008D836F8178856115710559F0C8010E9429
:102A10003E279A87898706EF1FEF892B09F058CF49
:102A200059CF08EF1FEF56CF08EF1FEFD0CF2091FF
:102A30008604222319F020E00C94C71D87EF9FEF36
:102A40000895809184049091850408950E944B22FA
:102A50000E94A521F5D0E8E7F4E088E0DF011D92AF
:102A60008A95E9F71092860490E080E008950C942E
:102A7000032021E040E050E0BA010C94C71D86E03D
:102A800090E0FA019183808390E080E0089547E030
:102A900050E06EE872E049CEDF92EF92FF920F9322
:102AA0001F93CF93DF938A01EC01C60FD71FE090ED
:102AB0008A04F0908B04D9800E947524D8161906D8
:102AC00078F082E090E0F801918380838EEF9FEFB1
:102AD000DF91CF911F910F91FF90EF90DF900895BC
:102AE000EF2841F482E090E0F8019183808384EF45
:102AF0009FEFEECF89818093890490E00196F801E1
:102B00009183808390E080E0E3CFCF93DF93EA016D
:102B10000E94B420882321F00E9482240E94B520C4
:102B200082E090E0998388838BEF9FEFDF91CF91D4
:102B30000895CF93DF93EB0186E0FB0111928A9514
:102B4000E9F78FEF8883D8DD8983E7DD8A83E8DDC5
:102B50009D838C83DF91CF910895CF93DF93EA011A
:102B60000E94B720811109C082E090E09983888398
:102B700085EF9FEFDF91CF91089590E080E0B7DD82
:102B800081E090E09983888390E080E0F3CF0F9319
:102B90001F93CF93DF93EA018C01060F171F0E944A
:102BA000B72081110BC082E090E09983888385EF84
:102BB0009FEFDF91CF911F910F910895F8018181CF
:102BC000823038F082E090E0998388838EEF9FEF27
:102BD000F0CF81E090E08BDD88E090E099838883FE
:102BE00090E080E0E6CFCF93DF930097D1F4EB0144
:102BF000FB01329686E0DF011D928A95E9F78FEF9F
:102C0000888385E089831A820E9475248B830E94C1
:102C100074249D838C8381E08E838F83DF91CF9199
:102C20000895DF91CF911ACD87E495E190938804C0
:102C30008093870408958091870490918804089573
:102C40001092880410928704089580918A049091CC
:102C50008B040895411105C0611571058105910529
:102C600061F060938A0470938B0480938C0490933A
:102C70008D0440938E0481E0089580E00895FF92D2
:102C80000F931F93CF93DF938A01EC01C60FD71FD9
:102C9000F9800E947524F816190668F082E090E029
:102CA000F801918380838EEF9FEFDF91CF911F9189
:102CB0000F91FF9008956C817D818E819F814B8162
:102CC000C9DF811108C082E090E0F8019183808320
:102CD00084EF9FEFEACF89818093890490E0019689
:102CE000F8019183808390E080E0DFCFCF93DF9382
:102CF000EA01FC01E60FF71F6481758186819781E7
:102D00004381A8DF811109C082E090E09983888324
:102D100084EF9FEFDF91CF91089581E090E0998358
:102D2000888390E080E0F6CFEAE8F4E040815181CA
:102D300062817381480F511D611D711D4083518354
:102D4000628373830895CF93C09189044C2F50E020
:102D500060918A0470918B0401960E94C7378C2F72
:102D6000E3DF10928904CF910895009799F4809140
:102D70008A0490918B042FEFFB012083892B59F05B
:102D80002091890430E02F5F3F4F2417350719F455
:102D9000CB01D9CF63CC0895009799F480918A0430
:102DA00090918B042FEFFB012083892B59F0209108
:102DB000890430E02F5F3F4F2417350719F4CB010A
:102DC000C2CF4CCC089523E1AC01249FC001259FC4
:102DD000900D1124E0919304F0919404E80FF91FF1
:102DE000238134812250310981E02230310508F0FD
:102DF00080E008950F931F93CF93DF930091950484
:102E000010919604D0E0C0E080E00C171D0749F453
:102E100091E0811190E0892FDF91CF911F910F9167
:102E200008958111F5CFCE01CEDF2196EECFA0918E
:102E30009304B0919404109729F120919504309156
:102E4000960482179307F0F453E1589F9001599F1D
:102E5000300D1124A20FB31FED91FC911197309703
:102E600089F012968C91681768F48DE0689FE00DE8
:102E7000F11D112480819181892B21F081E09281C3
:102E8000491708F080E008959C0143E1429FC0018A
:102E9000439F900D1124E0919304F0919404E80F66
:102EA000F91F8385823091F481E090E0658176811D
:102EB00040913502509136026417750711F490E085
:102EC00080E0892B19F081E0232B09F080E0089540
:102ED000FC01A081B1818DE0689FA00DB11D11247E
:102EE00013964D915C9185859685489F9001499FE9
:102EF000300D589F300D1124C9010196611103C096
:102F0000478144FD04960895EF92FF920F931F931B
:102F1000CF93DF93EA01FC01E60FF71F02811381D3
:102F2000E480F5804F2D6E2DC80181DF81110DC029
:102F300082E090E0998388838EEF9FEFDF91CF91BD
:102F40001F910F91FF90EF900895C8013CDF8823F7
:102F500039F082E090E09983888388EF9FEFEECF8D
:102F600010933C0200933B02E0923D02F0923E023D
:102F700081E090E09983888390E080E0DFCFCF927A
:102F8000DF92EF92FF920F931F93CF93DF937A011B
:102F9000EC01C60FD71FC0903B02D0903C020091BD
:102FA0003D0210913E02412F602FC60140DF81118A
:102FB00010C082E090E0F701918380838AEF9FEF59
:102FC000DF91CF911F910F91FF90EF90DF90CF9005
:102FD0000895C601F8DE882341F082E090E0F70111
:102FE0009183808388EF9FEFEBCF4C815D816E8171
:102FF0007F819A8189818F3F41F082E090E0F701E3
:10300000918380838EEF9FEFDBCFE3E1EC9D900116
:10301000ED9D300D1124E0919304F0919404E20FA2
:10302000F31F0190F081E02D2DE0029FE00DF11DD6
:1030300011240190F081E02D27E0129FE00DF11D99
:103040001124808391838B8182834383548365839E
:1030500076831F5F10933E0281E090E0F701918339
:10306000808390E080E0ACCFEF92FF920F931F93AC
:10307000CF93DF937A018C01060F171FC091930441
:10308000D0919404209781F021E030E0F801828112
:10309000938140919504509196048417950710F000
:1030A00030E020E0232B71F482E090E0F70191837F
:1030B00080838EEF9FEFDF91CF911F910F91FF9053
:1030C000EF90089543E1489F9001499F300D1124EE
:1030D000C20FD31F78DE882341F082E090E0F70131
:1030E0009183808388EF9FEFE6CFF80124813581BB
:1030F00020383105C8F687818111D6CF4181842FD0
:1031000090E08F7E009741F082E090E0F70191839C
:10311000808386EF9FEFCFCF4F833E832D83268121
:1031200028871986223010F421E0288721E030E03A
:10313000F70131832083BFCF88E090E0FA019183CB
:10314000808390E080E00895FB018FEF808381E130
:1031500081838FEF9FEF9383828380E890E0958354
:103160008483168217820895FB018FEF808391E09C
:10317000918382839383848384E3858381E090E0D9
:10318000978386830895DF92EF92FF920F931F93A8
:10319000CF93DF93EA01FC01E60FF71F81818130B5
:1031A00071F082E090E0998388838FEF9FEFDF9149
:1031B000CF911F910F91FF90EF90DF900895828142
:1031C0009381D4802581E680F7800091930410914B
:1031D00094040115110539F482E090E09983888305
:1031E0008CEF9FEFE4CF40919504509196048417A3
:1031F000950738F082E090E0998388838EEF9FEF07
:10320000D6CF892B39F082E090E09983888386EFCE
:103210009FEFCDCF8D2D8D7FB1F72130A1F781E0CC
:10322000D11006C091E0E916F10431F080E004C04D
:10323000E2E0EE16F104D0F3882329F390E080E079
:10324000C2DD882339F082E090E09983888388EF9B
:103250009FEFADCFF801D38681E08487F686E586BF
:10326000108A178681E090E09983888390E080E05F
:103270009ECF4CE050E068EB72E057CA8F929F926D
:10328000BF92CF92DF92EF92FF920F931F93CF9353
:10329000DF93EA01FC01E60FF71F8281938104812D
:1032A000B580E0919304F0919404309791F482E01A
:1032B00090E0998388838CEF9FEFDF91CF911F91EE
:1032C0000F91FF90EF90DF90CF90BF909F908F90E5
:1032D000089520919504309196048217930738F051
:1032E00082E090E0998388838EEF9FEFE6CF23E121
:1032F000289F6001299FD00C1124EC0DFD1DE0805A
:10330000F180E114F10499F28281081748F78DE009
:10331000089F80011124E00EF11EF7018081918148
:10332000892B29F6BB20E1F2F7E0BF9E4001112472
:10333000C4010E947925F70191838083E091930471
:10334000F0919404EC0DFD1D0190F081E02DE00F53
:10335000F11F80819181009739F482E090E0998398
:1033600088838DEF9FEFA9CFA40170E060E00E94F9
:10337000D0378091930490919404C80ED91EF60121
:1033800080819181080F191FF801B28281E090E0DD
:103390009983888390E080E090CFAF92BF92CF92E4
:1033A000DF92FF920F931F93CF93DF93EA01FC010B
:1033B000E60FF71F82819381F480009193041091AE
:1033C00094040115110581F482E090E099838883CB
:1033D0008CEF9FEFDF91CF911F910F91FF90DF90C6
:1033E000CF90BF90AF9008952091950430919604AE
:1033F0008217930738F082E090E0998388838EEFFC
:103400009FEFE8CF2FEF2F0D2C3FA8F723E1289F48
:103410006001299FD00C11240C0D1D1DF801808125
:103420009181892B89F6FDE0FF9E50011124C50191
:103430000E947925F80191838083E0919304F091B3
:103440009404EC0DFD1D80819181009739F482E098
:1034500090E0998388838DEF9FEFBCCFA50170E04A
:1034600060E00E94D037E0919304F0919404EC0D59
:10347000FD1DF28281E090E09983888390E080E0F6
:10348000A9CFCF92DF92EF92FF920F931F93CF932A
:10349000DF93860F971FFC010281138180919304B3
:1034A00090919404892B81F082E090E0FA0191835D
:1034B00080838CEF9FEFDF91CF911F910F91FF9051
:1034C000EF90DF90CF900895C801B0E0A0E00197A1
:1034D000A109B1098F3F9F4FA105B10540F082E0DE
:1034E00090E0FA01918380838EEF9FEFE4CF7A0121
:1034F00083E1809F6001819FD00C1124C6010E944E
:103500007925EC01009741F482E090E0F701918386
:1035100080838DEF9FEFCFCFA60170E060E00E9427
:10352000D037D0939404C0939304109396040093DF
:10353000950490E080E02FEF3FEF41E061E070E024
:103540008017910741F481E090E0F7019183808337
:1035500090E080E0B0CF3A8B298B1B864C877E872A
:103560006D87188A1F8601966396EACFEF92FF92C5
:103570001F93CF93DF93EC0110E0F12CE12C6A81D3
:103580001617B0F083E0689FB0011124AE014F5EC2
:103590005F4FC7010E94DE25009721F02FEF3FEF1C
:1035A0003A8B298BDF91CF911F91FF90EF90089577
:1035B000612FCE018DDC61E070E00E942624E816C8
:1035C000F90608F47C011F5FDACFF894209191048A
:1035D0003091920481E02115310509F080E0232B20
:1035E00009F0789408952F923F924F925F926F92D4
:1035F0007F928F929F92AF92BF92CF92DF92EF9283
:10360000FF920F931F93CF93DF933C01660E771EBB
:10361000F301828193814C01B12CA12CC0919304C0
:10362000D0919404209769F021E030E060919504F6
:10363000709196048617970710F030E020E0232B56
:10364000D1F482E090E0FA01918380838EEF9FEFC6
:10365000DF91CF911F910F91FF90EF90DF90CF906E
:10366000BF90AF909F908F907F906F905F904F90A2
:103670003F902F90089580923F0290924002A09236
:103680004102B092420263E1689F9001699F300D50
:103690001124C20FD31FF3018181833040F082E0F7
:1036A00090E0FA019183808386EF9FEFD1CF2A01CA
:1036B0002B813C81232BF1F4288139819F8191FF5B
:1036C0002EC0232B09F46FC0209198049A81422FB9
:1036D000490F5527551FBA0141E050E06138710587
:1036E00014F050E040E0452B09F45DC02A87920FAA
:1036F000909398048150823008F481C066DF88235B
:1037000009F4D8C0F3018181813009F48DC008F437
:103710007BC0823009F4C6C090E080E0ADC0232BAE
:1037200009F441C0209197049A81E22FE90FFF2705
:10373000FF1F41E050E0ED3FF10514F050E040E0A4
:10374000452B89F12A87920F90939704D3CFA081BC
:10375000B181A20FB31F11966C91060F111D019636
:10376000295F3F4F8417950794F38D859E85089FA9
:103770001001099F300C189F300C1124C114D10482
:10378000D1F48F8184FF17C00E947424F5E02F0EBE
:10379000311C21E08215930508F420E0A701435F66
:1037A0005F4F21110EC082E090E0F201918380838F
:1037B00087EF9FEF4DCF0E9474242FEF221A320A19
:1037C000E8CF88819981E80EF91EF70114830383FD
:1037D000FFEFCF1ADF0A7A018A818C151D0409F0E8
:1037E0000CF48CCFE881F981EE0DFF1D428150E091
:1037F00030E020E010E000E090E080E0B3CFF12C7A
:10380000E12CD12CC12CE8CF81E090E09C838B830C
:10381000F1DA882309F480CF81E090E00E947713E9
:1038200080E40E94851378CF89899A89019661F096
:1038300083E090E09C838B8382E090E00E9477138A
:1038400080E40E947F1368CF8D819E812091350294
:103850003091360282179307D1F46091390270914A
:103860003A02AE014F5E5F4F80913702909138026D
:103870000E94FD260097E1F2789422E030E0F20108
:1038800031832083892B99F08DEF9FEFE1CE89283A
:103890008A288B2869F6029758F6CE0167DE188AC7
:1038A0001F86E8CF82E090E09C838B8335CF90E049
:1038B00080E0CECE82E090E0F2019183808385EFBC
:1038C0009FEFC6CE8F929F92AF92BF92CF92DF9220
:1038D000EF92FF920F931F93CF93DF93EA018C0136
:1038E000060F171FF8018181833098F082E090E085
:1038F0009983888386EF9FEFDF91CF911F910F917E
:10390000FF90EF90DF90CF90BF90AF909F908F90FF
:1039100008958091930490919404892B61F081E043
:1039200090E02091950430919604232B11F490E0BF
:1039300080E0892B39F482E090E0998388838EEFD0
:103940009FEFDACF42DE882309F4E0C0F8018181DD
:10395000813009F496C0E8F0823099F42091950402
:1039600030919604E0919304F091940490E080E00B
:1039700041E050E02817390709F0BEC03BDA811159
:1039800017C0789481E090E09983888390E080E08C
:10399000B3CF2091950430919604E0919304F09177
:1039A000940490E080E041E050E02817390741F4AA
:1039B00081E090E00E94771380E40E948513E1CFBC
:1039C00063817481672B11F054834383019673964E
:1039D000ECCFE0919304F0919404E00FF11F238168
:1039E000348122303105D9F4218932892F3F3F4F6C
:1039F000B1F4258136814091350250913602241769
:103A0000350761F5AF014F5E5F4F609139027091EC
:103A10003A0280913702909138020E94FD26EFEF22
:103A2000CE1ADE0AEE0AFE0A0D5E1F4F4091950483
:103A30005091960470E060E0C416D506E606F706DD
:103A400044F5009731F27894892B09F49BCF82E0FA
:103A500090E0998388838DEF9FEF4ECFC114D104FE
:103A6000E104F104E1F622303105C8F6CF017EDD34
:103A7000E0919304F0919404E00FF11F108A1786EF
:103A8000CECF10E000E090E080E0C12CD12C760198
:103A9000CDCF0097C1F610E000E0812C912C5401AD
:103AA00083E0E82EF12C1AC0E0919304F091940485
:103AB000E00FF11F83819481029749F4F482E3823D
:103AC00082E090E00E94771380E40E947F13FFEF72
:103AD0008F1A9F0AAF0ABF0A0D5E1F4F809195048F
:103AE00090919604B0E0A0E088169906AA06BB065D
:103AF000DCF290E080E0A7CF6381748162307105D1
:103B000011F4548343830196739634CF82E090E09E
:103B10009983888385EF9FEFEFCE0097B9F48FEFFD
:103B2000FB01808320913F023091400243E1429F9C
:103B3000C001439F900D1124E0919304F0919404EF
:103B4000E80FF91F8285FB01818308950C942E13E1
:103B500088E090E0FA019183808390E080E008950E
:103B60001092920410929104E3E9F4E086E0DF0100
:103B70001D928A95E9F789E399E1909390048093E7
:103B80008F04089580918F049091900408952F924E
:103B90003F924F925F926F927F928F929F92AF92DD
:103BA000BF92CF92DF92EF92FF920F931F93CF932A
:103BB000DF93CDB7DEB72F970FB6F894DEBF0FBEF9
:103BC000CDBFF894E0919104F09192043196F09376
:103BD0009204E0939104789440909304509094045C
:103BE0004114510409F40CC2E0919504F09196043B
:103BF000EF2B09F405C22D8749875A876B877C878D
:103C000098878F831201B12CA12C10E000E08091E5
:103C1000950490919604A816B90618F4011511059B
:103C200029F1F894809191049091920401979093D6
:103C30009204809391047894C8012F960FB6F8945B
:103C4000DEBF0FBECDBFDF91CF911F910F91FF90CF
:103C5000EF90DF90CF90BF90AF909F908F907F902C
:103C60006F905F904F903F902F9008957101E418EE
:103C7000F508D10117968C91179781FD54C01396C2
:103C80008D919C911497039709F04DC015968D91D5
:103C90009C91EF81F8858E179F0709F044C0B5010C
:103CA00090E080E07FD48A83209193043091940443
:103CB0003D832C833D85332309F44CC04C815D81C9
:103CC000452B09F49AC18091950490919604A81609
:103CD000B90608F092C1C501D7D88823E9F06C81F4
:103CE0007D816E0D7F1D7D836C83DB011F968D9121
:103CF0009C91892B89F0D12CC12CF12CE12CAC8129
:103D0000BD8112968C9112978E151F0409F094F4C0
:103D100050961C921E921F972A81222321F0B501F2
:103D200090E080E041D43FEFA31AB30A43E1240EB0
:103D3000311C6DCFAC81BD81ED91FC91EC0DFD1D71
:103D4000858196810FD7BFEFEB1AFB0AEDE0CE0E0F
:103D5000D11CD5CFEC81FD81309709F44EC1809103
:103D6000950490919604A816B90608F046C1EE0D88
:103D7000FF1DFF87EE87C50187D88B83882339F124
:103D8000AE85BF851F968D919C915097019621E03D
:103D90001D964D915C918417950709F020E02E83C4
:103DA0001982712C10E000E0AE85BF8512968C91CF
:103DB000781608F45DC0EE85FF85878590890196A9
:103DC000658576850E947037908B8787A5CFB1E097
:103DD000BE83E6CF992493946BC08BD6F60196836D
:103DE000858382C0D601ED90FC90B7E06B9EE00C1D
:103DF000F11C1124F7016381748180818F3F61F18F
:103E000021E030E002C0220F331F8A95E2F7C9019A
:103E1000092E000CAA0BBB0BFB0140815181628172
:103E2000738184239523A623B72321E0892B8A2B32
:103E30008B2B09F420E0D4012C93D70111968C919F
:103E4000F60123853485820F932F911D880E991ECC
:103E50001486138663949BC0418150E0C4010E9484
:103E6000C737EBCF998206EF1FEFC5C01982C3C0D9
:103E7000F981F111A0CFEDE07E9E70011124AE8595
:103E8000BF85CD90DC90CE0CDF1C15D49D838C8338
:103E9000BB81BB2309F49ECF81E0EE85FF8527859A
:103EA0003089232B09F080E0982E882309F458C02C
:103EB000672D8E859F850CD8D60118969C938E937E
:103EC000179761E070E0C2D4EE85FF8521893289C1
:103ED0002F3F320709F481CFBC01C901CFD7D601EA
:103EE00016969C938E931597D60115968D919C915D
:103EF0001697009709F4B6CFEC81FD818E0F9F1FB6
:103F00001A969C938E931997AE85BF85ED91FC917F
:103F10001197EE0EFF1EF701218532851486138658
:103F20001A968C91870DD9018D93711016C0EE856C
:103F3000FF85878184FF11C049855A856B857C8503
:103F4000F9014183528363837483F70183859485E8
:103F50000496A80FB91F14861386F701B287A187AC
:103F6000D60115968D919C911697892B09F443C023
:103F7000EE85FF852581368180913502909136024C
:103F80002817390779F019968D909C90612CD601ED
:103F900012968C911297681608F424CF1A969C9268
:103FA0008E921997BE81BB2309F460CF61E070E067
:103FB000F601878190854AD4D6011796ED90FC9042
:103FC000189715964D915C91E1E0F0E0BA81BB2322
:103FD00011F0F0E0E0E00C811D819C01B501882723
:103FE00099278E1B9F0B6AD38C01892B21F0F60138
:103FF00085819681B7D57394D7CE0FEF1FEF8CCE06
:1040000010E000E00ECE2F923F924F925F926F929F
:104010007F928F929F92AF92BF92CF92DF92EF9258
:10402000FF920F931F93CF93DF938091930490910E
:10403000940410E000E0892BA9F0C7DA0AEF1FEF23
:10404000882381F02090950430909604C0919304C9
:10405000D0919404D12CC12C10E000E02C143D042C
:10406000A9F47894C801DF91CF911F910F91FF902F
:10407000EF90DF90CF90BF90AF909F908F907F9008
:104080006F905F904F903F902F900895C6010E94CF
:104090004417882309F18B819C810397E9F48F856C
:1040A0009889892BC9F0B60190E080E07BD221E0AD
:1040B00030E0882311F030E020E044245524421AF7
:1040C000530AB12CA12C912C812C8A8188151904BA
:1040D00009F038F4188A1F864FEFC41AD40A639681
:1040E000BDCFE881F981EA0DFB1D85819681892B81
:1040F000A1F161E070E087819085A8D33C01DBD21B
:104100008C01E881F981EA0DFB1D8185928525816D
:104110003681200F311FAC01421B530B9A0147819E
:104120005085421B530B70E060E00E94D037E8815D
:10413000F981EA0DFB1DE780F084458156819301EA
:10414000B601C201BBD28C01892B39F0E881F9811B
:10415000EA0DFB1D8581968105D55FEF851A950ACD
:104160008DE0A80EB11CB1CF30CA789408952F927B
:104170003F924F925F926F927F929F92AF92BF92C7
:10418000CF92DF92EF92FF920F931F93CF93DF9323
:1041900000D000D0CDB7DEB7009193041091940405
:1041A000992493940115110509F43EC0A09095043B
:1041B000B09096040ADA982E8823B1F110929404F4
:1041C0001092930410929604109295041092970402
:1041D000109298048FEF9FEFDC0180933F02909341
:1041E0004002A0934102B093420278947FD31E8391
:1041F0000D83C12CD12C7601C501B0E0A0E08983EC
:104200009A83AB83BC8322242A94322C89819A819D
:10421000AB81BC81C816D906EA06FB06F4F0C801DA
:10422000A1D480E40E948513892D26960FB6F894B8
:10423000DEBF0FBECDBFDF91CF911F910F91FF90D9
:10424000EF90DF90CF90BF90AF909F907F906F9056
:104250005F904F903F902F900895AD81BE8115964D
:104260008D919C91169720913502309136028217DC
:104270009307D1F451968D919C91EED5ED81FE81FD
:1042800080819181B12CA12C412C512C3201892BA0
:1042900089F5BFEFCB1ADB0AEB0AFB0AED81FE8141
:1042A0007396FE83ED83B2CFC114D104E104F1040F
:1042B00029F7029718F7ED81FE81818992898F3F56
:1042C000980709F029D5AD81BE8152963C922E9275
:1042D0005197D4CF8A0D9B1DDC018D919C91009745
:1042E00009F040D4BFEF4B1A5B0A6B0A7B0AEDE082
:1042F000AE0EB11CAD81BE818D919C91119712962D
:104300004C9150E070E060E0441655066606770672
:104310000CF328D4BECFCF93DF93EA0128DF8111BD
:1043200009C082E090E09983888385EF9FEFDF9159
:10433000CF91089581E090E00E94771381E090E0B2
:104340009983888390E080E0F2CF11DF109290048F
:1043500010928F04089542E050E060E073E00C9406
:104360009513FF920F931F93CF93DF938A01EC0174
:10437000C60FD71FF980B9D20897F816190671F041
:1043800068F082E090E0F801918380838EEF9FEFE8
:10439000DF91CF911F910F91FF9008956C817D81E6
:1043A0008E819F814B810E942A16811108C082E074
:1043B00090E0F8019183808384EF9FEFE9CFF9804B
:1043C0000E9425164F2D50E0BE01685F7F4F0E946E
:1043D000C73789810E94941681E090E0F8019183AB
:1043E000808390E080E0D4CFDF92EF92FF920F9332
:1043F0001F93CF93DF938A01EC01C60FD71F0E9452
:1044000025167C01D98071D2DD2059F0029721E078
:1044100030E0D816190619F010F030E020E0232B18
:1044200079F482E090E0F801918380838EEF9FEF32
:10443000DF91CF911F910F91FF90EF90DF90089542
:10444000EF2841F482E090E0F8019183808384EFCB
:104450009FEFEECFF9800E9425164F2D50E0BE0150
:104460006E5F7F4F0E94C73789810E94941681E05A
:1044700090E0F8019183808390E080E0D9CF8BEACF
:1044800091E290939A0480939904089580919904FD
:1044900090919A0408950895FC01118210829383EB
:1044A00082830895DB011D921C92DC011296ED912E
:1044B000FC9113977183608313967C936E9312978C
:1044C0000895FC0180819181DB018D939C93A081F3
:1044D000B181109741F08D919C9191838083892BBC
:1044E00011F4F383E2830895FC0180819181DB0163
:1044F0008D939C93892B11F4738362837183608302
:104500000895FC0111821082938382830895CF93D2
:10451000DF931F921F92CDB7DEB71A821982F894EB
:10452000BE016F5F7F4F80EA94E0CBDF89819A8183
:10453000009709F017D389819A81892B89F7BE01E9
:104540006F5F7F4F84EA94E0BCDF89819A81009796
:1045500009F008D389819A81892B89F778940F9083
:104560000F90DF91CF910895CF93DF931F921F9209
:10457000CDB7DEB71A821982F894BE016F5F7F4F04
:104580008CE994E09EDF89819A81009709F0EAD254
:1045900089819A81892B89F778940F900F90DF9108
:1045A000CF91089581E0089590E080E00895EF9222
:1045B000FF920F931F93CF93DF931F921F92CDB75C
:1045C000DEB71A82198280919B0407EF1FEF8823C0
:1045D000A1F1F894BE016F5F7F4F84EA94E071DF30
:1045E000789489819A81EE24E394F12C892B51F4FB
:1045F000F894BE016F5F7F4F80EA94E062DF7894A9
:10460000F12CE12C89819A810EEF1FEF0097A9F020
:10461000FC014281538164E070E076D68C01892BE5
:1046200061F0F89469817A81C701880F991F880F1A
:10463000991F80569B4F58DF7894C8010F900F90B8
:10464000DF91CF911F910F91FF90EF9008950F93FD
:104650001F93CF93DF9300D01F92CDB7DEB71C829C
:104660001B821A82198280919B0407EF1FEF882317
:10467000C1F0AE014D5F5F4F64E070E0CE01019686
:10468000B6D68C01892B69F4E981FA818B819C81F2
:1046900093838283F89469817A818CE994E002DFC4
:1046A0007894C8010F900F900F900F90DF91CF91E9
:1046B0001F910F910895BBD7049608958F929F92F2
:1046C000AF92BF92CF92DF92EF92FF920F931F9320
:1046D000CF93DF931F921F92CDB7DEB71A82198254
:1046E000BC016F5F7F4F6330710598F0AA24AA94D4
:1046F000BA2CC5010F900F90DF91CF911F910F91B0
:10470000FF90EF90DF90CF90BF90AF909F908F90F1
:1047100008954115510551F3480159018A016C0171
:10472000CADF8815990511F7E114F104F9F28E0D2D
:104730009F1DA816B906D0F280919B048823F1F042
:10474000F894B501645071099701AE014F5F5F4F56
:10475000C8010496E1D65C01892B71F489819A81A4
:10476000F80193838283C601880F991F880F991FD0
:10477000B80180569B4F96DE7894BBCF87EFA82E6A
:10478000BB24BA94B6CFAF92BF92CF92DF92EF9292
:10479000FF920F931F93CF93DF931F921F92CDB77A
:1047A000DEB71A821982892B09F047C0611571059D
:1047B00009F443C04115510509F43FC021153105E5
:1047C00009F43BC001151105C1F180919B048823B8
:1047D000B9F179016A015B01F894BE016F5F7F4F07
:1047E0008CE994E06EDE789489819A81009759F182
:1047F000DC0112966D917C91A8010496A6D68C01DD
:10480000E981FA81D501ED93FC938281938104962D
:10481000F601918380834FDFD7018D939C93C8016C
:104820000F900F90DF91CF911F910F91FF90EF901C
:10483000DF90CF90BF90AF9008950FEF1FEFEFCFB5
:1048400007EF1FEFECCF0EEF1FEFE9CFCF93DF9312
:10485000EC01672B71F4F4D68C179D0760F0E7D656
:104860002496C80FD91FE6D68C0F9D1FDF91CF91DC
:104870000895E3D6F1CF90E080E0F8CF0F931F9337
:10488000CF93DF9320919B0421112BC08B01EC016E
:1048900080EA94E001DE84EA94E0FEDD8CE994E0B5
:1048A000FBDD97D00097C1F4CBD670E060E0CEDF9F
:1048B00043E452E062E070E081D1009769F48091B6
:1048C000430290914402CED6B801CE0103D50097A1
:1048D00019F421E020939B04DF91CF911F910F9158
:1048E000089584EF9FEFF8CFA8C6AAC6CF93DF93B1
:1048F000AAD6EC01892B11F40ADE36DECE01DF9157
:10490000CF910895CF93DF939ED6EC01892B09F4C4
:10491000FEDDCE01DF91CF91089580914302909109
:1049200044020895CF93DF9380919B04D0E0C0E0D0
:104930008823D1F09CD6EC01892BB1F4E8DD14DE9C
:104940008091430290914402E7D1E8D2EC01892B97
:1049500059F480EA94E0D5DD84EA94E0D2DD8CE974
:1049600094E0CFDD10929B04CE01DF91CF910895AA
:10497000EF92FF920F931F93CF93DF93EC017A0195
:104980008B010F5F1F4F0E9DA0010F9D500D1E9DAF
:10499000500D112470E060E00E94D03790E080E07C
:1049A000F0E0E0E02FEFE816F90639F4DF91CF915F
:1049B0001F910F91FF90EF9008951A82198228831A
:1049C000309711F0D283C1830196FE01C00FD11F31
:1049D000EACFCF92DF92EF92FF920F931F93CF9384
:1049E000DF9305EC15E00C7F43E050E065E472E0F6
:1049F0008BE492E01CD485E4E82E82E0F82E9BE460
:104A0000C92E92E0D92ECCE2D6E0D7014D915D912E
:104A10007D01F601619171916F01198308835D83B6
:104A20004C835B834A837F836E839B012F5F3F4F61
:104A3000249FC001259F900D349F900D11249987CC
:104A400088870115110511F0C80192DF88859985C5
:104A5000080F191F2A96FBE4EF16F2E0FF06A9F6ED
:104A6000EAEAF4E088E191E0DF019C011D92215027
:104A70003040E1F71092A9041092A80410924B065E
:104A800010924A0610924F0610924E0610924D0652
:104A900010924C0610925106109250061092530636
:104AA0001092520610925506109254061092590612
:104AB00010925806109257061092560610925B06F6
:104AC00010925A0610925D0610925C06109229060A
:104AD0001092280610922B0610922A0690E080E091
:104AE000DF91CF911F910F91FF90EF90DF90CF90CA
:104AF00008950097F1F0F894ABE4B2E0ECE2F6E050
:104B000030E020E04D915D9148175907A8F04281AF
:104B100053814115510581F08AE0829FF001839F06
:104B2000F00D1124E45DF94F80819181009759F4D3
:104B3000789490E080E008952F5F3F4F3A962330BD
:104B4000310501F7F5CFDC0111966D917C917183F0
:104B500060834150510953834283FC012193CF016B
:104B600078940895009749F1DC018E91853041F4E5
:104B7000E0912A06F0912B063097F9F0CD011994B7
:104B80008530D8F4282F30E0F8948FEF8C938AE0AA
:104B9000829FF001839FF00D1124E45DF94F808125
:104BA000918112969C938E931197B183A0838281F9
:104BB000938101969383828378940895CF92DF92B4
:104BC000EF92FF920F931F93CF93DF939C018DEA97
:104BD00094E08C7F4115510509F49BC021153105E6
:104BE00009F497C06115710509F493C07A01AB010E
:104BF000B9016D5F7F4F6C7F9B012F5F3F4F249FFB
:104C00008001259F100D349F100D1124F8942091E0
:104C10004A0630914B06232B59F4209152063091CD
:104C200053062115310569F12017310708F058C0E6
:104C30002091540630915506232B91F42091520671
:104C400030915306820F931F20915C0630915D06D0
:104C50002115310509F441C02017310708F056C06D
:104C60007894CFEFDFEF86EF9FEFF701D183C0831A
:104C7000DF91CF911F910F91FF90EF90DF90CF9038
:104C80000895C3E0D0E0C090A804D090A90425E125
:104C900031E02C193D092017310710F32AE02C9F31
:104CA000F0012D9FF00D1124E45DF94F9183808375
:104CB00055834483538342837783668311870087B8
:104CC000009709F055DE0C0D1D1D1093A9040093EB
:104CD000A804789490E080E0C8CFC4E0D0E0D3CFBF
:104CE000C3E0D0E02AE02C9FF0012D9FF00D1124AD
:104CF000E45DF94F918380835583448353834283DA
:104D000077836683009729F333DEE3CFC4E0D0E0F6
:104D1000E9CF8FEF9FEFACCF9C010397029708F08C
:104D200069C0F89484E09AE0482F50E024173507D2
:104D30000CF44DC091E08AE0829FF001839FF00D5A
:104D40001124E45DF94F11821082158214821382BE
:104D50001282178216829923B1F180914A069091AE
:104D60004B06892BA9F42091520630915306211548
:104D7000310571F08091A8049091A904821B930BD6
:104D80009093A9048093A80410925306109252069F
:104D90008091540690915506892BA9F420915C06C8
:104DA00030915D062115310571F08091A804909134
:104DB000A904821B930B9093A9048093A8041092DA
:104DC0005D0610925C06789490E080E00895949FD0
:104DD000F001959FF00D1124E45DF94F4081518160
:104DE000452B31F440855185452B11F481509CCFE2
:104DF00090E0A1CF8FEF9FEF08954115510549F144
:104E0000009739F16115710521F1F8942091280678
:104E100030912906232BB9F420912A0630912B06D4
:104E2000232B89F4909329068093280670932B06F0
:104E300060932A06789425E030E090E080E0FA0163
:104E400031832083089578942FEF3FEF86EF9FEF13
:104E5000F6CF8FEF9FEF0895059769F4F8941092BD
:104E600029061092280610922B0610922A06789492
:104E700090E080E008958FEF9FEF08956115710530
:104E800019F4F0E0E0E011C08530910581F4E09183
:104E90002806F09129063097A1F3CB0101961995C8
:104EA000009779F3FC0185E08193CF0108959C017F
:104EB000235031092230310520F72AE0289FD00104
:104EC000299FB00D1124A45DB94F2D913C911197EC
:104ED000232BB9F216962D913C9117972617370779
:104EE00080F2F89412962D913C911397211531057B
:104EF00029F0ED91FC911197309711F47894C1CF7E
:104F00004181528111965C934E9321503109139641
:104F10003C932E93129781937894C7CFE2ECF5E0FF
:104F200086E6DF011D928A95E9F7EAEAF4E088E176
:104F300091E0DF019C011D9221503040E1F7109279
:104F4000A9041092A804ECE2F6E082E3DF011D92CE
:104F50008A95E9F7E8E2F6E084E0DF011D928A95A0
:104F6000E9F790E080E00895CF93DF93C09151027C
:104F7000D0915202CF3FDC0759F423D490935202D0
:104F80008093510297FF09C0D0935202C0935102FF
:104F900084EF9FEFDF91CF91089590E080E0FACF0A
:104FA0008230910528F480935E0690E080E00895B9
:104FB0008FEF9FEF08954F925F926F927F92AF9223
:104FC000BF92CF92DF92EF92FF920F931F93CF93F6
:104FD000DF931F921F92CDB7DEB71A821982009716
:104FE00009F479C06115710509F475C02091510269
:104FF0003091520207EF1FEF2F3F3F4F09F445C09A
:105000006B015C01412C512C3201F12CE12C10E0A0
:1050100000E09E012F5F3F4FA6014E195F09B501C9
:105020006E0D7F1D80915102909152022AD4892BDE
:1050300009F04BC089819A81009741F4E114F10491
:1050400029F420915E06222309F442C0E80EF91EDD
:10505000EC14FD04D0F480E8481684E858068EE18C
:105060006806710420F560E070E0CB010E947631A3
:105070002AE0420E511C611C711C0A3F4FEF1407BD
:1050800021F0043F8FEF1807A1F4C8010F900F9093
:10509000DF91CF911F910F91FF90EF90DF90CF9014
:1050A000BF90AF907F906F905F904F90089501EF09
:1050B0001FEF81E090E0013F2FEF120711F090E029
:1050C00080E0892B09F4A5CFE0CF04EF1FEFDDCFFF
:1050D0000AEF1FEFDACF0FEF1FEFD7CF4F925F929C
:1050E0006F927F92AF92BF92CF92DF92EF92FF9238
:1050F0000F931F93CF93DF931F921F92CDB7DEB70D
:105100001A821982009709F479C06115710509F4B2
:1051100075C0209151023091520207EF1FEF2F3FCF
:105120003F4F09F445C06B015C01412C512C320109
:10513000F12CE12C10E000E09E012F5F3F4FA60113
:105140004E195F09B5016E0D7F1D8091510290913E
:1051500052024DD3892B09F04BC089819A81009767
:1051600041F4E114F10429F420915E06222309F4AC
:1051700042C0E80EF91EEC14FD04D0F480E4481699
:1051800082E458068FE06806710420F560E070E064
:10519000CB010E9476312AE0420E511C611C711C29
:1051A0000E3F4FEF140721F0043F8FEF1807A1F4D3
:1051B000C8010F900F90DF91CF911F910F91FF9039
:1051C000EF90DF90CF90BF90AF907F906F905F9007
:1051D0004F90089502EF1FEF81E090E0023F2FEF24
:1051E000120711F090E080E0892B09F4A5CFE0CF01
:1051F00004EF1FEFDDCF0EEF1FEFDACF0FEF1FEF42
:10520000D7CF80915102909152028F3F980749F079
:10521000D0D2892B49F48FEF9FEF90935202809365
:10522000510290E080E0089584EF9FEF0895CF92BF
:10523000DF92EF92FF920F931F93CF93DF9321E0C2
:105240004115510509F020E04150510921112CC0B0
:10525000DC01FB01D12CC12C21E022C03FEFC31A9D
:10526000D30A7D010D911D91E701EA80FB80E016D4
:10527000F106A8F420813181E280F380F182E0829E
:1052800033832283ED90FC9011979D0122503109C8
:10529000E901F982E88211961C930E9320E0329680
:1052A000C416D506D8F2D2CFDF91CF911F910F91BE
:1052B000FF90EF90DF90CF900895FC01680F791F69
:1052C00090E080E0E617F70709F408952191820F36
:1052D000911DF8CF20915F06211113C045DE009784
:1052E00091F4109265061092640610926306109273
:1052F0006206109261061092600621E020935F061C
:10530000089584EF9FEF0895AF92BF92CF92DF92FE
:10531000EF92FF920F931F93CF93DF93009709F4BF
:1053200060C04630510508F45CC020915F06C7EFAD
:10533000DFEF222309F449C08C01060F171FF80183
:10534000C080D180C114D10409F44EC096012A5FF7
:105350003F4F4217530708F447C07C018091640611
:105360009091650693838283B6016C5F7F4F5801ED
:10537000A60EB71EC801A1DFF5019183808364E00A
:1053800070E0C80118DEEC01892BF9F481E090E0AF
:1053900007DEB601C80104960EDEEC01892B91F4FC
:1053A00062E070E0C50107DEEC01892B59F4C7010A
:1053B000D9DB80916406909165060196909365060D
:1053C0008093640690E080E0EBDDCE01DF91CF9129
:1053D0001F910F91FF90EF90DF90CF90BF90AF9013
:1053E0000895CFEFDFEFF1CFC9EFDFEFEECF6F9290
:1053F0007F928F929F92AF92BF92CF92DF92EF9265
:10540000FF920F931F93CF93DF9300D01F92CDB7DE
:10541000DEB7009709F47AC04115510509F476C04A
:1054200020915F0607EF1FEF222309F44DC03A01D8
:105430007B015C0164E070E0CE0101964FDE8C01DF
:10544000892B09F041C009811A810115110509F460
:105450005AC0480186E0880E911CB701680D791D7D
:10546000809153029091540209DD6C01009709F478
:1054700050C0A70170E060E00E94D03789819A8116
:10548000AB81BC81EC0CFD1CF70181939193A1933E
:10549000B1937F0181E090E083DDB801C7011EDE9A
:1054A000892B31F562E070E0C701800F911F16DE95
:1054B0008C01892BE9F490E080E072DDF501D18266
:1054C000C082F30191828082C8010F900F900F90EB
:1054D0000F90DF91CF911F910F91FF90EF90DF9090
:1054E000CF90BF90AF909F908F907F906F900895D6
:1054F00090E080E055DDF50111821082F301118208
:105500001082C6012FDB09EF1FEFDECF0FEF1FEF79
:10551000DBCF06EF1FEFD8CF0097A1F04115510563
:1055200089F02115310571F0F90136966E177F0764
:1055300048F0DC012D933C93DA01ED93FC9390E06D
:1055400080E008958FEF9FEF0895AF92BF92CF92C2
:10555000DF92EF92FF920F931F93CF93DF93009709
:1055600009F45FC04115510509F45BC06530710550
:1055700008F457C020915F06C7EFDFEF222391F1B7
:10558000DC01CD90DC9011971296ED91FC91960183
:105590002A5F3F4FC9EFDFEF2617370719F5C09194
:1055A0006006D0916106209749F521E030E0309304
:1055B0006106209360067A018C01F0936306E09304
:1055C00062065601B4E0AB0EB11CB50176DE0A0DE1
:1055D0001B1DF801208131818217930729F5D7011E
:1055E000CD92DC92CE01DF91CF911F910F91FF9070
:1055F000EF90DF90CF90BF90AF900895209162061A
:10560000309163062F5F3F4FCCEFDFEFE217F307D8
:1056100090F2CBEFDFEF2E173F0768F2D0E0C0E04B
:10562000CACFCFEFDFEFDECFC3EFDFEFDBCF84E01A
:1056300090E0089582E090E008958CEF9FEF089548
:1056400080E290E008951092650610926406109230
:10565000630610926206109261061092600690E056
:1056600080E00895909354028093530208958091AE
:105670005F06882391F0C5DD009789F410926506D6
:1056800010926406109263061092620610926106F0
:105690001092600610925F06089590E080E00895F1
:1056A000009749F06115710531F0FC0111821082FB
:1056B000FB01118210820895F3CF26E030E040E82C
:1056C00055E260E070E090E080E000C0813091053C
:1056D00071F01CF4892B39F008958230910551F056
:1056E000039759F0089583E796E00C94A33480E182
:1056F00097E0FBCF8DEA97E0F8CF8AE498E0F5CF0A
:105700001F920F920FB60F9211240BB60F922F9388
:105710003F934F935F936F937F938F939F93AF9339
:10572000BF93EF93FF938FE89DEF909325018093B4
:105730002401BBD0FF91EF91BF91AF919F918F91C9
:105740007F916F915F914F913F912F910F900BBE81
:105750000F900FBE0F901F9018958FE89DEF9093BC
:10576000250180932401A3E7B0E08C918E7F8C9378
:10577000E0E2F1E080818C7F8083E1E2F1E08081F2
:10578000877E808380818460808380818C7F80831A
:105790008C9181608C930895E3E7F0E080819081A3
:1057A0009E7F90838170089581E00895109266062F
:1057B000089568EE73E080E090E098D590E080E096
:1057C000089526E030E040E050E16EE070E090E0C7
:1057D00080E07CDF83E796E0ECD7892B29F083E734
:1057E00096E00E94F333F6CF90E080E00895CF92E8
:1057F000DF92EF92FF920F931F93CF93DF936B0192
:105800007A01E9011982188283E796E0D2D7892BC1
:1058100069F18601CC24C39482E0D82E809166067B
:10582000811110C083E796E0DED70297B9F7C092E6
:105830006606F801D1928F0188819981019699833A
:105840008883ECCF888199818E159F0578F483E752
:1058500096E0C9D78F3F9807A9F3F80181938F018C
:1058600088819981019699838883ECCF90E080E0CC
:10587000DF91CF911F910F91FF90EF90DF90CF902C
:1058800008950F931F93CF93DF93EA01890183E774
:1058900096E00E943337F801D183C08390E080E026
:1058A000DF91CF911F910F9108958091670691E04C
:1058B000980F90936706882349F021E030E03093F9
:1058C00069062093680680936706089578940E947D
:1058D0009709F894809167068150F5CF0F931F9335
:1058E000CF93DF931092300910922F0935D5E5DE62
:1058F000C0918C02D0918D02198218826FEF7FEFD8
:10590000CB010E94F80670E060E090E080E00E9429
:105910007505009709F042C00E94B30BF894789483
:10592000BE0162557F4F8A819B810E947805892B39
:1059300071F46FEF7FEFCB010E9409060E94F2061F
:10594000882329F081E0FE01EC54FF4F8083F89416
:1059500004DF0E94F506882311F080E00BC00E944E
:10596000F2068111FACF81E0FE01EC54FF4F9081E5
:105970009111F3CF80932F0978940E9472138C01B8
:105980007894CC54DF4F80912F0981110CC00E9474
:10599000B30C0E94D606F89490E080E0DF91CF919E
:1059A0001F910F9108950E94D4060E94F506882346
:1059B000D9F081E0809330099091300981E0911114
:1059C00080E080932F09809130098111E5DE01305C
:1059D000110529F40E947213892B09F4E7DE0E9455
:1059E00072138C01E1DECFCF0E94F2068111E1CF6C
:1059F00081E098819111DECF80E0DCCF5058BB2749
:105A0000AA270ED00DC1FED030F003D120F031F422
:105A10009F3F11F41EF4F3C00EF4E095E7FBE9C0DC
:105A2000E92F0FD180F3BA17620773078407950730
:105A300018F071F49EF527C10EF4E0950B2EBA2FE5
:105A4000A02D0B01B90190010C01CA01A001112484
:105A5000FF27591B99F0593F50F4503E68F11A1630
:105A6000F040A22F232F342F4427585FF3CF4695C1
:105A700037952795A795F0405395C9F77EF41F16E3
:105A8000BA0B620B730B840BBAF09150A1F0FF0FAD
:105A9000BB1F661F771F881FC2F70EC0BA0F621F99
:105AA000731F841F48F4879577956795B795F79589
:105AB0009E3F08F0B3CF9395880F08F09927EE0F1B
:105AC00097958795089571D008F481E0089504D0E2
:105AD0006894B111D9C00895BCD088F09F5790F058
